:100000000C9462000C948A000C948A000C948A0070
:100010000C948A000C948A000C948A000C948A0038
:100020000C948A000C948A000C948A000C948A0028
:100030000C948A000C948A000C948A000C948A0018
:100040000C942D030C948A000C948A000C948A0062
:100050000C948A000C948A000C948A000C948A00F8
:100060000C948A000C948A000000000024002700F1
:100070002A0000000000250028002B0000000000DE
:1000800023002600290004040404040404040202DA
:100090000202020203030303030301020408102007
:1000A0004080010204081020010204081020000012
:1000B0000007000201000003040600000000000029
:1000C00000008C0011241FBECFEFD8E0DEBFCDBFF3
:1000D00013E0A0E0B1E0EAEAF8E002C005900D927A
:1000E000A230B107D9F713E0A2E0B3E001C01D923E
:1000F000A132B107E1F710E0C4ECD0E004C02297D0
:10010000FE010E944F04C23CD107C9F70E94D703E9
:100110000C9453040C94000082E093E063E070E0E0
:100120004AE050E02FEF3FEF0E94180208959B0134
:10013000AC0182E0220F331F441F551F8A95D1F76F
:1001400082E093E0B9010E9413020895EF92FF92BA
:100150000F931F9382E00E940B0340911403509170
:1001600015039C01241B350B37FF03C030952195E7
:100170003F4F293031050CF4CA0143E0959587952E
:100180004A95E1F7909315038093140380E00E9451
:100190000B038C0180E00E940B03800F911F4091A4
:1001A0001603509117039C01241B350B37FF03C026
:1001B000309521953F4F293031050CF4CA0133E0C9
:1001C000959587953A95E1F79093170380931603D9
:1001D0000E9475037B018C0180910E0390910F03A7
:1001E000A0911003B0911103A8019701281B390BAE
:1001F0004A0B5B0BCA01B9010E94E803E0911603A8
:10020000F09117032091140330911503E20FF31FAF
:10021000EE0FFF1FEE0FFF1FEF5FFE4F20813181BA
:10022000428153810E9425041816D4F46FEF70E0C8
:100230002091120330911303621B730B709313030D
:1002400060931203882777FD8095982F0E9497006E
:10025000E0920E03F0920F0300931003109311032A
:100260001F910F91FF90EF9008951F9382E060E03F
:100270000E94780283E061E00E94780283E060E0FF
:100280000E94B70284E061E00E94780284E060E0AE
:100290000E94B70215E0812F61E00E947802812F51
:1002A00060E00E94B7021F5F1D30A9F780917A00BD
:1002B000846080937A0080917A008D7F80937A00A9
:1002C00080917A008E7F80937A0082E093E061E0F3
:1002D0000E948E0182E093E061E070E00E94940150
:1002E00082E093E061E00E9491011F9108958AE00D
:1002F00061E00E94B7028AE061E00E9478028CB55A
:1003000080618CBD8CB580648CBD8DE061E00E9405
:1003100078028BE061E00E9478020895FC01668318
:100320000895FC0160870895FC016130710519F49E
:10033000178281E008956230710511F080E0089520
:1003400081E087830895FF920F931F93CF93DF93EC
:100350008C01EB01F42EDC0114968D919C91159784
:100360008C30910511F4DF7008C08A30910511F4CA
:10037000D37003C0089709F4D070F80180858823F2
:1003800011F02A9805C0D8018C9160E00E94B70254
:10039000D8011696EC91169717968C91882319F030
:1003A00040E050E002C040E050E28CE090E0D80134
:1003B00014962D913C911597821B930BBE0102C0A0
:1003C000660F771F8A95E2F770613F2D37953327C7
:1003D000379520E09E2F9295990F990F907C80E0A1
:1003E000282B392B242B352B622B732B7EBD000041
:1003F0000DB407FEFDCF8EB56EBD00000DB407FE37
:10040000FDCF8EB5F8018085882311F02A9A05C0AA
:10041000D8018C9161E00E94B702DF91CF911F91CA
:100420000F91FF90089540E050E00E94A3010895CD
:10043000CF93DF93EC011E821F82188684E090E048
:100440009A87898781E08B87598348833B832A83F6
:1004500063307105E1F0643071053CF46130710581
:1004600071F062307105B1F40DC06530710551F065
:100470006530710524F06630710561F408C088E0CC
:1004800090E002C08AE090E09D838C8305C08CE000
:1004900090E0FACF1D821C82888161E00E94780280
:1004A0008A8161E00E947802888161E00E94B7023F
:1004B0008A8161E00E94B7020E9477018CB58F7D2E
:1004C0008CBD8CB5837F8CBD89852CB5382F33705E
:1004D0002C7F322B3CBD2DB590E095958795959559
:1004E000879581702E7F822B8DBDDF91CF910895EE
:1004F000CF93DF93482F50E0CA0186569F4FFC01EF
:1005000034914A575F4FFA018491882369F190E052
:10051000880F991FFC01E859FF4FA591B491FC0188
:10052000EE58FF4FC591D491662351F42FB7F8943C
:100530008C91932F909589238C93888189230BC06C
:10054000623061F42FB7F8948C91932F90958923A2
:100550008C938881832B88832FBF06C09FB7F89424
:100560008C91832B8C939FBFDF91CF910895482F5F
:1005700050E0CA0182559F4FFC012491CA01865662
:100580009F4FFC0194914A575F4FFA0134913323F6
:1005900009F440C0222351F1233071F0243028F4B3
:1005A0002130A1F0223011F514C02630B1F02730EF
:1005B000C1F02430D9F404C0809180008F7703C04B
:1005C000809180008F7D8093800010C084B58F77EC
:1005D00002C084B58F7D84BD09C08091B0008F7743
:1005E00003C08091B0008F7D8093B000E32FF0E0D6
:1005F000EE0FFF1FEE58FF4FA591B4912FB7F8945F
:10060000662321F48C919095892302C08C91892BCB
:100610008C932FBF0895982F8E3008F09E509770BE
:10062000809100018295880F880F807C892B8093B0
:100630007C0080917A00806480937A0080917A00B7
:1006400086FDFCCF2091780040917900942F80E0C6
:1006500030E0282B392BC90108951F920F920FB655
:100660000F9211242F933F938F939F93AF93BF9338
:1006700080911C0390911D03A0911E03B0911F0354
:10068000309120030196A11DB11D232F2D5F2D3721
:1006900020F02D570196A11DB11D209320038093BA
:1006A0001C0390931D03A0931E03B0931F0380911E
:1006B000180390911903A0911A03B0911B0301969E
:1006C000A11DB11D8093180390931903A0931A03E1
:1006D000B0931B03BF91AF919F918F913F912F9149
:1006E0000F900FBE0F901F9018959FB7F894209110
:1006F00018033091190340911A0350911B0386B5DA
:10070000A89B06C08F3F21F02F5F3F4F4F4F5F4F99
:100710009FBF542F432F322F2227280F311D411DF9
:10072000511D82E0220F331F441F551F8A95D1F7B8
:10073000B901CA010895789484B5826084BD84B5F6
:10074000816084BD85B5826085BD85B5816085BDCC
:10075000EEE6F0E0808181608083E1E8F0E01082E5
:10076000808182608083808181608083E0E8F0E026
:10077000808181608083E1EBF0E080818460808310
:10078000E0EBF0E0808181608083EAE7F0E0808147
:1007900084608083808182608083808181608083A7
:1007A0008081806880831092C10008950895CF935E
:1007B000DF930E949B030E94D6030E943501C0E094
:1007C000D0E00E94A6002097E1F30E940000F9CF3C
:1007D000E89409C097FB3EF49095809570956195DB
:1007E0007F4F8F4F9F4F9923A9F0F92F96E9BB2791
:1007F0009395F695879577956795B795F111F8CF0D
:10080000FAF4BB0F11F460FF1BC06F5F7F4F8F4F77
:100810009F4F16C0882311F096E911C0772321F06D
:100820009EE8872F762F05C0662371F096E8862F05
:1008300070E060E02AF09A95660F771F881FDAF75C
:10084000880F9695879597F9089503D008F48FEF50
:100850000895990F0008550FAA0BE0E8FEEF161651
:100860001706E807F907C0F012161306E407F507A4
:1008700098F0621B730B840B950B39F40A2661F018
:10088000232B242B252B21F408950A2609F4A140BB
:10089000A6958FEF811D811D0895EE0FFF1F059016
:0A08A000F491E02D0994F894FFCFC5
:1008AA000119E4EE47AE7BE147E5D3D447F3E1C84B
:1008BA0047A29BBD4750F7B247E5EBA847CD709FCB
:1008CA0047EE7D9647A30B8E47B4128647A2187D42
:1008DA004719E46E47AE7B6147E5D35447F3E148D5
:1008EA0047A29B3D4750F73247E5EB2847CD701F9B
:1008FA0047EE7D1647A30B0E47B4120647A218FD12
:10090A004619E4EE46AE7BE146E5D3D446F3E1C8A8
:10091A0046A29BBD4650F7B246E5EBA846CD709F6E
:10092A0046EE7D9646A30B8E46B4128646A2187DE5
:10093A004619E46E46AE7B6146E5D35446F3E14878
:10094A0046A29B3D4650F73246E5EB2846CD701F3E
:10095A0046EE7D1646A30B0E46B4120646A218FDB5
:10096A004519E4EE45AE7BE145E5D3D445F3E1C84C
:10097A0045A29BBD4550F7B245E5EBA845CD709F12
:10098A0045EE7D9645A30B8E45B4128645A2187D89
:10099A004519E46E45AE7B6145E5D35445F3E1481C
:1009AA0045A29B3D4550F73245E5EB2845CD701FE2
:1009BA0045EE7D1645A30B0E45B4120645A218FD59
:1009CA004419E4EE44AE7BE144E5D3D444F3E1C8F0
:1009DA0044A29BBD4450F7B244E5EBA844CD709FB6
:1009EA0044EE7D9644A30B8E44B4128644A2187D2D
:1009FA004419E46E44AE7B6144E5D35444F3E148C0
:100A0A0044A29B3D4450F73244E5EB2844CD701F85
:100A1A0044EE7D1644A30B0E44B4120644A218FDFC
:100A2A004319E4EE43AE7BE143E5D3D443F3E1C893
:100A3A0043A29BBD4350F7B243E5EBA843CD709F59
:100A4A0043EE7D9643A30B8E43B4128643A2187DD0
:100A5A004319E46E43AE7B6143E5D35443F3E14863
:100A6A0043A29B3D4350F73243E5EB2843CD701F29
:100A7A0043EE7D1643A30B0E43B4120643A218FDA0
:100A8A004219E4EE42AE7BE142E5D3D442F3E1C837
:100A9A0042A29BBD4250F7B242E5EBA842CD709FFD
:020AAA00420008
:00000001FF
