:100000000C9461000C947E000C947E000C947E0095
:100010000C947E000C947E000C947E000C947E0068
:100020000C947E000C947E000C947E000C947E0058
:100030000C947E000C947E000C947E000C947E0048
:100040000C9493010C947E000C947E000C947E0022
:100050000C947E000C947E000C947E000C947E0028
:100060000C947E000C947E00000000002400270009
:100070002A0000000000250028002B0000000000DE
:1000800023002600290004040404040404040202DA
:100090000202020203030303030301020408102007
:1000A0004080010204081020010204081020000012
:1000B0000007000201000003040600000000000029
:1000C000000011241FBECFEFD8E0DEBFCDBF11E08E
:1000D000A0E0B1E0E0E7F4E002C005900D92A231AB
:1000E000B107D9F711E0A2E1B1E001C01D92AB3236
:1000F000B107E1F70E9425020C9436020C9400002F
:10010000CF92DF92EF92FF920F931F93CF93DF93E3
:100110000E94DB016B0182E1E82E81E0F82E0AE10A
:1001200011E0C0E0D0E0FE01E050FF4F80810E946E
:100130007101F70120813181A601421B530B841705
:100140009507A4F4D182C08260E070E0F80180815C
:100150009181892B11F461E070E0F8017183608373
:10016000FE01E85FFE4F80810E941D01229642E061
:1001700050E0E40EF51E0E5F1F4FC830D10599F612
:10018000DF91CF911F910F91FF90EF90DF90CF9073
:1001900008958091080161E00E94DE0080910A01CB
:1001A00061E00E94DE0080910C0161E00E94DE00AF
:1001B00080910E0161E00E94DE000895CF93DF93ED
:1001C000482F50E0CA0186569F4FFC0134914A5790
:1001D0005F4FFA018491882369F190E0880F991F9D
:1001E000FC01E859FF4FA591B491FC01EE58FF4F77
:1001F000C591D491662351F42FB7F8948C91932F25
:10020000909589238C93888189230BC0623061F497
:100210002FB7F8948C91932F909589238C93888194
:10022000832B88832FBF06C09FB7F8948C91832BB4
:100230008C939FBFDF91CF910895482F50E0CA0162
:1002400082559F4FFC012491CA0186569F4FFC01A5
:1002500094914A575F4FFA013491332309F440C017
:10026000222351F1233071F0243028F42130A1F001
:10027000223011F514C02630B1F02730C1F02430FF
:10028000D9F404C0809180008F7703C080918000F2
:100290008F7D8093800010C084B58F7702C084B5B5
:1002A0008F7D84BD09C08091B0008F7703C080919D
:1002B000B0008F7D8093B000E32FF0E0EE0FFF1FC2
:1002C000EE58FF4FA591B4912FB7F894662321F40F
:1002D0008C919095892302C08C91892B8C932FBF90
:1002E0000895982F8E3008F09E50977080911001DD
:1002F0008295880F880F807C892B80937C00809169
:100300007A00806480937A0080917A0086FDFCCF29
:100310002091780040917900942F80E030E0282BE4
:10032000392BC90108951F920F920FB60F92112415
:100330002F933F938F939F93AF93BF938091260109
:1003400090912701A0912801B091290130912A01B3
:100350000196A11DB11D232F2D5F2D3720F02D57A4
:100360000196A11DB11D20932A018093260190932F
:100370002701A0932801B093290180912201909137
:100380002301A0912401B09125010196A11DB11D69
:100390008093220190932301A0932401B09325011F
:1003A000BF91AF919F918F913F912F910F900FBE71
:1003B0000F901F9018958FB7F894209126013091D7
:1003C000270140912801509129018FBFB901CA012D
:1003D0000895789484B5826084BD84B5816084BDBD
:1003E00085B5826085BD85B5816085BDEEE6F0E0AE
:1003F000808181608083E1E8F0E01082808182600A
:100400008083808181608083E0E8F0E0808181608A
:100410008083E1EBF0E0808184608083E0EBF0E0BA
:10042000808181608083EAE7F0E08081846080835E
:100430008081826080838081816080838081806808
:1004400080831092C10008950895CF93DF930E9496
:10045000E9010E9424020E94C900C0E0D0E00E948D
:1004600080002097E1F30E940000F9CFF894FFCFBD
:100470000000010002000300040005000600070060
:02048000010079
:00000001FF
