:100000000C9483280C94E12D0C940E2E0C94AB28A8
:100010000C94AB280C94AB280C94AB280C94AB2814
:100020000C94AB280C94AB280C94AB280C94AB2804
:100030000C94AB280C94AB280C94AB280C94AB28F4
:100040000C94152D0C94AB280C94AB280C94AB2875
:100050000C94AB280C94AB280C94AB280C94AB28D4
:100060000C94AB280C94AB2881807E7F7F818180AB
:100070007E7E80817F7B7A7F8386807A7A7C86858C
:10008000857C787E80897E7E797A8283837B7F7689
:1000900083858581747C7E8B867F7C768086908646
:1000A0007F7495EDB770281F72AFEBA5641B2C7998
:1000B000BAEB995D103C85D2E78E51074C90E4DA9B
:1000C000803B0961A2F1C271291978B4F5A86718BB
:1000D0002A86C5EF955D10428BD4E186500E5A9961
:1000E000E6CF7B3E126CA4F0BE72271B78B7F6A851
:1000F00066162D84C8EF975A0F4491D9E1884910AC
:10010000589DE4CE7A37166AADEDBA6B26237CBED5
:10011000EEA65D18338AD0EA944D0F4598DFDF854F
:100120003E0E56A5EACF772D1567B4EFBE6A2121A2
:1001300075C2EEAE5B173085D3E79D48124098E15B
:10014000D98A361450A9EACE77221B63BDEDBE666C
:10015000182473D0EFB2510D2D8AE5E7993A124178
:100160009EE9DA8E30144DB1F3D2761B196CCCE7D0
:10017000B85A1C3077D2E2AF50173683D8DFA43795
:100180003CBAD37B4A8CAD762841ADE8AE331A68D1
:10019000D2DA83222E98C3974C69B7A5422E8DDF01
:1001A000CE571C49AFDA9B3F287BB8B06C5187AE65
:1001B0008A4249A5DD9E35187DE3C9551666C2C041
:1001C0005E3B89C09933349BEBB436186FD9D5792F
:1001D000304B9BBD99525696B4833D50ADDF922370
:1001E0002399F2B4392388D9A63D43A7CD8122496A
:1001F000BEE996222C95E2B0503770BAAE744969C8
:10020000ABB575325EB4CE7D2040BAEE861431B8FF
:10021000E6831F45C6DC65155BD0D663215BB9CE8E
:1002200083424D97BD91594B84B7A35F3C77C4BEC1
:100230005E1B5FD9DC5E0B63E2D152116EE4CB46EC
:100240001273D4BD583275BCB3624271AFB27B4CED
:100250005494B396574589C6B353317DDDC35C8A48
:10026000AF7C667C9074658A9B6A4070C2AB3D240B
:100270008CDF9D2F339ED2915D3E88DF76167EDC2B
:10028000833E7688829D70449CC14641BCA33E6AF1
:10029000AF826684617ACC811A7BEA843183A8803C
:1002A00087704BA5D9551EA3D05F579A887A9B6853
:1002B00056C4A71E52E7A73374A97F807B5195DFF0
:1002C000620E9AE469378F9E84905B48BDCE342CD1
:1002D000CCC4445DA58885854F7BE18B0476F5868B
:1002E0002E7EA380846D4FB0D53F1DC0DB523F9161
:1002F0009C918B435ADFB1104AE5A234719D868AE6
:10030000744895DC6114A2E4613B93A08581556338
:10031000C8B5293ECEBD49508C979A7B457BD28586
:10032000277FCE7F4E7D948787665CACB34A47AE0D
:10033000B25C5C8D978D775880C3864471E99E1AB4
:1003400087BA5E74A94C5BD4840F8EDC5143B486AB
:1003500046A29D3A84CD5D42C0A33483BE595CB7AA
:100360006D42BAA82B6ACF76459B8F5A979F4268F9
:10037000D081348EAF5F73A7625CBA943983BF6952
:100380005BA485579B9C517BB36D55A8984E7CAA66
:100390006F659C80629B984D73BA83538598758373
:1003A0008C6577AD864C83AC7A6987827B93826259
:1003B00087A06E67959071778B7E7D89747B96831D
:1003C000607C9F8765798F8785776F879D795E824F
:1003D0009F846C76888A85776F8A9274698995780C
:1003E0006E8687807B7A8488827077938F6C6E8D1F
:1003F00092796F808A887A6E7E97876872928C7104
:10040000778783817F747F937F69829479718587F1
:100410007E7E7A788B8E6D6E928F6F7691847B81E3
:100420007B7C8F89697994816D838B777C857A7CDD
:100430008F7F7081A484509FAA5278AA6662B1848B
:100440003E93B34F63B57A4A999D5179AD645AB0E2
:100450008A4491B55660B37E539F994981BA634FE0
:10046000AD964C88A55C6EB2774DA0A0517AB1696B
:1004700059AB904D8CAA5E6CAF7950A1A35173AE6D
:10048000725FA4884F92AD5863B08354969A567D9C
:10049000AE6A57A6915388A45F6CAD7D54989D5B5E
:1004A0007CA76A61A78E5286A5666FA3775D9D982B
:1004B000567AA872659C865D8F9E616EA47E62935B
:1004C000906180A26E669A8A64889568789E7A6345
:1004D0009190697E95717198836587946F7994780E
:1004E0006F928A69809376768F7E6E8B8C6E799010
:1004F0007D74898271858D74768D81758684738211
:100500008D7875898377838475808D7A75878479F2
:1005100082847B8488787A8B8172838A78778682DA
:100520007B817D79868573798B83767C83808380DC
:10053000767F8C7F7281897D7B817E7F867C7786CA
:1005400087767A89817981827D8483757F8D7E72B9
:1005500084897B7C827C80897B73878A7579898199
:10056000798380798588747A8D80738389797D8594
:100570007B7D8A7E72868C76768A83788281788586
:100580008974788E847280897B7D857B7B8B817179
:10059000828D7976888378838377828A78758B8752
:1005A000737D8A7D7A867E788885737D8D7D75855D
:1005B00084798184787F8B7B748888757D897D7B45
:1005C000857F788686757B8B807683857A7F857A32
:1005D0007D897F758488797B877F7A84807884861B
:1005E000787A88827780857C7E837B7C8881768020
:1005F0008A8175838A787B897B778A8372818B79FC
:10060000778982748387767C897C77878574808AF2
:100610007A788781778486777C8A7E768585787FED
:10062000877A7A88817681877A7C877E79858478D3
:100630007E877C7B85817981867B7B8680798483BC
:10064000797F877D7A84827A81847B7D867F7982B7
:10065000837C7F847D7C85817A80847E7D837F7CA2
:1006600082837B7E847F7C82817C80837D7D82818E
:100670007D80817D7F837F7C81817E7F807E7F8284
:10068000807D7F827F7E807F7E81817E7F82807E73
:1006900080807E80817E7E81807E80817E7F827F61
:1006A0007D80817E7F807E7F82807D80827F7E8153
:1006B0007F7E81807D7F827F7E80807E7F817F7E46
:1006C00081807E80807F7F81807E7F817F7F808030
:1006D0007F662A3572768A6A6C8B6C73826A616D6A
:1006E00078786E6672796F6A6581879AA2AEAE97E6
:1006F0009EA3ADA8A38D848F9C9C8B72738F9179E0
:1007000064687F87746568869B896868899E8F6B3B
:100710006991B09A6D6689B4A7705A7AA9A6684A99
:1007200069A3AB6A4765A6B2794661ABC5904655E9
:10073000A8CF903A409ACB8D36389BDA9F2D2390E4
:10074000E2A8301F8AE4B63C28A9CE5122A2DA6181
:10075000238DDB83276EDD9C2650C6A72F45BEB3B5
:100760003938ABD4592898D56E1879D0811A6DD301
:10077000982957D1AF383FC7C8492F9CC453299FE8
:10078000D472298CDE892677E16232BA952395CE20
:100790004359DB8228B6C43163CC5838CA9E2B96A5
:1007A000D64450DE88259EB32C6FD9613DCBA7255A
:1007B00091DA4A44C67C26AEBE3571DF6634CBADD5
:1007C000267CC6424CD6852EAEC63369E36C2EB26B
:1007D0009F238CD14D4DDC7C3EDF5854C82F8FBBFE
:1007E0002BBB982FD96E42CB3D76CB2DA8AE28CA15
:1007F0008832C94F60D53692C127B7A127C3624D51
:10080000D84678D22BA3B523B5793BD75961DD33D0
:100810008EC42A9D9724DB4D989252CF28C633B5BB
:10082000697DAC3CDE22C638AA786DBA34E028BABD
:1008300048958C5AC92BE031AD5981A048D526DDA9
:100840003B9F6A6EB13CDC27D44B8D7D5BC032DEB2
:100850002DC75E7A9049CD2BDE35B97068A03CD4A7
:100860002AD742A78457AE33D62FC76474BF29CA8C
:1008700031AD7D5ECC28D84C839141D62BCB5F79AE
:10088000BB2BCA30B07A61CB28DB47888C45D42B90
:10089000CD5C7DB72DCA2EB37665C829DC448C8823
:1008A00048D12BCF5881B42ECA2DB67268C529DE27
:1008B0004090834DCE2DCF5B74C524C4497FB331A6
:1008C000DB488BB42AC93B94A13BDE38A19F34C9D5
:1008D00030A88D49DB2EB58943C529B9785AD4286B
:1008E000C67353BD27C8636FC728D35E66B129D2CC
:1008F0005084B72DDB4C79A729D15C6DCE29BD89F9
:100900003CC93399A533DA5373CD25B26E4FD53335
:10091000A99D35DE4C70B028C96B5ED62CB19733DB
:10092000C93C8AB22FD46065D428A77C44D73A9BAF
:10093000AC2EDA5962B926C07852DA33A3A62CC796
:10094000467CBD2CCC6F56DE3487A529C6774CDD9E
:100950004280CA26A88339D6536FD12DA8AA28C0B1
:100960005F56D43996B729C8823AC93F7CC32DB99E
:100970009336DC5A59C22CA2A431D36B52DE3B7E93
:10098000AC27C27E47DC4976D52D8CA728B8933595
:10099000D37246DE5557C63487C12EACA92AC78DFF
:1009A00030C45C51D64777D23196C126A4902ECB65
:1009B0007746DB585EDD3E71BA29A2AB2EC38E347A
:1009C000D76F41C9456CCF3693C029B1A827B876F7
:1009D0003DD55C5DDA4277D73774BC2E8DC2309C32
:1009E000BE2BA3BC279BA028B3A02FC0992DC794D2
:1009F0002ABA7936CE7741D76F43DC6841C8535461
:100A0000D65162DA4867DC4265C3357DCB368CC986
:100A10003092C82B8DAC289FBA3096C83285D43A14
:100A200069C43C6AD44B62DB5751DD673DC5673D05
:100A3000CF7B3ACE8B2FC59E27A89828ADAD2DA68B
:100A4000BD2C96CB3079BE337ACF4071D9495FDE69
:100A50005848C85849D46C44D57B37D08E2BB38ABC
:100A60002CBA9F2EB3AF2A9FCA356BC54557D6699E
:100A700042CF902BB8B52A84BC3471D45255D87566
:100A800035CC9C289BAB298CCA406CDA5B47D98259
:100A90002DAF9628A5BA3485D4455EDD6739BE7D75
:100AA0002DBBA42F9FC73479DB4F4BC7643BCB8C46
:100AB00032B6B32A95CF3D58C76337C49F2F97CF1F
:100AC000425BDD782EACA0288BCD4A58D77F2EB95B
:100AD000B92F72C54A4BD18433B1BD3278DC5D3C4D
:100AE000BC8729A6BD3972DA633DCE9F288CBA3700
:100AF00065D5693EC6A52A8DD8573BB994288CCFB9
:100B00005449CCA12A8BD9583BB895288AD055484E
:100B1000CBA22B8AD9593AB7962989D05647CAA46D
:100B20002B88DA5B39B6982987D15846C9A52B8717
:100B3000DA5C38B5992985D15846C8A72B86DA5E84
:100B400037B59A2984D15E3EBCBB395DDA912A7FE4
:100B5000C5543ABBB33A66D78B2A94D85B36ACAA55
:100B60003066D284309AD2573DC5B7355BC57A29F5
:100B70009BCB5445C6B0336ADD822A8BC14943C43E
:100B8000A83572D97C2D9DD85C339FB93F48C3AE40
:100B90003A60D49B2F72DE852C7BC7622FA6C75587
:100BA00040BEBE434BCFAE3558C28B277FD27A3082
:100BB0009AD46432AECF4E3CABAE3458CBA0337136
:100BC000D88B2C84DE742D8AC35238B3BE484CC9EE
:100BD000B0395AD79E2F66C67A2890CF6A35AACCEC
:100BE000553BBEC34247B6A02D68CF903082D87B1C
:100BF0002D96DA633299BC4444BFB33E5AD1A23138
:100C00006BDD8C2C75C7692DA0CA5B3CB8C2484708
:100C1000CAB43955B98F367ABF80478DB7735295AC
:100C2000AA6B61909368729389717C8C817A7F80C2
:100C300080808080808080808080808080808080B4
:100C400080808080808080808080808080808080A4
:100C50008080808080808080808080808080808094
:100C60008080808080808080808080808080808084
:100C70008080808080808080808080808080808074
:100C80008080808080808080808080808080808064
:100C90008080808080808080808080808080808054
:100CA0008080808080808080808080808080808044
:100CB0008080808080808080808080808080808034
:100CC00080959D9C9E9C9B96928A7F70675F5954ED
:100CD000514F4F4F51565C646E7D8E9DA9B3BAC182
:100CE000C3C4C5C2BEB7AC9F8D7157483B312927DD
:100CF00025272A303A46566C87A3BACBD9E3EBECCA
:100D0000EDEAE5DDCDBBA5825637231206010102CF
:100D1000080F1D2C3F577598B6CCDDE9F2F5F4F2BB
:100D2000EBE4D6C4B1966F4A35251A121010131988
:100D3000212F3D506784A2B9CAD7E0E6E6E6E2DC9F
:100D4000D4C5B5A2856147382B221E1E1F23283229
:100D50003E4C5E758FA8B9C7D0D7DADAD9D4CEC4E5
:100D6000B6A8947759483B322B292A2C3036404B71
:100D7000596A8098AAB8C2C9CECFCECCC7C1B6AA8C
:100D80009C876B564A4038343435373B434C576464
:100D900075899DABB5BDC3C5C5C4C1BDB6ABA0917A
:100DA0007C64564C453F3E3E3F42474E56616E7E08
:100DB000909FAAB2B7BCBCBCBBB7B3ABA1978872BB
:100DC00061574F4A464646484B50575F697685946F
:100DD000A0A8AEB2B5B5B4B2AFAAA2998F7F6C612C
:100DE00059534F4D4E4E5154596067717D8B969FAC
:100DF000A5AAADAEADADAAA7A19A9287776A625CAB
:100E00005754545455585B60666E77838E979EA2F4
:100E1000A6A8A8A8A6A4A09A948C817269635E5B18
:100E20005A5A5A5C5E62676C747D8790969C9FA24A
:100E3000A3A2A2A09D99948E877B706A6662605F70
:100E400060606264686D7279818A9095999C9E9EBB
:100E50009D9C9B98948F8A82776F6B6765636364B0
:100E60006566696D71767D848B909497999A9A994D
:100E70009896948F8B867D75706C6A6867676869D1
:100E80006B6E71757A80878C9093949696969594F4
:100E9000928F8C88827A74716E6C6B6B6B6C6D6FD9
:100EA0007275787D82888B8E909292929291908EBC
:100EB0008B88847F797573716F6F6F6F70717375C5
:100EC000787B7F84888B8D8E8F90908F8F8D8B8990
:100ED00086827C77757271707070707172747679B9
:100EE0007D8186898C8E8F9090908F8E8D8A88845C
:100EF000807A76747270707070717375787A7D7F95
:100F000082838484848382818080808080808080CA
:100F100080808080808080808080808080808080D1
:100F200080808080808080808080808080808080C1
:100F300080808080808080808080808080808080B1
:100F400080808080808080808080808080808080A1
:100F50008080808080808080808080808080808091
:100F60008080808080808080808080808080808081
:100F70008080808080808080808080808080808071
:100F80008080808080808080808080808080808061
:100F90008080808080808080808080808080808051
:100FA0008080808080808080808080808080808041
:100FB0008080808080808080808080808080808031
:100FC0008080808080808080808080808080808021
:100FD0008080808080808080808080808080808011
:100FE0008080808080808080808080808080808001
:100FF00080808080808080808080808080808080F1
:1010000080808080808080808080808080808080E0
:1010100080808080808080808080808080808080D0
:101020008080808080808080808080808080858AB1
:101030008E91929393908C83766C6661605F61660B
:101040006D798998A2A9ADAEACA79D8F755E524807
:101050004444464E5A6B85A0B2BFC7C9C7C1B3A1AD
:10106000805842322A282A33425878A0BDD2DFE481
:10107000E2DDCEB6945D3620100D0E162740649644
:10108000C2E0F4FDFCF5E6CBAA70391F0B05060E95
:101090001E355582B2D1E6F1F3EEE4CFB4884F2F7E
:1010A0001B1010141F324C709FC1D7E5EAE7E0D146
:1010B000B99A653E291B181A223147648CB2C9D9E6
:1010C000E0E0DBD1BDA57B4E372721222632435BF2
:1010D0007CA2BCCDD7D9D6CFC0AB8C5F43332A29F5
:1010E0002C3442557093AFC2CDD1D0CBC1AE9871E4
:1010F000503F3330313742526785A3B6C3CACBC79E
:10110000C0B19F815D4A3D37373A424F617997AC14
:10111000BAC2C5C2BEB3A38D6B53473E3D3F454FD8
:101120005D708BA2B0BABEBEBAB3A595795D5046CC
:101130004343474F5B6A8098A8B3B8B9B7B2A79A40
:101140008568584E48484A505966788FA0ABB2B46B
:10115000B3B0A89C8D7360564E4D4E525964728642
:1011600098A3ABAFAFACA89E927E685C5552525428
:101170005A626E7E909DA6AAACAAA79F95867063C0
:101180005B5656575B616B788997A0A5A8A7A59F6A
:10119000978C7969615B595A5C62697382919AA0F4
:1011A000A3A4A29F988F816F66605D5D5F63697184
:1011B0007C8A959B9FA09F9D989186766B656161C7
:1011C0006164696F788590979B9D9D9B98928A7DBD
:1011D000706965636365696E75808B93989A9B9A55
:1011E00097938C82756D68666667696E747C878F6D
:1011F0009497989896938D867A716C6968696B6EEE
:101200007379828B9094969694928E887F75706C89
:101210006B6B6C6F72787F878D91939392918E89AF
:10122000837973706E6E6E7073777C848A8D909103
:10123000908F8D89857D76737070707173767A81E9
:10124000878B8E90908F8E8B878078747170707082
:101250007275797E858A8D8F908F8E8C88837B7551
:10126000727070707174777C8287898A8A898886A7
:1012700084827F7E7E7F808080808080808080806E
:10128000808080808080808080808080808080805E
:10129000808080808080808080808080808080804E
:1012A000808080808080808080808080808080803E
:1012B0008186898D919497999C9E9FA0A1A2A2A2BC
:1012C000A19F9D9A96928C84796F66605B56524E70
:1012D0004B4A49484748494A4E52565C626B7480B3
:1012E0008D99A3ACB4BBC0C5C9CCCDCDCFCECBC935
:1012F000C6C0B8B0A79B8D786252453B322A231EE8
:101300001B1A19191B1D20262D353E4957677A8F48
:10131000A4B6C4D2DDE6EDF4F8FBFAFBFBF5F0EB86
:10132000E1D5C8BBAB987D5F48372B2017100A0862
:101330000708090B0F141A232D37435262748A9E33
:10134000B1BFCBD5DDE4E9ECEEEDECEBE7E2DED7C7
:10135000CCC1B7A99A856B5444392F27201B181785
:1013600018181A1D21262D363E485462718395A601
:10137000B3BEC7CFD4DADDDFDEDDDDDAD6D2CDC550
:10138000BBB2A79A8A735F50453C352F2A27252682
:1013900026272A2D31373E454D57626F7E8E9DAAF6
:1013A000B3BCC2C8CCD0D2D2D1D1CFCBC8C4BEB5C9
:1013B000ADA49A8D7B685A4F48413B373332323265
:1013C0003335373B3F454B525A646E7B8996A1AA11
:1013D000B2B8BDC1C4C6C7C6C6C5C2BFBCB7B0A936
:1013E000A2998F806F6258514B46423F3D3D3D3E32
:1013F0003F4144474C51575E656E7884909AA2A94C
:10140000AFB3B7BABCBDBCBCBBB9B7B4B1ABA59F99
:10141000988F8476696059544F4B484646464647F4
:10142000494B4E52565B60676E77818B949CA2A7A6
:10143000ABAEB1B3B4B4B3B3B2AFADABA6A19C96EF
:101440008F867A6F66605B5754514F4F4F4F5051A4
:101450005355585B6064696F767E878F969BA0A416
:10146000A7A9ABACACACACABA9A7A5A29D99948F36
:10147000887E746C66615E5B585655555556575854
:101480005A5C5F63676B70767C848B91969A9EA1A1
:10149000A3A5A6A6A6A6A5A4A2A09E9A96938E886A
:1014A0008178706B6764615F5D5C5C5C5C5D5E5FF6
:1014B0006164676A6D71767B81888D9295989B9D3A
:1014C0009E9FA0A09F9F9E9D9B9A9793908D88839F
:1014D0007B746F6C69666463626161626263646598
:1014E000676A6C6F72767B80858A8E919496989AE3
:1014F0009B9B9B9B9B9A99989794918F8C88847EB9
:1015000077736F6D6B696766666666666768696A3A
:101510006C6F7173777A7E83878B8E909294959699
:101520009797979796959493928F8D8B8884807ACE
:101530007673706F6D6C6B6A6A6A6A6B6C6C6E6FD7
:10154000717375787A7E8185888B8D8F9091929357
:10155000939393929291908F8D8B898784817C79DC
:1015600076747271706F6F6E6F6F6F70707172746E
:101570007577797B7D808386888A8C8D8E8F8F901E
:1015800090908F8F8E8E8D8C8A888784827E7A77DA
:10159000767473717170707070707071717274752F
:1015A00076787A7D7F828588898B8C8D8E8F8F90DF
:1015B0008F8F8F8F8E8D8C8A898785827F7B7876BF
:1015C00074737271707071727373757677787A7BD9
:1015D0007C7D7E7F80818181818080808080808011
:1015E00080808080808080808080808080808080FB
:1015F00080808080808080808080808080808080EB
:1016000080808080808080808080808080808080DA
:1016100080808080808080808080808080808080CA
:1016200080808080808084888C8F91949596979715
:101630009694918D877E736C67625E5C5A5A5A5B92
:101640005E62686F7985919BA3AAAFB3B4B5B4B25B
:10165000AFA8A096887260544B443E3C3B3C3D4250
:1016600048515C6A7D92A5B3BFC7CED1D2D2CFCB51
:10167000C4B7AA997D5D48392D231E1C1C1E232B3F
:101680003744566D89A6BDCFDCE7EEF0F1EFE9E215
:10169000D4C2AF9268422C1A0C0301010409122033
:1016A0002F425A789AB8CDDEE9F3F6F6F5EFE8DD89
:1016B000CBB9A27F573C2A1C120D0C0D1117212FFC
:1016C0003E526A87A5BCCDDAE4EBEBEBE8E2DBCD7A
:1016D000BDAB926E4D3A2C21191717191D242F3CC2
:1016E0004C5F7794ACBECCD6DEE2E1E0DCD6CDBF79
:1016F000B09E8260493B2F262121212429313C497B
:10170000586C849DB0BFCAD2D8D9D8D6D1CBC1B37A
:10171000A5917458473C322C29292B2E343D47542F
:1017200064778EA3B2BEC6CDD0D0CFCCC7C0B5A88B
:101730009A846854483E3632313234383E47525EDD
:101740006E8296A7B3BCC3C8C9C8C7C3BEB6AB9F99
:101750008F78605248403B39393A3D4148515B6887
:10176000778A9CA8B2B9BFC2C1C1BEBBB5ACA296B4
:10177000856E5D534A4440404042454A515963702A
:1017800080919FA9B1B6BABBBBBAB7B3ADA49A8ECC
:101790007B675B534C48464646494C5259616B78CF
:1017A0008796A0A8AEB3B6B6B5B3B0ACA59C9385EA
:1017B00073645B544F4C4B4C4D5053596068727F6F
:1017C0008D98A0A7ABAFB0B0AFADAAA59D968C7D0C
:1017D0006D635C575351515153565A60666E78850C
:1017E000919AA0A5A9ABACABAAA7A49E9790857629
:1017F0006A635D5956555556585B60656C747E8AB0
:10180000939AA0A3A6A7A7A7A5A29E98928B7F7143
:1018100069635E5B59595A5B5D61656A7179838D55
:10182000949A9EA1A3A3A3A2A09D99938D85796F5D
:101830006964615E5E5E5F6063666A6F767E878FF5
:1018400094989C9E9F9F9F9D9B98948F8980756E76
:101850006966636161626264676A6E737A828A90A4
:1018600094989A9C9C9C9B9A9894908B857B736D82
:101870006A676564646566686B6E72777E858B9057
:10188000949698999999989694908C888078726E8D
:101890006B6867676768696B6E71757B81878C9011
:1018A0009395969796969593908D89847D76726E92
:1018B0006C6A6A6A6A6B6D6F7275797E83898C8FC8
:1018C00091939494939391908D8A86817A75727096
:1018D0006E6D6D6D6E6F717375787C8084888A8C87
:1018E0008D8D8D8C8C8B8A888684827F7C7A7979A9
:1018F0007979797A7A7B7C7C7D7E7F808181818118
:1019000081818181808080808080807F7F7F734A19
:101910003936415881AFC4CBC3B285503832384CC8
:1019200074A7C4D0CCBB9558352C324770A8C9D504
:10193000CFBB8D4D2F28314878B2CFD9D2BB83434E
:1019400029222E4B81BBD7DFD3B77838221E2E4FEA
:101950008CC5DDE3D4B36B2F1C1B2D5497CDE4E76E
:10196000D5AC5E2715172F5BA3D7EBE9D4A4501E87
:1019700010153063B0DFF1EAD08E37130B1A408AAE
:10198000D1EFF6E2B45819060B2A64B9EAFBF1D19B
:1019900083290701164396DEFAFCE5AE4B100109D8
:1019A0002B6DC3EFFDEFCB782307041C4B9FDFF7B4
:1019B000F6DDA2431105113478C7EDF8E8C26C21B9
:1019C0000A0A2355A7DFF4F0D6973D1309183C8285
:1019D000CBECF3E1B962210E102B5FAEDFF0E9CE64
:1019E0008C38150E1F448BCEEAEEDBAF5A20111651
:1019F0003268B4DFEEE3C781341712254C94D0E887
:101A0000E9D5A65220141B3973BCE0EADDBB6F2C6C
:101A10001818305EA8D7E8E1C8893B1D17284D92F9
:101A2000CCE4E4D0A14F231822407BBEDDE5D6B341
:101A3000672D1C1E3766ACD5E4DBC08139201C2F16
:101A40005598CCDFDEC9984B261D294782C0DAE0C5
:101A5000D0AB612E20243D6EB1D4DFD3B6723523D6
:101A6000233965A8D0DED5BC7E3C2623365C9ECBD0
:101A7000DBD6C08A442824335593C5D9D7C4954DA5
:101A80002C25314F89BFD5D8C69E5730262F4A7E88
:101A9000B8D2D7C9A76234282E4779B4D0D6C8A700
:101AA0006335292F4878B3CED5C7A764372B314883
:101AB00078B1CDD4C6A766382D324977B0CBD2C61F
:101AC000A7673A2E334977AFCAD1C4A7683B2F34F2
:101AD0004A76AEC8D0C4A7693C30354A76ADC7CE89
:101AE000C3A76A3E32364B77ADC7CDC1A3653D3241
:101AF00039507EB1C7CBBE9C5E3B333C5485B4C8E5
:101B0000C9BA95583B343F598BB7C8C7B78E533BBA
:101B100036425E92B9C8C5B3874F3A37466498BB20
:101B2000C7C2AF7F4C3A3A4A6CA0BDC7BEA670454B
:101B30003A3D5179AAC0C5B99B62413A435A87B22E
:101B4000C2C2B38D56403B486495B7C3BEAB7D4D12
:101B50003E3F4F70A0BAC2B9A26E483E43567CA920
:101B6000BDC0B49761453F475E8AB0BEBDAF8957DF
:101B700043404D6796B4BFB9A6784E42445578A409
:101B8000B9BEB3976447424A608BAFBCBAAB8455C9
:101B90004544526F9CB5BCB59F6F4C44495B81A8CE
:101BA000B9BAAE8E5D48444F6792B0BAB5A47A52C6
:101BB00046485777A1B5B9AF94654B464F658EAE91
:101BC000B8B4A47B53484A597AA1B4B7AD91634CD9
:101BD00048516890ADB6B2A17853494C5B7CA2B332
:101BE000B5AB8E624D4A536B92ADB5B09E76544BF9
:101BF0004E5E7FA3B2B3A88B614E4C566E94ACB3CD
:101C0000AE9C74544D516181A3B1B1A688604F4F11
:101C1000597397ADB1AB946C524F55688BA7B0AD6B
:101C20009E7A595052607FA0AEAEA5886251515A3B
:101C30007396ABAFA9946D555156698AA6AEAB9D0C
:101C40007B5A5154617E9EACADA3886353535C7341
:101C500094A9ADA7936E5653586C8CA5ACA99976F0
:101C60005A53576685A1ABA99E7F5E5456627D9CF0
:101C7000AAAAA2866455565F7796A8AAA48E6B5727
:101C8000565C718FA5AAA594725A565B6B89A2A95E
:101C9000A6997A5E575967839EA8A69B7E60575A7D
:101CA00066809CA7A69D8162585A657E9AA6A69DCD
:101CB0008364595A647C98A6A69E86665A5A637AAB
:101CC00096A4A59F88695B5B627894A3A59F8A6BA5
:101CD0005C5B627691A2A49F8C6D5D5C62748FA147
:101CE000A49F8E705E5C62738EA0A39F8D6F5E5DFD
:101CF00063758FA0A29E8B6E5E5E647690A0A29D9F
:101D00008A6D5F5E657891A0A19C886C5F5F667943
:101D100092A0A09B876B5F60677B939FA099856B68
:101D20006061687C939F9F98826960626B80969FD8
:101D30009E957D6660636E85999F9D9178646164D0
:101D400072899B9E9B8E74636266768D9C9E9A8937
:101D50006F6362687A909C9D98856C62636B7E93DA
:101D60009D9C95806963646E82969D9B927B676360
:101D7000667186989C9A8E76666468768C9A9C9832
:101D8000886F64656B7C919B9B94806A64666F83AB
:101D9000959B998F796765687589989B9789726615
:101DA000666B7B8F9A9A95826D65676F81939A991E
:101DB000907B6966697387969A978A7367676C7B6D
:101DC0008F999893806C676871849499978C7769E0
:101DD000676B788C979894846F68697081929897F4
:101DE0008F7B6B686B7689959794877269696F7E34
:101DF0008F9796907E6D696B74859397948A766AB7
:101E0000696E7B8C969691816F696B7384929694C0
:101E100089766B6A6F7C8D95958F7F6E6A6C758500
:101E200092959388756B6B707E8E95948E7D6E6B9C
:101E30006D778792949286746C6C717F8E94938D7B
:101E40007C6E6C6E788892939084736C6D73808EC8
:101E500093928B7B6E6D707A8992938E81716D6F88
:101E6000768490939086766E6E737F8D92918B7B45
:101E7000706E717B8991918E81726E7077848F9173
:101E80008F86766F6F747F8C91908A7C716F727B76
:101E90008890908D81736F7178858E908E84767026
:101EA0007176828D908E87787170747F8B908F8918
:101EB0007C7270737C898F8F8B7F7370727A868E41
:101EC0008F8C8275717277838D8F8D857771717626
:101ED000808B8F8E887A7271747E898F8E8A7D73E3
:101EE00071737B878E8E8B807471737A868D8E8BE7
:101EF000807572737A858D8E8B8175727379848DFE
:101F00008E8C8276727378838C8E8C8377727378E2
:101F1000838C8E8C8478727377828B8D8C857973A9
:101F20007377818A8C8B857A74757880888A8985A5
:101F30007C7777797F868787847D7A7A7B7F8384B5
:101F400084827E7C7C7D7F818282817F7E7E7F7F9A
:101F5000808080807F7F7F7F7F8070727C7C7C7FB1
:101F60007D7D8383858580858C8A8B867F817F8537
:101F70008882837265675A5853414E626B87938E8D
:101F8000A2A9B1D2C4BBC6A9A8B398998B55514494
:101F90002E4B4132473F517B7B89A4A2C2E3D4D868
:101FA000D4C2CAB7A3A1846C5631221F1F241E229B
:101FB0003D5B7D96A1B9CCD8F3F1E7E8C6BCBD96F0
:101FC0009177403B1A011F1006221F3B6E7A9EC379
:101FD000B7D8F2DEF9F7D2D6B6979C745C501E16CD
:101FE0001A0F242E28445D6A92A8B0C9CDD4DFD040
:101FF000CCC2AAA193897E5E47392C31373A444935
:10200000536D8299ACAEB6BABCCAC6B6AE988B89CF
:10201000756A614D49433D4B4F4F60677387909C94
:10202000A8A6AAAEABACA396958C8179685F5D55E6
:10203000535758606668747C848F93979D9E9E9DCD
:1020400098958F88837C76726B676563676B6D721A
:10205000757A80858A8E8F90918F8F8E8A88848002
:102060007E7B78767474757577797A7C7E808283CE
:102070008484848383828281808080808080808049
:102080008080808080808080808080808080808050
:102090008080808080808080808080808080808040
:1020A0008080808080808080808080808080808030
:1020B0008080808080808080808080808080808020
:1020C0008080808080808080808080808080808010
:1020D0008080808080808080808080808080808000
:1020E00080808080808080808080808080808080F0
:1020F00080808080808080808080808080808080E0
:1021000080808080808080807F807F807F807D73E2
:10211000797D7D7F7D8183858183898986817F82A9
:1021200085847F706B6361535565768C8C9BA0B8FA
:10213000B9B2AF9FA695936D594B48534550507215
:102140007E8D9CADCCC5C5B9B7A79A896E5438327F
:1021500034343347688798ACBCD2DAD6C9B4AF966A
:102160008960482C222C1E2E34617BA3B6C5E3DE89
:10217000F3DBCDAD99815D3E1011091F1F345877F7
:10218000A7BAD5E1EDE6DAC6AA998A6B4024171EF4
:1021900025313B567EA5BCC6CDD8E7D6C19F907CE5
:1021A000624B31261D3034465A7494AAC0C2CBCB40
:1021B000CAB5A6998167473D2E2C32404C5B748A84
:1021C000A3AEBDC5C4BFB4A3907D6A5A443A343CA3
:1021D00047536072889BAEB3B8B8B8B1A493827508
:1021E00063564845484E5763727F93A0A8ABADAD88
:1021F000A69C8E83766E625856575B616973808B9E
:10220000959B9EA1A09C958D847B736B6662636594
:10221000696F767E868D91949595938F8A837D786C
:1022200073706D6D6F7175797E82878A8C8D8C8BE2
:102230008985827F7C7977767677787A7C7F8183CF
:1022400084858585848382817F7F7E7E7E7E7E7F7E
:102250007F7F808080808080808080808080808080
:10226000808080808080808080808080808080806E
:10227000808080808080808080808080808080805E
:10228000808080808080808080808080808080804E
:10229000808080808080808080808080808080803E
:1022A000808080808080808080808080808080802E
:1022B000808080808080808080808080808080801E
:1022C000808080808080808080808080808080800E
:1022D00080808080808080808080808080808080FE
:1022E00080808080808080808080808080808080EE
:1022F00080808080808080808080808080808080DE
:1023000080797B7F7E7F8282818586818083837ACC
:10231000706C636375868D97A6A69D979384685AA3
:102320005D5A5C6F838EA3B4AEA99F907E614B4AC9
:102330004A51708B9BAFBEBCAC9E8E7352424040E4
:102340004B6C8FA6BAC8CBB89F886B442D323B4BE1
:102350006E95B2C6D0CBB69C8B693B2A303A497297
:10236000A3BCC5D8D9B6967C59372025344B719D6E
:10237000BFCCD5D2B69F7D4A2D1D22384E739CB856
:10238000CDD3CAB393735334232C4056769EBCC727
:10239000CAC8B49476583B2D334159769AB6C0C515
:1023A000C0AB8E745D44393F4B5F7B99ADB8BDB710
:1023B000A48E755E4C434751647C94A7B1B4AFA022
:1023C0008B7561534C4F59697D92A2ABACA699872E
:1023D00075655A5558616F808F9CA3A39E93847630
:1023E0006A605D606975828E999E9D988E81766C1B
:1023F0006664666E78838D949797928980776F6B09
:102400006A6D747C848B9092908B857E77737172E9
:1024100074797F838789898885817E7B7A797A7BC5
:102420007E80818283838281807F7E7E7E7E7F7FAD
:1024300080808080808080807F7F7F7F7D827C84A1
:10244000779CFDF6F5F3EFEFEAEBE5E7E0E3DBDFA2
:10245000D6DDC862575E595F5A605C625D635F6437
:1024600061656367CAE6D8DED5D9D2D5CFD1CCCDE8
:10247000CAC9C8C3CA6E3E4F464E4A4F4D5150520C
:10248000535356525B4D9BDECBD3CBCEC9C9C7C588
:10249000C5C1C3BDC2B7C68B36443F444445474758
:1024A0004B484E49514A554870CFCBCACAC5C7C2DE
:1024B000C5BFC2BCC0B9BDB6BCA9423A3E3D414150
:1024C000434445474749494C4A54BBCDC3C8C1C59D
:1024D000BEC2BBC0B9BDB6BAB04B35413A433E45AA
:1024E0004147434A464B4950B5CDC1C8BFC4BDC1A1
:1024F000BBBEB8BBB6B8B24D334039423D4440468E
:102500004348464A494DB1CEC0C7BEC4BCC0BABD9F
:10251000B8BAB6B7B451324039413C43404543475D
:1025200046494A4AADCEBFC7BEC3BCC0BABDB8BAA1
:10253000B6B6B655304137423B443F45434746481F
:102540004B47AACDC2C2C772394D424D474D4A4F83
:102550004D50505252535555575658585A5A5C5B25
:102560005D5D5F5E60606161626363646565666650
:102570006767686969696A6A6B6B6B6C6C6D6D6EB5
:102580006E6E6F6F6F707070717171727272737343
:1025900073737474747475757575757676767676EE
:1025A00077777777777878787878787879797979AC
:1025B0007979797A7A7A7A7A7A7A7A7A7B7B7B7B7A
:1025C0007B7B7B7B7B7B7B7C7C7C7C7C7C7C7C7C52
:1025D0007C7C7C7C7D7D7D7D7D7D7D7D7D7D7D7D2F
:1025E0007D7D7D7D7D7D7D7D7D7E7E7E7E7E7E7E14
:1025F0007E7E7E7E7E7E7E7E7E7E7E7E7E7E7E7EFB
:102600007E7E7E7E7E7E7E7E7E7E7E7E7E7E7F7FE8
:102610007F7F7F7F7F7F7F7F7F7F7F7F7F7F7F7FCA
:102620007F7F7F7F7F7F7F7F7F7F7F7F7F7F7F7FBA
:102630007F7F7F7F7F7F7F7F7F7F7F7F7F7F7F7FAA
:102640007F7F7F7F7F7F7F7F7F7F7F7F7F7F7F7F9A
:1028C0007F7F7F7F7F7F7F7F7F7F7F7F7F807F8016
:1028D0007F807F807F807F807F807F807F7F7F7F02
:1028E000807F807E817D827C847895F6FBF2F7EB99
:1028F000F4E3F6B8656C6B6B6D6B6E6C6E6E6DD0E1
:10290000EFE2E6E1DFDFD9DDD2E0AB515B585A5BA5
:102910005B5D5D5D605DBFE1D4D8D3D3D1CDD0C761
:10292000D3A446504D5050515253535752B3D9CB64
:10293000D0CBCBC9C6C8C0CBA0414847494A4B4CB5
:102940004E4D524BAAD5C6CBC6C6C4C1C4BBC69F4A
:102950003E4443454647484A494F47A3D2C2C8C3AD
:10296000C3C2BEC1B9C3A03D4141424445464847E8
:102970004D449ED0C0C7C1C1C0BDBFB8C1A13D3E7E
:10298000404043434547454C4299D0BFC6C0C0BFB5
:10299000BCBEB7BFA33D3D3F3F42424446444C40CE
:1029A00094CFBEC5BFC0BEBBBDB7BEA53F3C3F3F79
:1029B00041424346444C3F90CFBEC5BFBFBEBBBDA6
:1029C000B7BDA8413A3F3E41414345434B3E8CCFC2
:1029D000BDC4BEBFBDBBBCB7BCAA43393F3D41412E
:1029E0004345434B3E88CFBDC5BEC0BDBCBBB8BB95
:1029F000AD4538403C423F454247444A474C4A4E29
:102A00004C4F4F51515353545556575859595B5B7E
:102A10005C5C5E5E5F5F61616262636364656566A4
:102A2000666767686869696A6B6B6C6C6D6E6E6F00
:102A30006F7071717272737474757576767777785A
:102A40007879797A7A7A7B7B7B7C7C7C7D7D7D7DD5
:102A50007E7E7E7E7E7F7F7F7F7F7F7F7F7F7F7F8B
:102A60007F7F7F7E807D807C817A91FCF6F4E370AD
:102A70006B6B72DEECE0E07057635BC3E5D2DD7731
:102A8000495D4CA9E1C9DA833E5941A0FEDEF59FBC
:102A9000334F387FF4D9EBAF31453663E7D9E0BF28
:102AA000363A374CD6DBD7CD412F3A39C2E0CFD7B3
:102AB00052263D2DABE4C9DD66203E2692E6C6DFF8
:102AC0007D1D3D2479E4C7DD951F392661DFCAD815
:102AD000AA26332B4BD4D0D2BD322C303AC5D6CB1C
:102AE000CC4325362DB2DDC6D6581F39259BE1C40F
:102AF000DB6F1B3B2283E3C4DC871B39236BE0C6FF
:102B0000D99E20352754D9CBD4B32A2F2D41CCD2EE
:102B1000CEC439283332BBD9C8D14C213728A6DFDF
:102B2000C4D9631C3A238FE2C3DB7B1A3A2276E2D4
:102B3000C4DA931D37245FDDC8D6A925322A4AD3CB
:102B4000CFD1BC312B3039C4D6CBCB4224352CB1BC
:102B5000DCC6D5571E39259AE1C3DB6F1B3A2282AA
:102B6000E3C3DB871B39236AE0C6D99E203527548F
:102B7000D9CBD3B32A2E2D41CCD2CDC43927323272
:102B8000BBD9C8D14C213728A6DFC4D9631C3A234E
:102B90008EE2C3DB7B1A3A2276E2C4DA931D372534
:102BA0005FDDC9D6A925322A4AD3CFD0BC312B301C
:102BB00039C4D6CBCB4324352CB0DCC6D5571E390F
:102BC000249AE1C3DB6F1B3A2282E3C3DB871B3904
:102BD000236AE0C6D99E20352754D8CBD3B32A2EFA
:102BE0002D41CCD2CDC539273232BBD9C8D14D21E8
:102BF0003728A5DFC4D9631C3A228EE2C3DB7B1AD7
:102C00003A2276E2C4DA931D37255EDDC9D6A925BE
:102C1000322A4AD3CFD0BD312B3038C3D6CBCC43A8
:102C200024352CB0DCC6D6581E39249AE1C3DB6F9C
:102C30001B3A2282E3C3DB871B39236AE0C6D89F95
:102C400020342754D8CBD3B32A2E2D40CCD2CDC597
:102C500039273232BAD9C8D14D213728A2D4BBCEB8
:102C6000611E3A2589D8BBD2781E3B2573D9BDD2C7
:102C700090223A295FD5C2CFA529352E4CCCC8CA9F
:102C8000B8362F343CBECFC5C646293931ACD6C084
:102C9000CF5A243D2A97DABED470213E2781DCBE6C
:102CA000D587223D296BD9C1D29D26392D56D2C652
:102CB000CEB030333244C6CDC8C03E2D3836B6D340
:102CC000C3CC50273C2DA2D9BFD365233E298DDC30
:102CD000BED57C213E2876DBC0D492233C2A61D627
:102CE000C4CFA82A372F4DCCCACBB93730363CC019
:102CF000CFC7C54A273D2EB0D3C4CD5D2240299809
:102D0000DBBDD96A2D2986D0CF7C292B79D1D087FC
:102D10002C2971CDD48E32256AC7D895392264C04A
:102D2000DC9C3F1F5DBADEA3461E56B3DEAA4C1ED6
:102D30004FADDEB1531F48A6DEB85A20429FDCBE1D
:102D400061213C98DBC469233690D8C9712632884A
:102D5000D5CE79292D81D2D2812D2979CED589322E
:102D60002671C9D890372369C4DB983C2161BEDD48
:102D7000A042205AB8DEA7491F53B1DEAE4F1F4C08
:102D8000AADEB4561F45A3DDBB5D203F9CDCC165B8
:102D9000223994DAC66D25348CD7CB74283084D48C
:102DA000D07C2B2B7DD0D4842F2875CBD78C342589
:102DB0006DC7DA94392265C1DC9C3F205EBBDDA380
:102DC000451F57B5DEAA4C1F50AEDEB1521F49A7B2
:102DD000DEB7592042A0DDBE61213D98DBC36823E8
:102DE0003791D9C970263289D6CD78292E81D2D291
:102DF000802D2A79CED588312671C9D89036246A9B
:102E0000C4DB973C2162BEDD9F42205BB8DEA64852
:102E10001F53B2DEAD4F1F4CABDEB4551F46A4DDD1
:102E2000BA5C213F9DDCC164223A95DAC66C243637
:102E300086CDC070293281CAC6782E2E7BC7CB8042
:102E4000322C74C4CE8837296DC0D1903C2866BC22
:102E5000D498422660B6D59F482559B1D6A64E25AE
:102E600053ABD7AC54254DA4D7B25B26479ED6B8FA
:102E700062274197D4BE69293C90D2C3702C38890F
:102E8000D0C7782F3481CCCB7F32307AC9CF863609
:102E90002D73C4D28E3B2A6CC0D495402865BAD617
:102EA0009C45275EB5D7A34B2657AFD7A9522651CD
:102EB000A8D7AF58264AA2D7B55E27459BD6BB6593
:102EC000283F94D4C06D2B3A8DD1C5742D3685CE54
:102ED000C97B30327ECBCD83342F77C7D08A392C53
:102EE00070C2D3913D2969BDD598422762B8D69F5B
:102EF00048265BB2D7A64E2654ACD7AC54264EA576
:102F0000D7B25B26489FD6B862284298D5BD6929BA
:102F10003D91D3C2702C3889D0C7772F3482CDCB66
:102F20007F32307BC9CE86362D74C5D18D3B2A6D5C
:102F3000C0D494402865BBD69B45275EB5D7A24B2D
:102F40002658AFD7A9512651A9D7AF57264BA2D79C
:102F5000B55E27459CD6BB65284095D4C06C2A3BFE
:102F60008DD2C5732D3686CFC97A30327FCBCD82D4
:102F7000342F77C7D089382C70C3D3903D2969BED0
:102F8000D598422862B8D69F48265BB3D7A54E266F
:102F900055ADD7AC54264EA6D7B25A26489FD6B7C1
:102FA00061274398D5BD68293E91D3C26F2B398ADA
:102FB000D0C7762E3483CDCB7E32317CC9CE8536D8
:102FC0002D74C5D18C3A2B6DC1D3943F2A66BAD3E8
:102FD0009A462B60B3D2A04E2C5BACD0A5552E5692
:102FE000A5CEA95B30529ECBAD62344E98C8B06876
:102FF000374B91C4B36F3B498BC0B5753F4884BD17
:10300000B27745477CAFB07D4A4778ACB1834F4833
:1030100074A8B188544971A4B18C594B6D9FB0907C
:103020005E4C6A9BAE93634E6897AD95685166920D
:10303000AA976C53648EA8997056638AA59A74599E
:103040006287A29B785C62839F9B7B5F62809C9B74
:103050007E62637E999A8166637B969983696579BE
:103060009398856C66789096866F68778D94877252
:103070006A768A9287756D76878E87787177848A6B
:10308000867B75798287847D787B8184837E7B7C57
:103090008082817F7D7E7F81807F7F7F7F80807F38
:1030A0007F7F7F80807F7F7F7F7F008000002C80FC
:1030B00000005980000085800000B2800000DF80A1
:1030C00000000B81000038810000658100009281C2
:1030D0000000BF810000EC810000198200004682E0
:1030E000000073820000A0820000CE820000FB82FC
:1030F0000000288300005683000083830000B18312
:103100000000DF8300000C8400003A840000688423
:10311000000096840000C4840000F2840000208532
:1031200000004E8500007C850000AB850000D9853D
:103130000000088600003686000065860000938641
:103140000000C2860000F18600001F8700004E8745
:1031500000007D870000AC870000DB8700000A8844
:1031600000003A8800006988000098880000C7883D
:103170000000F78800002689000056890000868933
:103180000000B5890000E5890000158A0000458A25
:103190000000758A0000A58A0000D58A0000058B12
:1031A0000000358B0000658B0000968B0000C68BFD
:1031B0000000F78B0000278C0000588C0000888CE2
:1031C0000000B98C0000EA8C00001B8D00004C8DC3
:1031D00000007D8D0000AE8D0000DF8D0000108EA0
:1031E0000000418E0000738E0000A48E0000D68E79
:1031F0000000078F0000398F00006B8F00009C8F4C
:103200000000CE8F0000009000003290000064901B
:10321000000096900000C8900000FA9000002D91E8
:1032200000005F91000091910000C4910000F691B0
:103230000000299200005C9200008E920000C19272
:103240000000F4920000279300005A9300008D9331
:103250000000C0930000F4930000279400005A94EB
:1032600000008E940000C1940000F59400002995A0
:1032700000005C95000090950000C4950000F89552
:1032800000002C9600006096000094960000C896FE
:103290000000FD96000031970000659700009A97A6
:1032A0000000CF97000003980000389800006D9848
:1032B0000000A2980000D79800000C9900004199E6
:1032C000000076990000AB990000E0990000169A82
:1032D00000004B9A0000819A0000B69A0000EC9A18
:1032E0000000229B0000579B00008D9B0000C39BA9
:1032F0000000F99B00002F9C0000659C00009C9C36
:103300000000D29C0000089D00003F9D0000759DBC
:103310000000AC9D0000E39D0000199E0000509E3F
:103320000000879E0000BE9E0000F59E00002C9FBE
:103330000000649F00009B9F0000D29F00000AA035
:10334000000041A0000079A00000B0A00000E8A0AB
:10335000000020A1000058A1000090A10000C8A119
:10336000000000A2000038A2000070A20000A9A284
:103370000000E1A2000019A3000052A300008BA3EB
:103380000000C3A30000FCA3000035A400006EA44D
:103390000000A7A40000E0A4000019A5000053A5A8
:1033A00000008CA50000C5A50000FFA5000038A600
:1033B000000072A60000ACA60000E6A600001FA751
:1033C000000059A7000093A70000CEA7000008A89E
:1033D000000042A800007CA80000B7A80000F1A8E7
:1033E00000002CA9000067A90000A1A90000DCA929
:1033F000000017AA000052AA00008DAA0000C8AA67
:10340000000004AB00003FAB00007AAB0000B6AB9D
:103410000000F1AB00002DAC000069AC0000A4ACD2
:103420000000E0AC00001CAD000058AD000094AD01
:103430000000D1AD00000DAE000049AE000086AE28
:103440000000C2AE0000FFAE00003BAF000078AF4E
:103450000000B5AF0000F2AF00002FB000006CB06C
:103460000000A9B00000E7B0000024B1000061B185
:1034700000009FB10000DDB100001AB2000058B298
:10348000000096B20000D4B2000012B3000050B3A6
:1034900000008EB30000CCB300000BB4000049B4B0
:1034A000000088B40000C6B4000005B5000044B5B3
:1034B000000083B50000C2B5000001B6000040B6B0
:1034C00000007FB60000BEB60000FEB600003DB7AB
:1034D00000007DB70000BCB70000FCB700003CB89E
:1034E00000007CB80000BCB80000FCB800003CB98B
:1034F00000007CB90000BCB90000FDB900003DBA75
:1035000000007EBA0000BFBA0000FFBA000040BB56
:10351000000081BB0000C2BB000003BC000044BC33
:10352000000086BC0000C7BC000009BD00004ABD09
:1035300000008CBD0000CEBD00000FBE000051BEDB
:10354000000093BE0000D5BE000018BF00005ABFA7
:1035500000009CBF0000DFBF000021C0000064C06D
:103560000000A7C00000E9C000002CC100006FC12E
:103570000000B2C10000F6C1000039C200007CC2E8
:103580000000C0C2000003C3000047C300008BC39B
:103590000000CEC3000012C4000056C400009AC44C
:1035A0000000DFC4000023C5000067C50000ACC5F3
:1035B0000000F0C5000035C600007AC60000BEC697
:1035C000000003C7000048C700008DC70000D3C734
:1035D000000018C800005DC80000A3C80000E8C8CB
:1035E00000002EC9000074C90000BAC9000000CA5A
:1035F000000046CA00008CCA0000D2CA000018CBE6
:1036000000005FCB0000A5CB0000ECCB000033CC6A
:1036100000007ACC0000C1CC000008CD00004FCDE6
:10362000000096CD0000DDCD000025CE00006CCE60
:103630000000B4CE0000FBCE000043CF00008BCFD3
:103640000000D3CF00001BD0000063D00000ABD03F
:103650000000F4D000003CD1000085D10000CED1A4
:10366000000016D200005FD20000A8D20000F1D204
:1036700000003AD3000084D30000CDD3000016D45C
:10368000000060D40000AAD40000F3D400003DD5AF
:10369000000087D50000D1D500001BD6000066D6FB
:1036A0000000B0D60000FAD6000045D7000090D741
:1036B0000000DAD7000025D8000070D80000BBD881
:1036C000000006D9000052D900009DD90000E9D9B8
:1036D000000034DA000080DA0000CCDA000017DBEA
:1036E000000063DB0000B0DB0000FCDB000048DC16
:1036F000000094DC0000E1DC00002EDD00007ADD3B
:103700000000C7DD000014DE000061DE0000AEDE58
:103710000000FBDE000049DF000096DF0000E4DF70
:10372000000031E000007FE00000CDE000001BE180
:10373000000069E10000B7E1000005E2000054E28A
:103740000000A2E20000F1E2000040E300008EE38E
:103750000000DDE300002CE400007BE40000CBE48B
:1037600000001AE5000069E50000B9E5000009E67F
:10377000000058E60000A8E60000F8E6000048E770
:10378000000099E70000E9E7000039E800008AE856
:103790000000DBE800002BE900007CE90000CDE937
:1037A00000001EEA00006FEA0000C1EA000012EB10
:1037B000000064EB0000B5EB000007EC000059ECE2
:1037C0000000ABEC0000FDEC00004FED0000A1EDAF
:1037D0000000F4ED000046EE000099EE0000ECEE73
:1037E00000003FEF000092EF0000E5EF000038F02E
:1037F00000008BF00000DFF0000032F1000086F1E5
:103800000000DAF100002DF2000081F20000D6F293
:1038100000002AF300007EF30000D3F3000027F439
:1038200000007CF40000D1F4000025F500007BF5D9
:103830000000D0F5000025F600007AF60000D0F672
:10384000000025F700007BF70000D1F7000027F803
:1038500000007DF80000D3F8000029F9000080F98D
:103860000000D6F900002DFA000084FA0000DBFA0F
:10387000000032FB000089FB0000E0FB000037FC89
:1038800000008FFC0000E6FC00003EFD000096FDFD
:103890000000EEFD000046FE00009EFE0000F6FE69
:1038A00000004FFF0000A7FF0000000001005900CA
:1038B0000100B20001000B01010064010100BD0123
:1038C00001001702010070020100CA020100230377
:1038D00001007D030100D7030100310401008C04C5
:1038E0000100E6040100400501009B050100F6050A
:1038F000010051060100AC06010007070100620744
:103900000100BD0701001908010074080100D0087A
:1039100001002C09010088090100E4090100400AA6
:1039200001009C0A0100F90A0100560B0100B20BCC
:1039300001000F0C01006C0C0100C90C0100260DE8
:103940000100840D0100E10D01003F0E01009C0EFD
:103950000100FA0E0100580F0100B60F010015100A
:10396000010073100100D1100100301101008F110E
:103970000100EE1101004D120100AC1201000B1309
:1039800001006B130100CA1301002A1401008914FD
:103990000100E914010049150100AA1501000A16E9
:1039A00001006A160100CB1601002C1701008C17CC
:1039B0000100ED1701004E180100B01801001119A7
:1039C000010072190100D4190100361A0100981A79
:1039D0000100FA1A01005C1B0100BE1B0100201C43
:1039E0000100831C0100E61C0100481D0100AB1D05
:1039F00001000E1E0100721E0100D51E0100381FBD
:103A000001009C1F01000020010064200100C8206B
:103A100001002C21010090210100F5210100592213
:103A20000100BE2201002323010088230100ED23B1
:103A3000010052240100B72401001D250100832547
:103A40000100E82501004E260100B42601001B27D5
:103A5000010081270100E72701004E280100B52859
:103A600001001C29010083290100EA290100512AD3
:103A70000100B92A0100202B0100882B0100F02B46
:103A80000100582C0100C02C0100282D0100912DAF
:103A90000100F92D0100622E0100CB2E0100342F10
:103AA00001009D2F01000630010070300100D93067
:103AB000010043310100AD310100173201008132B4
:103AC0000100EC32010056330100C13301002B34F8
:103AD000010096340100013501006C350100D83534
:103AE000010043360100AF3601001A370100863766
:103AF0000100F23701005F380100CB38010037398F
:103B00000100A4390100113A01007E3A0100EB3AAC
:103B10000100583B0100C53B0100333C0100A13CC2
:103B200001000E3D01007C3D0100EA3D0100593ECF
:103B30000100C73E0100363F0100A43F01001340D1
:103B4000010082400100F140010061410100D041CB
:103B5000010040420100AF4201001F4301008F43BA
:103B600001000044010070440100E144010051459E
:103B70000100C245010033460100A446010015477B
:103B8000010087470100F84701006A480100DC484E
:103B900001004E490100C0490100334A0100A54A15
:103BA0000100184B01008B4B0100FE4B0100714CD2
:103BB0000100E44C0100584D0100CB4D01003F4E87
:103BC0000100B34E0100274F01009B4F0100105030
:103BD000010084500100F95001006E510100E351D1
:103BE000010058520100CD52010043530100B85367
:103BF00001002E540100A45401001A5501009155F2
:103C00000100075601007E560100F45601006B5773
:103C10000100E25701005A580100D15801004959EA
:103C20000100C1590100385A0100B05A0100295B56
:103C30000100A15B01001A5C0100925C01000B5DB8
:103C40000100845D0100FE5D0100775E0100F05E11
:103C500001006A5F0100E45F01005E600100D8605E
:103C6000010053610100CD61010048620100C3629F
:103C700001003E630100B963010034640100B064D7
:103C800001002C650100A765010024660100A06603
:103C900001001C6701009967010015680100926826
:103CA00001000F6901008D6901000A6A0100876A3D
:103CB0000100056B0100836B0100016C01007F6C4A
:103CC0000100FE6C01007C6D0100FB6D01007A6E4D
:103CD0000100F96E0100786F0100F86F0100777044
:103CE0000100F770010077710100F771010078722F
:103CF0000100F872010079730100FA7301007B740E
:103D00000100FC7401007D750100FF7501008076E3
:103D100001000277010084770100077801008978AB
:103D200001000C7901008E790100117A0100947A6A
:103D30000100187B01009B7B01001F7C0100A37C1C
:103D40000100277D0100AB7D01002F7E0100B47EC4
:103D50000100387F0100BD7F010042800100C88062
:103D600001004D810100D381010059820100DF82F1
:103D7000010065830100EB83010072840100F88477
:103D800001007F850100068601008E8601001587EF
:103D900001009D87010024880100AC88010035895D
:103DA0000100BD890100468A0100CE8A0100578BBF
:103DB0000100E08B01006A8C0100F38C01007D8D15
:103DC0000100078E0100918E01001B8F0100A58F5D
:103DD000010030900100BB90010046910100D1919B
:103DE00001005C920100E892010073930100FF93CF
:103DF00001008C94010018950100A49501003196F2
:103E00000100BE9601004B970100D897010066980B
:103E10000100F3980100819901000F9A01009D9A19
:103E200001002C9B0100BA9B0100499C0100D89C19
:103E30000100679D0100F79D0100869E0100169F0D
:103E40000100A69F010036A00100C6A0010057A1F5
:103E50000100E8A1010079A201000AA301009BA3CF
:103E600001002DA40100BEA4010050A50100E2A59F
:103E7000010075A6010007A701009AA701002DA85F
:103E80000100C0A8010053A90100E7A901007AAA16
:103E900001000EAB0100A2AB010037AC0100CBACBE
:103EA000010060AD0100F5AD01008AAE01001FAF59
:103EB0000100B5AF01004BB00100E0B0010077B1E7
:103EC00001000DB20100A3B201003AB30100D1B369
:103ED000010068B4010000B5010097B501002FB6DC
:103EE0000100C7B601005FB70100F7B7010090B845
:103EF000010029B90100C2B901005BBA0100F4BA9E
:103F000001008EBB010028BC0100C2BC01005CBDE9
:103F10000100F7BD010091BE01002CBF0100C7BF29
:103F2000010063C00100FEC001009AC1010036C259
:103F30000100D2C201006EC301000BC40100A7C47E
:103F4000010044C50100E2C501007FC601001DC794
:103F50000100BBC7010059C80100F7C8010095C99D
:103F6000010034CA0100D3CA010072CB010011CC98
:103F70000100B1CC010051CD0100F1CD010091CE85
:103F8000010031CF0100D2CF010073D0010014D164
:103F90000100B5D1010057D20100F8D201009AD337
:103FA00001003DD40100DFD4010082D5010024D6F8
:103FB0000100C7D601006BD701000ED80100B2D8AE
:103FC000010056D90100FAD901009EDA010043DB55
:103FD0000100E8DB01008DDC010032DD0100D8DDED
:103FE00001007DDE010023DF0100C9DF010070E078
:103FF000010016E10100BDE1010064E201000CE3F3
:104000000100B3E301005BE4010003E50100ABE55F
:10401000010054E60100FCE60100A5E701004EE8BE
:104020000100F8E80100A1E901004BEA0100F5EA0E
:1040300001009FEB01004AEC0100F5EC01009FED4F
:1040400001004BEE0100F6EE0100A2EF01004EF080
:104050000100FAF00100A6F1010053F2010000F3A3
:104060000100ADF301005AF4010007F50100B5F5B8
:10407000010063F6010011F70100C0F701006FF8BD
:1040800001001EF90100CDF901007CFA01002CFBB2
:104090000100DCFB01008CFC01003CFD0100EDFD9A
:1040A00001009EFE01004FFF010000000200B2006F
:1040B00002006301020015020200C80202007A0336
:1040C00002002D040200E0040200930502004706EE
:1040D0000200FB060200AF07020063080200170996
:1040E0000200CC090200810A0200360B0200EC0B30
:1040F0000200A10C0200570D02000D0E0200C40EBA
:1041000002007B0F020031100200E9100200A01132
:1041100002005812020010130200C813020080149B
:10412000020039150200F2150200AB1602006417F6
:1041300002001E180200D8180200921902004D1A3F
:104140000200071B0200C21B02007E1C0200391D78
:104150000200F51D0200B11E02006D1F02002920A1
:104160000200E6200200A3210200602202001E23BA
:104170000200DB23020099240200582502001626C3
:104180000200D526020094270200532802001329BA
:104190000200D3290200932A0200532B0200142CA0
:1041A0000200D52C0200962D0200572E0200192F76
:1041B0000200DB2F02009D3002005F31020022323C
:1041C0000200E5320200A83302006B3402002F35F2
:1041D0000200F3350200B83602007C370200413895
:1041E000020006390200CB390200913A0200573B27
:1041F00002001D3C0200E33C0200AA3D0200713EA9
:104200000200383F020000400200C74002008F4118
:1042100002005842020020430200E9430200B24477
:1042200002007C450200454602000F470200DA47C3
:104230000200A44802006F4902003A4A0200054BFE
:104240000200D14B02009D4C0200694D0200354E28
:104250000200024F0200CF4F02009C5002006A5140
:1042600002003752020005530200D4530200A25448
:104270000200715502004056020010570200E0573C
:104280000200B058020080590200515A0200225B1D
:104290000200F35B0200C45C0200965D0200685EEF
:1042A00002003A5F02000D600200E0600200B361AC
:1042B0000200866202005A6302002E640200026558
:1042C0000200D7650200AC660200816702005768F1
:1042D00002002C690200026A0200D96A0200AF6B78
:1042E0000200866C02005D6D0200356E02000D6FEB
:1042F0000200E56F0200BD700200967102006F724D
:1043000002004873020022740200FB740200D6759A
:104310000200B07602008B770200667802004179D5
:1043200002001D7A0200F97A0200D57B0200B17CFE
:1043300002008E7D02006B7E0200497F0200268013
:10434000020004810200E3810200C1820200A08316
:1043500002007F8402005F8502003F8602001F8703
:104360000200FF870200E0880200C1890200A28AE1
:104370000200848B0200668C0200488D02002B8EA6
:1043800002000E8F0200F18F0200D4900200B8915B
:1043900002009C92020081930200659402004A95FB
:1043A00002003096020015970200FB970200E29887
:1043B0000200C8990200AF9A0200969B02007E9C00
:1043C0000200669D02004E9E0200369F02001FA062
:1043D000020008A10200F2A10200DBA20200C5A3B4
:1043E0000200B0A402009AA5020085A6020071A7EF
:1043F00002005CA8020048A9020035AA020021AB15
:1044000002000EAC0200FBAC0200E9AD0200D7AE28
:104410000200C5AF0200B4B00200A2B1020092B225
:10442000020081B3020071B4020061B5020051B60E
:10443000020042B7020033B8020025B9020017BAE1
:10444000020009BB0200FBBB0200EEBC0200E1BDA2
:104450000200D4BE0200C8BF0200BCC00200B1C14D
:104460000200A5C202009AC3020090C4020086C5E1
:1044700002007CC6020072C7020069C8020060C95F
:10448000020057CA02004FCB020047CC02003FCDCA
:10449000020038CE020031CF02002BD0020024D11E
:1044A00002001FD2020019D3020014D402000FD55B
:1044B00002000AD6020006D7020002D80200FFD886
:1044C0000200FCD90200F9DA0200F6DB0200F4DC9B
:1044D0000200F2DD0200F1DE0200F0DF0200EFE098
:1044E0000200EFE10200EEE20200EFE30200EFE47F
:1044F0000200F0E50200F2E60200F3E70200F5E850
:104500000200F8E90200FAEA0200FDEB020001ED08
:10451000020005EE020009EF02000DF0020012F1A8
:10452000020017F202001DF3020023F4020029F535
:1045300002002FF6020036F702003EF8020045F9AD
:1045400002004DFA020056FB02005EFC020067FD0D
:10455000020071FE02007BFF0200850003008F0154
:1045600003009A020300A6030300B1040300BD0583
:104570000300CA060300D6070300E3080300F1099D
:104580000300FF0A03000D0C03001B0D03002A0E9D
:104590000300390F03004910030059110300691289
:1045A00003007A1303008B1403009D150300AF165C
:1045B0000300C1170300D3180300E6190300FA1A19
:1045C00003000D1C0300211D0300361E03004B1FBA
:1045D000030060200300752103008B220300A22347
:1045E0000300B8240300CF250300E7260300FF27BC
:1045F000030017290300302A0300492B0300622C13
:1046000003007C2D0300962E0300B02F0300CB3057
:104610000300E6310300023303001E3403003B3580
:104620000300573603007537030092380300B03992
:104630000300CF3A0300ED3B03000C3D03002C3E8A
:1046400003004C3F03006C4003008D410300AE4269
:104650000300CF430300F144030013460300364731
:104660000300594803007D490300A04A0300C54BDD
:104670000300E94C03000E4E0300344F03005A5070
:10468000030080510300A6520300CD530300F554EC
:1046900003001D560300455703006D58030096594B
:1046A0000300C05A0300EA5B0300145D03003F5E91
:1046B00003006A5F030095600300C1610300ED62BF
:1046C00003001A6403004765030074660300A267D1
:1046D0000300D1680300FF6903002E6B03005E6CCA
:1046E00003008E6D0300BE6E0300EF6F03002071A8
:1046F00003005272030084730300B6740300E9756B
:1047000003001C7703005078030084790300B87A13
:104710000300ED7B0300237D0300587E03008E7FA2
:104720000300C5800300FC810300338303006B8416
:104730000300A4850300DC860300158803004F896D
:104740000300898A0300C38B0300FE8C0300398EAB
:104750000300758F0300B1900300EE9103002B93CB
:10476000030068940300A6950300E49603002398D1
:10477000030062990300A19A0300E19B0300229DBC
:104780000300639E0300A49F0300E6A0030028A289
:1047900003006AA30300ADA40300F1A5030035A73D
:1047A000030079A80300BEA9030003AB030049ACD2
:1047B00003008FAD0300D5AE03001CB0030064B14D
:1047C0000300ACB20300F4B303003DB5030086B6AA
:1047D0000300D0B703001AB9030064BA0300AFBBEB
:1047E0000300FBBC030047BE030093BF0300E0C00F
:1047F00003002DC203007BC30300C9C4030017C616
:10480000030066C70300B6C8030006CA030056CB00
:104810000300A7CC0300F8CD03004ACF03009CD0CF
:104820000300EFD1030042D3030096D40300EAD57E
:1048300003003FD7030094D80300E9D903003FDB0E
:10484000030095DC0300ECDD030043DF03009BE085
:104850000300F4E103004CE30300A5E40300FFE5DB
:10486000030059E70300B4E803000FEA03006AEB12
:104870000300C6EC030023EE030080EF0300DDF02D
:1048800003003BF2030099F30300F8F4030057F62A
:104890000300B7F7030018F9030078FA0300D9FB07
:1048A00003003BFD03009DFE0300000004006301C4
:1048B0000400C70204002B0404008F050400F40662
:1048C00004005A080400C0090400270B04008E0CE1
:1048D0000400F50D04005D0F0400C51004002E1245
:1048E000040098130400021504006C160400D71786
:1048F000040043190400AE1A04001B1C0400881DA8
:104900000400F51E040063200400D12104004023AC
:104910000400AF2404001F2604009027040001298E
:104920000400722A0400E42B0400562D0400C92E52
:1049300004003C300400B0310400253304009934F5
:1049400004000F36040085370400FB380400723A77
:104950000400E93B0400613D0400DA3E04005340DA
:104960000400CC41040046430400C04404003B461C
:104970000400B747040033490400AF4A04002C4C3C
:104980000400AA4D0400284F0400A750040026523A
:104990000400A553040026550400A6560400275819
:1049A0000400A95904002B5B0400AE5C0400315ED6
:1049B0000400B55F040039610400BE620400446471
:1049C0000400CA65040050670400D76804005E6AEA
:1049D0000400E66B04006F6D0400F86E0400827042
:1049E00004000C7204009773040022750400AE7674
:1049F00004003A780400C7790400547B0400E27C88
:104A00000400707E0400FF7F04008F8104001F8378
:104A10000400B084040041860400D2870400658944
:104A20000400F78A04008B8C04001F8E0400B38FEF
:104A3000040048910400DE920400749404000A9675
:104A40000400A197040039990400D19A04006A9CDB
:104A50000400049E04009D9F040038A10400D3A21A
:104A600004006FA404000BA60400A7A7040045A936
:104A70000400E3AA040081AC040020AE0400BFAF30
:104A8000040060B1040000B30400A1B4040043B604
:104A90000400E6B7040088B904002CBB0400D0BCB5
:104AA000040075BE04001AC00400C0C1040066C33F
:104AB00004000DC50400B4C604005CC8040005CAA7
:104AC0000400AECB040058CD040002CF0400ADD0EA
:104AD000040059D2040005D40400B1D504005FD706
:104AE00004000CD90400BBDA04006ADC040019DEFF
:104AF0000400CADF04007AE104002CE30400DEE4D1
:104B0000040090E6040043E80400F7E90400ABEB7E
:104B1000040060ED040015EF0400CBF0040082F205
:104B2000040039F40400F1F50400AAF7040063F965
:104B300004001CFB0400D6FC040091FE04004D00A0
:104B4000050009020500C5030500830505004007AF
:104B50000500FF080500BE0A05007D0C05003E0E9D
:104B60000500FF0F0500C011050082130500451563
:104B7000050008170500CC180500901A0500561C02
:104B800005001B1E0500E21F0500A921050070237A
:104B900005003825050001270500CB280500952ACA
:104BA00005005F2C05002B2E0500F72F0500C331F3
:104BB0000500903305005E3505002D370500FC38F3
:104BC0000500CB3A05009C3C05006D3E05003E40CB
:104BD000050010420500E3430500B74505008B477B
:104BE00005005F490500354B05000B4D0500E14E02
:104BF0000500B95005009152050069540500425660
:104C000005001C580500F7590500D25B0500AE5D94
:104C100005008A5F0500676105004563050023659F
:104C2000050002670500E2680500C26A0500A36C82
:104C30000500846E0500677005004A7205002D743A
:104C4000050011760500F6770500DC790500C27BCA
:104C50000500A97D0500907F05007881050061832E
:104C600005004B85050035870500208905000B8B65
:104C70000500F78C0500E48E0500D2900500C09277
:104C80000500AE9405009E9605008E9805007F9A5B
:104C90000500709C0500639E050055A0050049A213
:104CA00005003DA4050032A6050028A805001EAA9F
:104CB000050015AC05000CAE050005B00500FEB101
:104CC0000500F7B30500F2B50500EDB70500E8B93A
:104CD0000500E5BB0500E2BD0500DFBF0500DEC144
:104CE0000500DDC30500DDC50500DDC70500DFC922
:104CF0000500E1CB0500E3CD0500E7CF0500EBD1D2
:104D00000500EFD30500F5D50500FBD7050002DA55
:104D1000050009DC050011DE05001AE0050024E2AB
:104D200005002EE4050039E6050045E8050052EAD5
:104D300005005FEC05006DEE05007BF005008BF2D1
:104D400005009BF40500ABF60500BDF80500CFFAA1
:104D50000500E2FC0500F5FE05000A0106001F0340
:104D60000600350506004B070600620906007A0BAF
:104D70000600930D0600AC0F0600C7110600E113F4
:104D80000600FD15060019180600361A0600541C08
:104D90000600731E060092200600B2220600D324ED
:104DA0000600F426060016290600392B06005D2DA4
:104DB0000600812F0600A7310600CD330600F3352B
:104DC00006001B380600433A06006C3C0600953E80
:104DD0000600C0400600EB420600174506004347A8
:104DE0000600714906009F4B0600CE4D0600FE4F9F
:104DF00006002E5206005F54060091560600C45865
:104E00000600F75A06002C5D0600615F06009661F9
:104E10000600CD630600046606003C680600756A5D
:104E20000600AF6C0600E96E060024710600607390
:104E300006009D750600DB770600197A0600587C8F
:104E40000600987E0600D88006001A8306005C855E
:104E500006009F870600E2890600278C06006C8EFC
:104E60000600B2900600F992060041950600899767
:104E70000600D39906001D9C0600689E0600B3A09C
:104E8000060000A306004DA506009BA70600EAA9A0
:104E9000060039AC06008AAE0600DBB006002DB372
:104EA000060080B50600D3B7060028BA06007DBC10
:104EB0000600D3BE06002AC1060082C30600DAC57A
:104EC000060034C806008ECA0600E9CC060044CFAE
:104ED0000600A1D10600FED306005DD60600BCD8B0
:104EE00006001CDB06007CDD0600DEDF060040E27B
:104EF0000600A3E4060007E706006CE90600D2EB13
:104F0000060038EE06009FF0060008F3060071F573
:104F10000600DAF7060045FA0600B1FC06001DFFA0
:104F200006008A010700F803070067060700D70894
:104F30000700470B0700B90D07002B1007009E1252
:104F400007001215070087170700FC190700731CDC
:104F50000700EA1E070062210700DB230700552631
:104F60000700D02807004C2B0700C82D070046304B
:104F70000700C432070043350700C3370700443A2F
:104F80000700C53C0700483F0700CB4107005044DD
:104F90000700D54607005B490700E24B07006A4E51
:104FA0000700F25007007C5307000656070092588E
:104FB00007001E5B0700AB5D070039600700C86291
:104FC000070057650700E86707007A6A07000C6D5D
:104FD00007009F6F070033720700C87407005E77F1
:104FE0000700F57907008D7C0700267F0700BF8149
:104FF00007005A840700F5860700928907002F8C66
:105000000700CD8E07006C9107000C940700AD9649
:1050100007004E990700F19B0700949E070039A1F5
:105020000700DEA3070085A607002CA90700D4AB64
:1050300007007DAE070027B10700D2B307007EB698
:1050400007002BB90700D8BB070087BE070037C190
:105050000700E7C3070098C607004BC90700FECB4F
:105060000700B2CE070067D107001ED40700D5D6CF
:1050700007008DD9070046DC0700FFDE0700BAE114
:10508000070076E4070033E70700F0E90700AFEC1C
:1050900007006FEF07002FF20700F1F40700B3F7E6
:1050A000070076FA07003BFD07000000000024001F
:1050B00027002A0000000000250028002B00000027
:1050C000000023002600290004040404040404044E
:1050D00002020202020203030303030301020408A3
:1050E0001020408001020408102001020408102052
:1050F0000000000700020100000304060000000099
:1051000000000000BA2811241FBECFEFD8E0DEBF98
:10511000CDBF11E0A0E0B1E0E8E3F0E602C0059009
:105120000D92A634B107D9F717E0A6E4B1E001C0AB
:105130001D92AB3DB107E1F711E5C6E0D1E504C032
:105140002297FE010E941630C430D107C9F70E9491
:105150003C2E0C941A300C940000FB01DC0102C0C0
:1051600005900D9241505040D8F7089581E080930A
:10517000CD07089586E491E063E070E04AE050E0F6
:105180002FEF3FEF0E94002C08959B01AC0186E4B5
:1051900091E0B9010E94FB2B0895EF92FF920F93CB
:1051A0001F93CF93DF937A018B01EC018830910537
:1051B00014F0C7E0D0E080914001992787FD9095D9
:1051C000C817D907F1F0FE01EE0FFF1FE05FFE4F99
:1051D0004081518186E04136580714F040E656E0A0
:1051E0005093B3074093B207FE01EE0FFF1FE0504C
:1051F000FF4F6081718182E591E00E94AD28C093EC
:10520000400120914001C22FDD27C7FDD095CC0F72
:10521000DD1FCC0FDD1FC05EDE4FC801B7010E944D
:10522000C92E288139814A815B810E942D2F0E94DD
:10523000962E6093B4077093B5078093B60790934A
:10524000B707DF91CF911F910F91FF90EF900895D5
:105250006F927F928F929F92AF92BF92CF92DF9286
:10526000EF92FF920F931F938091CD07813009F049
:105270003CC12091C5073091C6072F5F3F4F309347
:10528000C6072093C5078091C7079091C80701966C
:105290009093C8078093C7078091C9079091CA0768
:1052A00001969093CA078093C9078091CB0790918C
:1052B000CC0701969093CC078093CB078091410156
:1052C000909142012817390744F01092C6071092B6
:1052D000C50784E061E00E949F2C2091C7073091B0
:1052E000C80780914301909144012817390744F081
:1052F0001092C8071092C70785E061E00E949F2CBA
:105300006090C9077090CA07882477FC8094982C15
:1053100082E00E94F32C00D000D0AA2797FDA09530
:10532000BA2F2CE030E040E050E0EDB7FEB721832B
:10533000328343835483BC01CD0120E030E040E060
:1053400050E0F6EFEF2EF3E0FF2E012D112DE1E0FE
:10535000AE2EB12CC12CD12C0E944D2E0F900F904F
:105360000F900F90661677068806990644F0109203
:10537000CA071092C90786E061E00E949F2C6090E6
:10538000CB077090CC07882477FC8094982C83E01E
:105390000E94F32C00D000D0AA2797FDA095BA2F29
:1053A0002CE030E040E050E0EDB7FEB721833283DF
:1053B00043835483BC01CD0120E030E040E050E065
:1053C00016EFE12E13E0F12E012D112DB1E0AB2EE1
:1053D000B12CC12CD12C0E944D2E0F900F900F900C
:1053E0000F90661677068806990644F01092CC074F
:1053F0001092CB0787E061E00E949F2C1092CD07AE
:1054000081E08093C4070E945D2D6093C007709374
:10541000C1078093C2079093C30780E00E94F32CDA
:105420004091B8075091B9079C01241B350B37FFF9
:1054300003C0309521953F4F293031050CF4CA0146
:105440009093B9078093B80781E00E94F32C4091B4
:10545000BA075091BB079C01241B350B37FF03C0D3
:10546000309521953F4F293031050CF4CA019093B6
:10547000BB078093BA07FC01EE0FFF1FEE0FFF1F63
:10548000E655FF4C659075908590949000D000D0C3
:105490006091B8077091B907882777FD8095982F9C
:1054A00028E030E040E050E0ADB7BEB711962D9354
:1054B0003D934D935C93149720E030E040E050E042
:1054C000EFEFEE2EE3E0FE2E012D112DAA24BB24DA
:1054D00065010E944D2EDC01CB010F900F900F90C3
:1054E0000F90B401A3010E94CD288091C4078823A6
:1054F00009F47BC00E945D2D6093BC077093BD07CB
:105500008093BE079093BF072091C0073091C107D9
:105510004091C2075091C30762177307840795072C
:10552000621B730B840B950B2091B4073091B50768
:105530004091B6075091B7070E94B82F5B016C01EC
:105540003C01992477FC9094892C8091B20790912A
:10555000B3070197AA2797FDA095BA2F6816790679
:105560008A069B06D4F58FEF9FEFA0E0B0E0A8225B
:10557000B922CA22DB220894611C711C811C911C77
:10558000F301EE5AFE4F08946108710881089108F2
:10559000608170E080E090E0A60195010E94B82F44
:1055A0007B018C01F301EE5AFE4F608170E080E0D8
:1055B00090E020E030E041E050E02A193B094C093E
:1055C0005D090E94B82FE60EF71E081F191FB801CB
:1055D000992777FD9095892F06C01092C40760E83F
:1055E00070E080E090E00E94C52884E060E00E94C6
:1055F0009F2C85E060E00E949F2C86E060E00E9486
:105600009F2C87E060E00E949F2C1F910F91FF90DC
:10561000EF90DF90CF90BF90AF909F908F907F9052
:105620006F9008950F931F9382E060E00E94602CBA
:1056300084E061E00E94602C84E060E00E949F2C86
:1056400085E061E00E94602C85E060E00E949F2C74
:1056500086E061E00E94602C87E060E00E949F2C61
:1056600087E061E00E94602C87E060E00E949F2C50
:1056700080E090E041E050E060E070E00E94CD28E2
:1056800060E870E080E090E00E94C52880E066EB72
:1056900078E243E050E00E94BE2D06E411E0C8012C
:1056A00061E00E94762BC80162E070E00E947C2BD2
:1056B000C80161E00E94792B1F910F9108958AE043
:1056C00061E00E949F2C8AE061E00E94602C8CB512
:1056D00080618CBD8CB580648CBD8DE061E00E94E2
:1056E000602C8BE061E00E94602C0895FC016683D1
:1056F0000895FC0160870895FC016130710519F47B
:10570000178281E008956230710511F080E00895FC
:1057100081E087830895FF920F931F93CF93DF93C8
:105720008C01EB01F42EDC0114968D919C91159760
:105730008C30910511F4DF7008C08A30910511F4A6
:10574000D37003C0089709F4D070F80180858823CE
:1057500011F02A9805C0D8018C9160E00E949F2C1E
:10576000D8011696EC91169717968C91882319F00C
:1057700040E050E002C040E050E28CE090E0D80110
:1057800014962D913C911597821B930BBE0102C07C
:10579000660F771F8A95E2F770613F2D37953327A3
:1057A000379520E09E2F9295990F990F907C80E07D
:1057B000282B392B242B352B622B732B7EBD00001D
:1057C0000DB407FEFDCF8EB56EBD00000DB407FE13
:1057D000FDCF8EB5F8018085882311F02A9A05C087
:1057E000D8018C9161E00E949F2CDF91CF911F9195
:1057F0000F91FF90089540E050E00E948B2B089598
:10580000CF93DF93EC011E821F82188684E090E024
:105810009A87898781E08B87598348833B832A83D2
:1058200063307105E1F0643071053CF4613071055D
:1058300071F062307105B1F40DC06530710551F041
:105840006530710524F06630710561F408C088E0A8
:1058500090E002C08AE090E09D838C8305C08CE0DC
:1058600090E0FACF1D821C82888161E00E94602C4A
:105870008A8161E00E94602C888161E00E949F2CF7
:105880008A8161E00E949F2C0E945F2B8CB58F7DE6
:105890008CBD8CB5837F8CBD89852CB5382F33703A
:1058A0002C7F322B3CBD2DB590E095958795959535
:1058B000879581702E7F822B8DBDDF91CF910895CA
:1058C000CF93DF93482F50E0CA0184529F4AFC01D6
:1058D000349148535F4AFA018491882369F190E03A
:1058E000880F991FFC01E655FF4AA591B491FC0170
:1058F000EC54FF4AC591D491662351F42FB7F89424
:105900008C91932F909589238C93888189230BC048
:10591000623061F42FB7F8948C91932F909589237E
:105920008C938881832B88832FBF06C09FB7F89400
:105930008C91832B8C939FBFDF91CF910895482F3B
:1059400050E0CA0180519F4AFC012491CA0184524F
:105950009F4AFC01949148535F4AFA0134913323E2
:1059600009F440C0222351F1233071F0243028F48F
:105970002130A1F0223011F514C02630B1F02730CB
:10598000C1F02430D9F404C0809180008F7703C027
:10599000809180008F7D8093800010C084B58F77C8
:1059A00002C084B58F7D84BD09C08091B0008F771F
:1059B00003C08091B0008F7D8093B000E32FF0E0B2
:1059C000EE0FFF1FEC54FF4AA591B4912FB7F89446
:1059D000662321F48C919095892302C08C91892BA8
:1059E0008C932FBF0895982F8E3008F09E5097709B
:1059F000809145018295880F880F807C892B809348
:105A00007C0080917A00806480937A0080917A0093
:105A100086FDFCCF2091780040917900942F80E0A2
:105A200030E0282B392BC90108951F920F920FB631
:105A30000F9211242F933F938F939F93AF93BF9314
:105A40008091D2079091D307A091D407B091D50748
:105A50003091D6070196A11DB11D232F2D5F2D3743
:105A600020F02D570196A11DB11D2093D6078093DC
:105A7000D2079093D307A093D407B093D507809112
:105A8000CE079091CF07A091D007B091D107019692
:105A9000A11DB11D8093CE079093CF07A093D0078F
:105AA000B093D107BF91AF919F918F913F912F916B
:105AB0000F900FBE0F901F9018959FB7F8942091EC
:105AC000CE073091CF074091D0075091D10786B5CE
:105AD000A89B06C08F3F21F02F5F3F4F4F4F5F4F76
:105AE0009FBF542F432F322F2227280F311D411DD6
:105AF000511D82E0220F331F441F551F8A95D1F795
:105B0000B901CA010895789484B5826084BD84B5D2
:105B1000816084BD85B5826085BD85B5816085BDA8
:105B2000EEE6F0E0808181608083E1E8F0E01082C1
:105B3000808182608083808181608083E0E8F0E002
:105B4000808181608083E1EBF0E0808184608083EC
:105B5000E0EBF0E0808181608083EAE7F0E0808123
:105B60008460808380818260808380818160808383
:105B70008081806880831092C1000895823000F592
:105B8000E82FF0E0EE0FFF1FE952F84F71836083BA
:105B9000882319F08130A1F408C0809169008C7FBE
:105BA000842B80936900E89A089580916900440FDE
:105BB000551F440F551F837F842B80936900E99AFA
:105BC00008951F920F920FB60F9211242F933F93B7
:105BD0004F935F936F937F938F939F93AF93BF93F5
:105BE000EF93FF938091D7079091D807892B29F0E5
:105BF000E091D707F091D8070995FF91EF91BF91F8
:105C0000AF919F918F917F916F915F914F913F9154
:105C10002F910F900FBE0F901F9018951F920F920B
:105C20000FB60F9211242F933F934F935F936F936F
:105C30007F938F939F93AF93BF93EF93FF93809145
:105C4000D9079091DA07892B29F0E091D907F091D3
:105C5000DA070995FF91EF91BF91AF919F918F91D5
:105C60007F916F915F914F913F912F910F900FBE58
:105C70000F901F9018950895CF93DF930E94832D66
:105C80000E943B2E0E94122BC0E0D0E00E942829E7
:105C90002097E1F30E940000F9CF2F923F924F929C
:105CA0005F926F927F928F929F92AF92BF92CF92AC
:105CB000DF92EF92FF920F931F93DF93CF93CDB7B5
:105CC000DEB73B014C0119012A016D897E898F895C
:105CD000988D6A197B098C099D09621A730A840AD6
:105CE000950AA40193010E94B82FE218F308040951
:105CF0001509A80197010E94D72F2A0D3B1D4C1DA5
:105D00005D1DB901CA01CF91DF911F910F91FF90E5
:105D1000EF90DF90CF90BF90AF909F908F907F904B
:105D20006F905F904F903F902F90089504D06894AB
:105D3000B1118DC0089570D088F09F5790F0B92FA1
:105D40009927B751A0F0D1F0660F771F881F991FD0
