:100000000C9463180C944C1D0C94791D0C948B1853
:100010000C948B180C948B180C948B180C948B18D4
:100020000C948B180C94A9180C948B180C948B18A6
:100030000C948B180C948B180C948B180C948B18B4
:100040000C94D01F0C948B180C94B91D0C940B1E9F
:100050000C948B180C948B180C948B180C948B1894
:100060000C948B180C948B18CDAF6640E2FF664061
:100070001350674060A06740C8F067404D4168403A
:10008000ED916840AAE26840823369407784694014
:1000900087D56940B4266A40FD776A4062C96A40E4
:1000A000E41A6B40816C6B403BBE6B4012106C409D
:1000B00005626C4014B46C4040066D4088586D4039
:1000C000EDAA6D406EFD6D400C506E40C7A26E40B3
:1000D0009FF56E4093486F40A49B6F40D2EE6F40F7
:1000E0001D4270408495704009E97040AB3C7140FE
:1000F0006990714045E471403E387240548C7240C2
:1001000087E07240D834734045897340D0DD734036
:10011000793274403E87744022DC7440223175404D
:10012000408675407CDB7540D53076404C86764005
:10013000E1DB7640933177406387774051DD77404C
:100140005D33784086897840CEDF78403336794019
:10015000B78C794058E37940173A7A40F5907A4065
:10016000F1E77A400B3F7B4043967B4099ED7B4023
:100170000E457C40A19C7C4053F47C40234C7D4048
:1001800011A47D401EFC7D404A547E4094AC7E40CC
:10019000FD047F40855D7F402BB67F40780780401F
:1001A000EA3380406B608040FC8C80409CB980408A
:1001B0004CE680400B138140DA3F8140B86C8140AF
:1001C000A6998140A4C68140B1F38140CE208240EF
:1001D000FA4D8240377B824082A88240DED5824041
:1001E00049038340C43083404F5E8340EA8B8340A1
:1001F00094B983404FE7834019158440F34284400B
:10020000DD708440D79E8440E1CC8440FBFA84407A
:10021000252985405F578540A985854003B48540E1
:100220006DE28540E7108640723F86400C6E864046
:10023000B79C864072CB86403DFA8640192987409C
:1002400004588740008787400DB6874029E58740DE
:100250005614884094438840E172884040A2884008
:10026000AED188402D018940BD3089405D60894014
:100270000E908940CFBF8940A0EF8940831F8A40FC
:10028000764F8A40797F8A408EAF8A40B3DF8A40BA
:10029000E80F8B402F408B4086708B40EEA08B4048
:1002A00067D18B40F0018C408B328C4036638C40A0
:1002B000F2938C40BFC48C409DF58C408C268D40C1
:1002C0008C578D409D888D40BFB98D40F3EA8D409D
:1002D000371C8E408C4D8E40F37E8E406AB08E402F
:1002E000F3E18E408D138F4038458F40F4768F4078
:1002F000C2A88F40A1DA8F40910C9040933E90406D
:10030000A6709040CAA2904000D590404707914007
:10031000A03991400A6C9140869E914013D1914042
:10032000B10392406236924024699240F79B92401A
:10033000DCCE9240D3019340DB349340F667934088
:10034000229B93405FCE9340AF0194401035944080
:1003500083689440089C94409FCF94404803954004
:1003600003379540CF6A9540AE9E95409FD2954009
:10037000A1069640B63A9640DD6E964016A396408A
:1003800061D79640BE0B97402E409740AF74974080
:1003900043A99740E9DD9740A21298406C479840E6
:1003A000497C984039B198403AE698404F1B9940B3
:1003B00075509940AE859940FABA994058F09940E5
:1003C000C8259A404B5B9A40E1909A4089C69A4072
:1003D00044FC9A4011329B40F2679B40E49D9B4055
:1003E000EAD39B40020A9C402E409C406C769C4085
:1003F000BCAC9C4020E39C4097199D4020509D4000
:10040000BC869D406CBD9D402EF49D40032B9E40BC
:10041000EC619E40E7989E40F6CF9E4017079F40B4
:100420004C3E9F4094759F40EFAC9F405DE49F40E1
:10043000DF1BA0407453A0401C8BA040D7C2A0403B
:10044000A6FAA0408832A1407E6AA14087A2A140BE
:10045000A3DAA140D312A240174BA2406E83A24060
:10046000D8BBA24056F4A240E82CA3408D65A3401F
:10047000469EA34013D7A340F40FA440E848A440ED
:10048000F081A4400BBBA4403BF4A4407E2DA540CA
:10049000D666A54041A0A540C0D9A5405313A640AB
:1004A000FA4CA640B586A64085C0A64068FAA6408C
:1004B0005F34A7406B6EA7408AA8A740BEE2A74062
:1004C000061DA8406257A840D291A84057CCA8402A
:1004D000F006A9409E41A9405F7CA94036B7A940DB
:1004E00020F2A9401F2DAA403368AA405BA3AA406E
:1004F00097DEAA40E819AB404E55AB40C990AB40DF
:1005000058CCAB40FB07AC40B443AC40817FAC401F
:1005100063BBAC4059F7AC406533AD40856FAD402F
:10052000BAABAD4004E8AD406324AE40D760AE4006
:10053000609DAE40FED9AE40B116AF407953AF409A
:100540005690AF4049CDAF40500AB0406D47B040E3
:100550009F84B040E6C1B04042FFB040B43CB140DF
:100560003B7AB140D7B7B14089F5B1405033B24082
:100570002D71B2401FAFB24027EDB240442BB340C3
:100580007769B340BFA7B3401DE6B3409024B440A1
:100590001A63B440B9A1B4406DE0B440381FB5400F
:1005A000185EB5400E9DB5401ADCB5403C1BB64008
:1005B000745AB640C199B64025D9B6409F18B74085
:1005C0002E58B740D497B74090D7B7406217B8407D
:1005D0004A57B8404997B8405DD7B8408817B940E6
:1005E000C957B9402098B9408ED8B9401219BA40BD
:1005F000AD59BA405E9ABA4025DBBA40031CBB40F5
:10060000F75CBB40029EBB4024DFBB405C20BC408B
:10061000AA61BC4010A3BC408CE4BC401F26BD4076
:10062000C867BD4089A9BD4060EBBD404E2DBE40AE
:10063000536FBE406FB1BE40A2F3BE40EC35BF4029
:100640004D78BF40C4BABF4053FDBF40F93FC040E2
:10065000B782C0408BC5C0407708C140794BC140CC
:10066000948EC140C5D1C1400E15C2406E58C240E3
:10067000E59BC24074DFC2401A23C340D866C34022
:10068000ADAAC3409AEEC3409F32C440BB76C4407B
:10069000EEBAC4403AFFC4409D43C5401888C540E7
:1006A000AACCC5405511C6401756C640F19AC6405F
:1006B000E3DFC640ED24C7400F6AC74049AFC740DB
:1006C0009BF4C740053AC840877FC84021C5C84051
:1006D000D30AC9409E50C9408196C9407CDCC940BC
:1006E0008F22CA40BB68CA40FFAECA405BF5CA4011
:1006F000D03BCB405D82CB4003C9CB40C20FCC4046
:100700009956CC40889DCC4090E4CC40B12BCD4054
:10071000EA72CD403DBACD40A801CE402B49CE4033
:10072000C890CE407DD8CE404C20CF403368CF40DB
:1007300033B0CF404CF8CF407F40D040CA88D04043
:100740002ED1D040AC19D1404262D140F2AAD14062
:10075000BBF3D1409E3CD2409A85D240AFCED2402E
:10076000DD17D3402561D34086AAD34001F4D3409E
:10077000953DD4404387D4400AD1D440EB1AD540AC
:10078000E664D540FAAED54028F9D5407043D6404E
:10079000D18DD6404DD8D640E222D740916DD7407A
:1007A0005AB8D7403D03D8403A4ED8405199D84026
:1007B00082E4D840CD2FD940337BD940B2C6D9404E
:1007C0004C12DA40005EDA40CEA9DA40B7F5DA40E2
:1007D000BA41DB40D78DDB400FDADB406126DC40DD
:1007E000CD72DC4055BFDC40F60BDD40B358DD4038
:1007F0008AA5DD407BF2DD40883FDE40AF8CDE40E5
:10080000F1D9DE404E27DF40C574DF4058C2DF40DB
:100810000510E040CE5DE040B1ABE040AFF9E04014
:10082000C947E140FD95E1404DE4E140B832E24086
:100830003E81E240E0CFE2409D1EE340756DE34023
:1008400068BCE340770BE440A15AE440E7A9E440E8
:1008500048F9E440C548E5405E98E54012E8E540C7
:10086000E137E640CD87E640D4D7E640F727E740BA
:100870003678E74090C8E7400719E8409969E840B2
:1008800048BAE840120BE940F95BE940FBACE940AB
:100890001AFEE940554FEA40ACA0EA401FF2EA4098
:1008A000AF43EB405B95EB4023E7EB400839EC406E
:1008B000098BEC4026DDEC40602FED40B781ED4028
:1008C0002AD4ED40BA26EE406679EE402FCCEE40B9
:1008D000151FEF401872EF4037C5EF407418F04015
:1008E000CD6BF04043BFF040D612F1408666F14038
:1008F00054BAF1403E0EF2404562F2406AB6F24010
:10090000AC0AF3400B5FF34087B3F3402108F44097
:10091000D85CF440ACB1F4409E06F540AE5BF540C7
:10092000DBB0F5402506F6408D5BF64013B1F6408E
:10093000B606F740785CF74056B2F7405308F840E7
:100940006E5EF840A6B4F840FD0AF9407161F940C6
:1009500003B8F940B40EFA408265FA406FBCFA4021
:100960007A13FB40A36AFB40EAC1FB405019FC40EC
:10097000D470FC4076C8FC403720FD401678FD401E
:1009800014D0FD403028FE406B80FE40C5D8FE40AC
:100990003D31FF40D489FF4089E2FF40AF1D004157
:1009A000294A0041B27600414AA30041F2CF0041FA
:1009B000AAFC004171290141475601412E830141A2
:1009C00023B0014129DD01413E0A02416237024163
:1009D00096640241DA9102412EBF024192EC02413B
:1009E000051A0341884703411B750341BDA203411A
:1009F00070D0034132FE0341042C0441E659044106
:100A0000D8870441DAB50441ECE304410E120541F4
:100A100040400541826E0541D49C054136CB0541DD
:100A2000A8F905412B280641BD56064160850641BF
:100A300013B40641D6E20641A91107418D40074192
:100A4000806F0741859E074199CD0741BEFC074154
:100A5000F32B0841385B08418E8A0841F5B90841FB
:100A60006CE90841F31809418B4809413378094181
:100A7000ECA70941B5D7094190070A417A370A41E5
:100A800075670A4181970A419EC70A41CBF70A411F
:100A900009280B4158580B41B8880B4128B90B4124
:100AA000A9E90B413B1A0C41DE4A0C41927B0C41F7
:100AB00057AC0C412CDD0C41130E0D410A3F0D418A
:100AC00013700D412CA10D4157D20D4193030E41DE
:100AD000DF340E413D660E41AC970E412CC90E41EC
:100AE000BEFA0E41602C0F41145E0F41D98F0F41A9
:100AF000AFC10F4197F30F41902510419A57104114
:100B0000B6891041E3BB104121EE10417120114123
:100B1000D352114146851141CAB7114160EA1141D2
:100B2000071D1241C04F12418B82124167B512411D
:100B300055E81241551B1341664E134189811341FB
:100B4000BEB4134105E813415D1B1441C74E144167
:100B500044821441D1B5144171E91441231D15415A
:100B6000E7501541BC841541A4B815419EEC1541D0
:100B7000AA201641C7541641F788164139BD1641BF
:100B80008DF11641F42517416C5A1741F78E174124
:100B900094C3174143F81741052D1841D9611841F5
:100BA000BF961841B7CB1841C2001941DF35194132
:100BB0000F6B194152A01941A6D519410D0B1A41CD
:100BC00087401A4114761A41B3AB1A4164E11A41C5
:100BD00028171B41FF4C1B41E9821B41E5B81B4113
:100BE000F4EE1B4116251C414A5B1C4192911C41AD
:100BF000ECC71C4159FE1C41D9341D416C6B1D4191
:100C000012A21D41CAD81D41960F1E4175461E41B4
:100C1000677D1E416CB41E4184EB1E41AF221F4113
:100C2000EE591F413F911F41A4C81F411C002041A4
:100C3000A7372041456F2041F7A62041BCDE204167
:100C400095162141814E21418086214193BE21414B
:100C5000B9F62141F32E224140672241A09F224153
:100C600015D822419D10234138492341E781234172
:100C7000AABA234181F323416B2C244169652441A5
:100C80007B9E2441A1D72441DA102541284A2541E1
:100C900089832541FEBC254187F625412430264124
:100CA000D56926419AA3264174DD26416117274163
:100CB00062512741788B2741A1C52741DFFF27419A
:100CC000313A28419874284112AF2841A1E92841BE
:100CD00044242941FC5E2941C8992941A8D42941CD
:100CE0009D0F2A41A64A2A41C4852A41F7C02A41BC
:100CF0003DFC2A4199372B4109732B418DAE2B4185
:100D000027EA2B41D5252C4198612C416F9D2C4120
:100D10005BD92C415C152D4172512D419D8D2D418A
:100D2000DDC92D4131062E419B422E41197F2E41B6
:100D3000ADBB2E4155F82E4113352F41E5712F41A2
:100D4000CDAE2F41CAEB2F41DC2830410366304144
:100D500040A3304191E03041F81D3141755B314194
:100D600007993141AED631416A1432413C52324189
:100D70002390324120CE3241330C33415A4A334121
:100D800098883341EBC6334154053441D243344152
:100D90006682344110C13441D0FF3441A53E354113
:100DA000907D354191BC3541A8FB3541D53A36415E
:100DB000187A364170B93641DFF836416438374128
:100DC000FF773741AFB7374176F73741533738416F
:100DD0004777384150B7384170F73841A637394125
:100DE000F277394154B83941CDF839415D393A414A
:100DF000027A3A41BEBA3A4191FB3A417A3C3B41D0
:100E00007A7D3B4190BE3B41BDFF3B4100413C41AF
:100E10005A823C41CBC33C4153053D41F1463D41E3
:100E2000A6883D4172CA3D41540C3E414E4E3E4162
:100E30005E903E4186D23E41C4143F4119573F4126
:100E400086993F4109DC3F41A41E40415561404124
:100E50001EA44041FEE64041F5294141046D414157
:100E600029B0414166F34141BB364241267A4241B5
:100E7000AABD424144014341F6444341C088434135
:100E8000A1CC434199104441AA544441D2984441D1
:100E900011DD444168214541D76545415EAA454180
:100EA000FCEE4541B33346418178464167BD46413A
:100EB000650247417B474741A98C4741EFD14741F4
:100EC0004D174841C35C484151A24841F7E74841AA
:100ED000B62D49418C7349417BB9494182FF494153
:100EE000A2454A41DA8B4A412AD24A4193184B41E2
:100EF000145F4B41ADA54B415FEC4B412A334C4154
:100F00000D7A4C4109C14C411D084D414B4F4D419B
:100F100090964D41EFDD4D4166254E41F66C4E41B8
:100F20009FB44E4161FC4E413C444F41308C4F4197
:100F30003DD44F41621C5041A1645041F9AC504135
:100F40006AF55041F43D51419786514154CF51418A
:100F50002A1852411961524121AA524143F3524188
:100F60007E3C5341D285534140CF5341C818544130
:100F70006962544123AC5441F7F55441E53F554172
:100F8000ED8955410ED45541491E56419D68564143
:100F90000CB3564194FD564136485741F2925741A1
:100FA000C8DD5741B8285841C2735841E6BE584180
:100FB000240A59417D555941EFA059417CEC5941D2
:100FC00023385A41E4835A41BFCF5A41B51B5B4194
:100FD000C5675B41EFB35B4134005C41944C5C41BD
:100FE0000E995C41A2E55C4151325D411B7F5D4140
:100FF000FFCB5D41FE185E4118665E414DB35E4118
:101000009C005F41064E5F418B9B5F412BE95F4136
:10101000E6366041BC846041ADD26041B920614197
:10102000E06E614122BD61417F0B6241F85962412E
:101030008CA862413BF7624105466341EB946341F2
:10104000ECE36341093364414182644194D16441DA
:10105000032165418E70654134C06541F60F6641DC
:10106000D45F6641CDAF66410000003E5B85003E27
:10107000410B013EB291013EAF18023E39A0023E43
:101080005028033EF5B0033E293A043EEBC3043E2C
:101090003D4E053E1FD9053E9164063E95F0063E45
:1010A0002B7D073E530A083E0F98083E5D26093EF9
:1010B00041B5093EB9440A3EC6D40A3E6A650B3EB4
:1010C000A4F60B3E76880C3EDF1A0D3EE1AD0D3ED8
:1010D0007D410E3EB2D50E3E816A0F3EECFF0F3EC3
:1010E000F295103E942C113ED3C3113EB05B123EDC
:1010F0002CF4123E468D133EFF26143E59C1143E79
:10110000535C153EEFF7153E2D94163E0E31173EFB
:1011100092CE173EBB6C183E880B193EFAAA193EB8
:10112000134B1A3ED3EB1A3E3A8D1B3E492F1C3E01
:1011300001D21C3E62751D3E6E191E3E25BE1E3E2E
:1011400087631F3E9609203E51B0203EBA57213E8C
:10115000D2FF213E99A8223E0F52233E37FC233E68
:101160000FA7243E9952253ED7FE253EC7AB263E0B
:101170006C59273EC607283ED5B6283E9B66293EB9
:1011800018172A3E4CC82A3E3A7A2B3EE02C2C3EB9
:1011900041E02C3E5D942D3E34492E3EC8FE2E3E4D
:1011A00019B52F3E286C303EF623313E83DC313EAC
:1011B000D095323EDE4F333EAF0A343E42C6343E17
:1011C0009882353EB23F363E92FD363E37BC373EC2
:1011D000A37B383ED73B393ED2FC393E97BE3A3EE0
:1011E00026813B3E7F443C3EA4083D3E95CD3D3E9E
:1011F00053933E3EDF593F3E3B21403E66E9403E31
:1012000061B2413E2E7C423ECD46433E3F12443EBB
:1012100085DE443EA0AB453E9179463E5848473E68
:10122000F717483E6DE8483EBEB9493EE88B4A3E56
:10123000ED5E4B3ECE324C3E8C074D3E27DD4D3EA3
:10124000A1B34E3EFA8A4F3E3463503E4F3C513E6E
:101250004C16523E2CF1523EF1CC533E9AA9543ECC
:101260002987553E9F65563EFD44573E4325583ECF
:101270007306593E8EE8593E94CB5A3E87AF5B3E8B
:1012800068945C3E367A5D3EF5605E3EA3485F3E04
:101290004331603ED51A613E5B05623ED5F0623E49
:1012A00044DD633EAACA643E07B9653E5CA8663E5B
:1012B000AB98673EF489683E387C693E796F6A3E38
:1012C000B7636B3EF4586C3E304F6D3E6D466E3EDC
:1012D000AB3E6F3EEC37703E3132713E7A2D723E3E
:1012E000C929733E1F27743E7D25753EE424763E52
:1012F0005525773ED126783E5A29793EF02C7A3E04
:1013000094317B3E48377C3E0C3E7D3EE2457E3E3E
:10131000CB4E7F3E642C803EEDB1803E0238813E54
:10132000A1BE813ECE45823E87CD823ECD55833ED5
:10133000A1DE833E0468843EF6F1843E787C853EDF
:101340008A07863E2D93863E621F873E28AC873EE5
:101350008139883E6EC7883EEE55893E03E5893E59
:10136000AD748A3EEC048B3EC2958B3E2F278C3E9B
:1013700033B98C3ECF4B8D3E04DF8D3ED3728E3E13
:101380003B078F3E3E9C8F3EDC31903E16C8903E20
:10139000ED5E913E61F6913E728E923E2327933E22
:1013A00072C0933E605A943EF0F4943E2090953E75
:1013B000F22B963E66C8963E7D65973E3803983E72
:1013C00097A1983E9C40993E46E0993E96809A3E71
:1013D0008D219B3E2CC39B3E73659C3E64089D3EC5
:1013E000FEAB9D3E43509E3E32F59E3ECE9A9F3EC2
:1013F0001641A03E0BE8A03EAF8FA13E0138A23EB1
:1014000002E1A23EB38AA33E1635A43E29E0A43EE3
:10141000EF8BA53E6838A63E95E5A63E7693A73E9F
:101420000C42A83E58F1A83E5BA1A93E1552AA3E27
:101430008703AB3EB2B5AB3E9768AC3E361CAD3EC3
:1014400090D0AD3EA685AE3E793BAF3E09F2AF3EB1
:1014500057A9B03E6561B13E321AB23EBFD3B23E2B
:101460000E8EB33E1F49B43EF304B53E8BC1B53E6C
:10147000E77EB63E083DB73EF0FBB73E9EBBB83EAA
:10148000147CB93E533DBA3E5BFFBA3E2DC2BB3E13
:10149000CA85BC3E334ABD3E680FBE3E6BD5BE3EDC
:1014A0003C9CBF3EDC63C03E4D2CC13E8EF5C13E30
:1014B000A1BFC23E868AC33E3F56C43ECC22C53E33
:1014C0002EF0C53E66BEC63E758DC73E5B5DC83E0E
:1014D0001B2EC93EB3FFC93E26D2CA3E75A5CB3EE0
:1014E0009F79CC3EA74ECD3E8C24CE3E50FBCE3EC7
:1014F000F4D2CF3E79ABD03EDF84D13E285FD23EDE
:10150000543AD33E6516D43E5BF3D43E37D1D53E34
:10151000FAAFD63EA58FD73E3970D83EB851D93EE6
:101520002134DA3E7617DB3EB8FBDB3EE7E0DC3EFB
:1015300006C7DD3E14AEDE3E1396DF3E037FE03E7F
:10154000E768E13EBE53E23E893FE33E4B2CE43E7A
:10155000031AE53EB208E63E5BF8E63EFDE8E73EEC
:1015600099DAE83E32CDE93EC7C0EA3E5AB5EB3ED5
:10157000ECAAEC3E7DA1ED3E1099EE3EA491EF3E2B
:101580003B8BF03ED785F13E7781F23E1E7EF33EE7
:10159000CC7BF43E827AF53E417AF63E0B7BF73EF9
:1015A000E17CF83EC37FF93EB383FA3EB288FB3E4E
:1015B000C08EFC3EE095FD3E119EFE3E56A7FF3ECE
:1015C000D858003F8FDE003FD264013FA1EB013FBE
:1015D000FC72023FE4FA023F5983033F5D0C043F73
:1015E000F095043F1220053FC3AA053F0636063F8B
:1015F000D9C1063F3E4E073F35DB073FC068083F75
:10160000DDF6083F8F85093FD5140A3FB1A40A3F94
:1016100023350B3F2BC60B3FCA570C3F01EA0C3F4B
:10162000D07C0D3F38100E3F3AA40E3FD5380F3F07
:101630000CCE0F3FDE63103F4DFA103F5891113F23
:101640000029123F46C1123F2B5A133FAFF3133FFD
:10165000D48D143F9828153FFFC3153F0660163FF1
:10166000B1FC163FFF99173FF037183F86D6183F59
:10167000C275193FA3151A3F2BB61A3F5A571B3F85
:1016800031F91B3FB19B1C3FDA3E1D3FADE21D3FD0
:101690002A871E3F532C1F3F28D21F3FAA78203F86
:1016A000D91F213FB7C7213F4370223F7F19233FF6
:1016B0006BC3233F086E243F5819253F59C5253F6A
:1016C0000E72263F761F273F94CD273F667C283F2A
:1016D000EF2B293F2FDC293F268D2A3FD63E2B3F7B
:1016E0003FF12B3F62A42C3F3F582D3FD80C2E3F9B
:1016F0002DC22E3F3E782F3F0E2F303F9CE6303FCD
:10170000E99E313FF657323FC411333F54CC333F4B
:10171000A687343FBB43353F9400363F31BE363F4A
:10172000957C373FBE3B383FAFFB383F68BC393F05
:10173000EA7D3A3F35403B3F4A033C3F2BC73C3FA5
:10174000D88B3D3F52513E3F9A173F3FB0DE3F3F5F
:1017500095A6403F4B6F413FD238423F2B03433F5A
:1017600057CE433F569A443F2A67453FD334463FBE
:101770005303473FAAD2473FD8A2483FE073493FAF
:10178000C1454A3F7D184B3F15EC4B3F89C04C3F4C
:10179000DA954D3F0A6C4E3F19434F3F081B503FAF
:1017A000D7F3503F89CD513F1EA8523F9683533FF8
:1017B000F35F543F353D553F5E1B563F6EFA563F33
:1017C00067DA573F49BB583F169D593FCD7F5A3F77
:1017D00071635B3F02485C3F822D5D3FF0135E3FCB
:1017E0004EFB5E3F9EE35F3FDFCC603F13B7613F40
:1017F0003CA2623F598E633F6D7B643F7769653FD2
:101800007958663F7548673F6A39683F5B2B693F87
:10181000471E6A3F31126B3F19076C3F00FD6C3F5A
:10182000E7F36D3FCFEB6E3FBAE46F3FA8DE703F4A
:101830009AD9713F92D5723F90D2733F96D0743F40
:10184000A4CF753FBCCF763FDFD0773F0ED3783F34
:101850004AD6793F94DA7A3FEDDF7B3F57E67C3F0B
:10186000D2ED7D3F5FF67E3F0000803F5B85803F8D
:10187000410B813FB291813FAF18823F39A0823F37
:101880005028833FF5B0833F293A843FEBC3843F20
:101890003D4E853F1FD9853F9164863F95F0863F39
:1018A0002B7D873F530A883F0F98883F5D26893FED
:1018B00041B5893FB9448A3FC6D48A3F6A658B3FA8
:1018C000A4F68B3F76888C3FDF1A8D3FE1AD8D3FCC
:1018D0007D418E3FB2D58E3F816A8F3FECFF8F3FB7
:1018E000F295903F942C913FD3C3913FB05B923FD0
:1018F0002CF4923F468D933FFF26943F59C1943F6D
:10190000535C953FEFF7953F2D94963F0E31973FEF
:1019100092CE973FBB6C983F880B993FFAAA993FAC
:10192000134B9A3FD3EB9A3F3A8D9B3F492F9C3FF5
:1019300001D29C3F62759D3F6E199E3F25BE9E3F22
:1019400087639F3F9609A03F51B0A03FBA57A13F80
:10195000D2FFA13F99A8A23F0F52A33F37FCA33F5C
:101960000FA7A43F9952A53FD7FEA53FC7ABA63FFF
:101970006C59A73FC607A83FD5B6A83F9B66A93FAD
:101980001817AA3F4CC8AA3F3A7AAB3FE02CAC3FAD
:1019900041E0AC3F5D94AD3F3449AE3FC8FEAE3F41
:1019A00019B5AF3F286CB03FF623B13F83DCB13FA0
:1019B000D095B23FDE4FB33FAF0AB43F42C6B43F0B
:1019C0009882B53FB23FB63F92FDB63F37BCB73FB6
:1019D000A37BB83FD73BB93FD2FCB93F97BEBA3FD4
:1019E0002681BB3F7F44BC3FA408BD3F95CDBD3F92
:1019F0005393BE3FDF59BF3F3B21C03F66E9C03F25
:101A000061B2C13F2E7CC23FCD46C33F3F12C43FAF
:101A100085DEC43FA0ABC53F9179C63F5848C73F5C
:101A2000F717C83F6DE8C83FBEB9C93FE88BCA3F4A
:101A3000ED5ECB3FCE32CC3F8C07CD3F27DDCD3F97
:101A4000A1B3CE3FFA8ACF3F3463D03F4F3CD13F62
:101A50004C16D23F2CF1D23FF1CCD33F9AA9D43FC0
:101A60002987D53F9F65D63FFD44D73F4325D83FC3
:101A70007306D93F8EE8D93F94CBDA3F87AFDB3F7F
:101A80006894DC3F367ADD3FF560DE3FA348DF3FF8
:101A90004331E03FD51AE13F5B05E23FD5F0E23F3D
:101AA00044DDE33FAACAE43F07B9E53F5CA8E63F4F
:101AB000AB98E73FF489E83F387CE93F796FEA3F2C
:101AC000B763EB3FF458EC3F304FED3F6D46EE3FD0
:101AD000AB3EEF3FEC37F03F3132F13F7A2DF23F32
:101AE000C929F33F1F27F43F7D25F53FE424F63F46
:101AF0005525F73FD126F83F5A29F93FF02CFA3FF8
:101B00009431FB3F4837FC3F0C3EFD3FE245FE3F32
:101B1000CB4EFF3F642C0040EDB100400238014045
:101B2000A1BE0140CE45024087CD0240CD550340C5
:101B3000A1DE034004680440F6F10440787C0540CF
:101B40008A0706402D930640621F074028AC0740D5
:101B5000813908406EC70840EE55094003E5094049
:101B6000AD740A40EC040B40C2950B402F270C408B
:101B700033B90C40CF4B0D4004DF0D40D3720E4003
:101B80003B070F403E9C0F40DC31104016C8104010
:101B9000ED5E114061F61140728E12402327134012
:101BA00072C01340605A1440F0F414402090154065
:101BB000F22B164066C816407D6517403803184062
:101BC00097A118409C40194046E0194096801A4061
:101BD0008D211B402CC31B4073651C4064081D40B5
:101BE000FEAB1D4043501E4032F51E40CE9A1F40B2
:101BF000164120400BE82040AF8F214001382240A1
:101C000002E12240B38A23401635244029E02440D3
:101C1000EF8B25406838264095E52640769327408F
:101C20000C42284058F128405BA1294015522A4017
:101C300087032B40B2B52B4097682C40361C2D40B3
:101C400090D02D40A6852E40793B2F4009F22F40A1
:101C500057A9304065613140321A3240BFD332401B
:101C60000E8E33401F493440F30435408BC135405C
:101C7000E77E3640083D3740F0FB37409EBB38409A
:101C8000147C3940533D3A405BFF3A402DC23B4003
:101C9000CA853C40334A3D40680F3E406BD53E40CC
:101CA0003C9C3F40DC6340404D2C41408EF5414020
:101CB000A1BF4240868A43403F564440CC22454023
:101CC0002EF0454066BE4640758D47405B5D4840FE
:101CD0001B2E4940B3FF494026D24A4075A54B40D0
:101CE0009F794C40A74E4D408C244E4050FB4E40B7
:101CF000F4D24F4079AB5040DF845140285F5240CE
:101D0000543A5340651654405BF3544037D1554024
:101D1000FAAF5640A58F574039705840B8515940D6
:101D200021345A4076175B40B8FB5B40E7E05C40EB
:101D300006C75D4014AE5E4013965F40037F60406F
:101D4000E7686140BE536240893F63404B2C64406A
:101D5000031A6540B20866405BF86640FDE86740DC
:101D600099DA684032CD6940C7C06A405AB56B40C5
:101D7000ECAA6C407DA16D4010996E40A4916F401B
:101D80003B8B7040D7857140778172401E7E7340D7
:101D9000CC7B7440827A7540417A76400B7B7740E9
:101DA000E17C7840C37F7940B3837A40B2887B403E
:101DB000C08E7C40E0957D40119E7E4056A77F40BE
:101DC000D85880408FDE8040D2648140A1EB8140B2
:101DD000FC728240E4FA8240598383405D0C844067
:101DE000F095844012208540C3AA8540063686407F
:101DF000D9C186403E4E874035DB8740C068884069
:101E0000DDF688408F858940D5148A40B1A48A4088
:101E100023358B402BC68B40CA578C4001EA8C403F
:101E2000D07C8D4038108E403AA48E40D5388F40FB
:101E30000CCE8F40DE6390404DFA90405891914017
:101E40000029924046C192402B5A9340AFF39340F1
:101E5000D48D944098289540FFC3954006609640E5
:101E6000B1FC9640FF999740F037984086D698404D
:101E7000C2759940A3159A402BB69A405A579B4079
:101E800031F99B40B19B9C40DA3E9D40ADE29D40C4
:101E90002A879E40532C9F4028D29F40AA78A0407A
:101EA000D91FA140B7C7A1404370A2407F19A340EA
:101EB0006BC3A340086EA4405819A54059C5A5405E
:101EC0000E72A640761FA74094CDA740667CA8401E
:101ED000EF2BA9402FDCA940268DAA40D63EAB406F
:101EE0003FF1AB4062A4AC403F58AD40D80CAE408F
:101EF0002DC2AE403E78AF400E2FB0409CE6B040C1
:101F0000E99EB140F657B240C411B34054CCB3403F
:101F1000A687B440BB43B5409400B64031BEB6403E
:101F2000957CB740BE3BB840AFFBB84068BCB940F9
:101F3000EA7DBA403540BB404A03BC402BC7BC4099
:101F4000D88BBD405251BE409A17BF40B0DEBF4053
:101F500095A6C0404B6FC140D238C2402B03C3404E
:101F600057CEC340569AC4402A67C540D334C640B2
:101F70005303C740AAD2C740D8A2C840E073C940A3
:101F8000C145CA407D18CB4015ECCB4089C0CC4040
:101F9000DA95CD400A6CCE401943CF40081BD040A3
:101FA000D7F3D04089CDD1401EA8D2409683D340EC
:101FB000F35FD440353DD5405E1BD6406EFAD64027
:101FC00067DAD74049BBD840169DD940CD7FDA406B
:101FD0007163DB400248DC40822DDD40F013DE40BF
:101FE0004EFBDE409EE3DF40DFCCE04013B7E14034
:101FF0003CA2E240598EE3406D7BE4407769E540C6
:102000007958E6407548E7406A39E8405B2BE9407B
:10201000471EEA403112EB401907EC4000FDEC404E
:10202000E7F3ED40CFEBEE40BAE4EF40A8DEF0403E
:102030009AD9F14092D5F24090D2F34096D0F44034
:10204000A4CFF540BCCFF640DFD0F7400ED3F84028
:102050004AD6F94094DAFA40EDDFFB4057E6FC40FF
:10206000D2EDFD405FF6FE400000803F176F803FDD
:102070008FDE803F684E813FA1BE813F3C2F823F73
:1020800039A0823F9811833F5983833F7DF5833F79
:102090000468843FEFDA843F3D4E853FEFC1853FC2
:1020A0000636863F81AA863F621F873FA894873FF6
:1020B000530A883F6580883FDDF6883FBC6D893FC5
:1020C00003E5893FB15C8A3FC6D48A3F444D8B3FCC
:1020D0002BC68B3F7A3F8C3F33B98C3F55338D3FB6
:1020E000E1AD8D3FD8288E3F3AA48E3F06208F3F2A
:1020F0003E9C8F3FE218903FF295903F6E13913FC8
:102100005891913FAE0F923F728E923FA50D933F33
:10211000468D933F550D943FD48D943FC20E953F0D
:102120002090953FEE11963F2D94963FDD16973FF8
:10213000FF99973F921D983F97A1983F0F26993F8F
:10214000FAAA993F59309A3F2BB69A3F713C9B3F70
:102150002CC39B3F5C4A9C3F01D29C3F1C5A9D3F35
:10216000ADE29D3FB46B9E3F32F59E3F287F9F3F7F
:102170009609A03F7B94A03FD91FA13FB0ABA13FE0
:102180000138A23FCBC4A23F0F52A33FCEDFA33FF3
:10219000086EA43FBEFCA43FEF8BA53F9D1BA63F4E
:1021A000C7ABA63F6F3CA73F94CDA73F375FA83F83
:1021B00058F1A83FF883A93F1817AA3FB7AAAA3F2A
:1021C000D63EAB3F76D3AB3F9768AC3F39FEAC3FD2
:1021D0005D94AD3F032BAE3F2DC2AE3FD959AF3F0B
:1021E00009F2AF3FBD8AB03FF623B13FB3BDB13F67
:1021F000F657B23FBFF2B23F0E8EB33FE429B43F71
:1022000042C6B43F2763B53F9400B63F899EB63FB0
:10221000083DB73F11DCB73FA37BB83FC01BB93FB8
:1022200068BCB93F9B5DBA3F5BFFBA3FA6A1BB3F0D
:102230007F44BC3FE5E7BC3FD88BBD3F5A30BE3F33
:102240006BD5BE3F0B7BBF3F3B21C03FFBC7C03FB1
:102250004B6FC13F2D17C23FA1BFC23FA768C33F0D
:102260003F12C43F6BBCC43F2A67C53F7E12C63FC6
:1022700066BEC63FE36AC73FF717C83FA0C5C83F61
:10228000E073C93FB722CA3F26D2CA3F2E82CB3F56
:10229000CE32CC3F07E4CC3FDA95CD3F4848CE3F25
:1022A00050FBCE3FF4AECF3F3463D03F1018D13F48
:1022B00089CDD13FA083D23F543AD33FA8F1D33F39
:1022C0009AA9D43F2C62D53F5E1BD63F31D5D63F6D
:1022D000A58FD73FBB4AD83F7306D93FCFC2D93F5E
:1022E000CD7FDA3F703DDB3FB8FBDB3FA4BADC3F7C
:1022F000367ADD3F6F3ADE3F4EFBDE3FD5BCDF3F37
:10230000037FE03FDB41E13F5B05E23F85C9E23F00
:10231000598EE33FD853E43F031AE53FD9E0E53F48
:102320005CA8E63F8C70E73F6A39E83FF702E93F77
:1023300032CDE93F1C98EA3FB763EB3F0330EC3FF7
:1023400000FDEC3FAECAED3F1099EE3F2468EF3F31
:10235000EC37F03F6808F13F9AD9F13F81ABF23F8B
:102360001E7EF33F7251F43F7D25F53F40FAF53F65
:10237000BCCFF63FF2A5F73FE17CF83F8B54F93F25
:10238000F02CFA3F1006FB3FEDDFFB3F88BAFC3F25
:10239000E095FD3FF671FE3FCB4EFF3F301600400B
:1023A0005B850040E6F40040D26401401FD5014047
:1023B000CE450240DEB6024050280340259A034035
:1023C0005D0C0440F87E0440F6F104405865054079
:1023D0001FD905404A4D0640D9C10640CE360740B8
:1023E00028AC0740E82108400F9808409B0E0940A0
:1023F0008F850940EAFC0940AD740A40D7EC0A40D9
:102400006A650B4065DE0B40CA570C4098D10C4002
:10241000CF4B0D4071C60D407D410E40F3BC0E40C8
:10242000D5380F4023B50F40DC31104002AF1040CB
:10243000942C114093AA114000291240DAA71240AF
:1024400023271340D9A61340FF26144094A7144015
:10245000982815400DAA1540F22B164047AE16409D
:102460000E31174046B41740F03718400DBC1840E5
:102470009C4019409EC51940134B1A40FDD01A408C
:102480005A571B402CDE1B4073651C4030ED1C402E
:1024900062751D400BFE1D402A871E40C0101F4064
:1024A000CE9A1F405325204051B02040C73B2140C9
:1024B000B7C721401F54224002E122405F6E2340F3
:1024C00037FC2340898A244058192540A2A825407A
:1024D00068382640ACC826406C592740AAEA2740F5
:1024E000667C2840A10E29405BA1294094342A40F3
:1024F0004CC82A40855C2B403FF12B407A862C400B
:10250000361C2D4074B22D4034492E4078E02E40C8
:102510003E782F408910304057A93040AA423140C0
:1025200083DC3140E0763240C41133402EAD33407D
:102530001F49344098E53440988235402020364089
:1025400031BE3640CC5C3740F0FB37409E9B384074
:10255000D73B39409ADC3940EA7D3A40C51F3B40C1
:102560002DC23B4021653C40A4083D40B4AC3D40F9
:1025700052513E407FF63E403C9C3F4089424040A5
:1025800066E94040D3904140D238424063E1424046
:10259000868A43403C34444085DE4440628945405D
:1025A000D3344640D9E04640758D4740A63A48406E
:1025B0006DE84840CC964940C1454A404FF54A40F5
:1025C00075A54B4033564C408C074D407EB94D406D
:1025D0000A6C4E40311F4F40F4D24F405387504059
:1025E0004F3C5140E7F151401EA85240F25E53402B
:1025F0006516544077CE5440298755407B4056405D
:102600006EFA564003B5574039705840122C594065
:102610008EE85940AEA55A4071635B40DA215C40B8
:10262000E7E05C409BA05D40F5605E40F5215F40C7
:102630009EE35F40EEA56040E7686140892C624000
:10264000D5F06240CBB563406D7B6440B9416540D5
:10265000B208664058D06640AB986740AC616840AD
:102660005B2B6940B9F56940C7C06A40858C6B40F7
:10267000F4586C4014266D40E7F36D406CC26E4018
:10268000A4916F4090617040313271408603724076
:1026900092D5724053A87340CC7B7440FC4F754078
:1026A000E424764085FA7640DFD07740F4A778407E
:1026B000C37F79404D587A4094317B40970B7C40E2
:1026C00057E67C40D5C17D40119E7E400D7B7F400A
:1026D000642C8040A29B8040410B8140407B814024
:1026E000A1EB8140635C824087CD82400D3F8340F7
:1026F000F5B0834041238440F09584400209854031
:10270000787C854052F085409164864035D986407A
:102710003E4E8740ADC3874081398840BCAF88407A
:102720005D268940669D8940D5148A40AD8C8A40DB
:10273000EC048B40947D8B40A4F68B401E708C4043
:1027400001EA8C404D648D4004DF8D40255A8E4057
:10275000B2D58E40A9518F400CCE8F40DB4A9040BD
:1027600016C89040BE459140D3C391405642924016
:1027700046C19240A540934072C09340AE40944001
:1027800059C1944074429540FFC39540FA45964024
:1027900066C89640434B974092CE9740535298401C
:1027A00086D698402C5B994046E09940D2659A4085
:1027B000D3EB9A4048729B4031F99B4090809C40FB
:1027C00064089D40AE909D406E199E40A5A29E401B
:1027D000532C9F4079B69F401641A0402CCCA0407E
:1027E000BA57A140C2E3A1404370A2403EFDA240BF
:1027F000B38AA340A418A4400FA7A440F635A5406F
:1028000059C5A5403855A64095E5A6406E76A74027
:10281000C607A8409B99A840EF2BA940C2BEA9407B
:102820001552AA40E7E5AA403A7AAB400D0FAC40FA
:1028300062A4AC40383AAD4090D0AD406B67AE403A
:10284000C8FEAE40A996AF400E2FB040F7C7B040CB
:102850006561B14057FBB140D095B240CF30B34035
:1028600054CCB3406068B440F304B5400FA2B54007
:10287000B23FB640DFDDB640957CB740D41BB840D0
:102880009EBBB840F35BB940D2FCB9403E9EBA4013
:102890003540BB40B9E2BB40CA85BC406829BD4059
:1028A00095CDBD405072BE409A17BF4073BDBF402A
:1028B000DC63C040D60AC14061B2C1407D5AC2400B
:1028C0002B03C3406BACC3403F56C440A500C5407A
:1028D000A0ABC5402F57C6405303C7400CB0C740FC
:1028E0005B5DC840410BC940BEB9C940D168CA4010
:1028F0007D18CB40C2C8CB409F79CC40162BCD4031
:1029000027DDCD40D28FCE401943CF40FBF6CF40DC
:1029100079ABD0409460D1404C16D240A2CCD2408A
:102920009683D340293BD4405BF3D4402DACD540B3
:102930009F65D640B21FD74067DAD740BE95D840D2
:10294000B851D940540EDA4094CBDA407989DB4053
:102950000248DC403107DD4006C7DD408187DE40AC
:10296000A348DF406D0AE040DFCCE040FA8FE14051
:10297000BE53E2402C18E34044DDE34008A3E440AA
:102980007769E5409230E6405BF8E640D0C0E7402A
:10299000F489E840C653E940471EEA4078E9EA4036
:1029A0005AB5EB40EC81EC40304FED40261DEE4037
:1029B000CFEBEE402BBBEF403B8BF040005CF14097
:1029C0007A2DF240AAFFF24090D2F3402DA6F440B7
:1029D000827AF5408F4FF6405525F740D5FBF740FA
:1029E0000ED3F84003ABF940B383FA401F5DFB40C0
:1029F0004837FC402E12FD40D2EDFD4034CAFE4067
:102A000056A7FF409C420041EDB100419F2101418A
:102A1000B291014126020241FC72024133E40241BB
:102A2000CD550341C9C70341293A0441EBAC0441E8
:102A3000122005419C9305418A070641DD7B064132
:102A400095F00641B365074135DB07411E5108414A
:102A50006EC70841243E094141B50941C52C0A41D0
:102A6000B1A40A41051D0B41C2950B41E70E0C4173
:102A700076880C416E020D41D07C0D419CF70D41D2
:102A8000D3720E4174EE0E41816A0F41FAE60F4196
:102A9000DE6310412FE11041ED5E114118DD11415F
:102AA000B05B1241B7DA12412B5A13410EDA1341CF
:102AB000605A144122DB1441535C1541F5DD154188
:102AC0000660164189E216417D651741E3E817412A
:102AD000BB6C184105F11841C2751941F2FA194150
:102AE00096801A41AE061B413A8D1B413B141C4196
:102AF000B19B1C419C231D41FEAB1D41D6341E41A0
:102B000025BE1E41EB471F4128D21F41DE5C2041FC
:102B10000BE82041B2732141D2FF21416B8C22414D
:102B20007F1923410DA72341163524419AC324411F
:102B30009952254115E225410E7226418302274113
:102B400076932741E6242841D5B6284142492941B8
:102B50002FDC29419B6F2A4187032B41F3972B419F
:102B6000E02C2C414FC22C413F582D41B1EE2D415C
:102B7000A6852E411E1D2F4119B52F41984D30417C
:102B80009CE6304124803141321A3241C5B4324191
:102B9000DE4F33417EEB3341A68734415424354127
:102BA0008BC135414A5F364192FD3641639C3741C6
:102BB000BE3B3841A4DB3841147C3941101D3A41F9
:102BC00097BE3A41AA603B414A033C4178A63C414A
:102BD000334A3D417CEE3D4153933E41BA383F413B
:102BE000B0DE3F41368540414D2C4141F5D3414156
:102BF0002E7C4241F924434157CE43414878444119
:102C0000CC224541E4CD454191794641D225474109
:102C1000AAD24741178048411B2E4941B5DC4941A2
:102C2000E88B4A41B23B4B4115EC4B41119D4C4165
:102C3000A74E4D41D6004E41A1B34E4106674F41CC
:102C4000081B5041A5CF5041DF845141B73A524152
:102C50002CF1524140A85341F35F5441451855416E
:102C600037D15541C98A5641FD445741D2FF57419A
:102C700049BB58416377594121345A4182F15A4145
:102C800087AF5B41326E5C41822D5D4177ED5D41E6
:102C900014AE5E41586F5F4143316041D7F36041EC
:102CA00013B76141F97A6241893F6341C4046441C9
:102CB000AACA64413C9165417958664164206741E4
:102CC000FDE8674143B26841387C6941DD466A41AD
:102CD00031126B4136DE6B41ECAA6C4153786D4189
:102CE0006D466E4139156F41BAE46F41EEB47041E3
:102CF000D785714175577241C9297341D4FC73411D
:102D000096D074410FA57541417A76412D50774197
:102D1000D126784130FE78414AD6794120AF7A41B8
:102D2000B2887B4100637C410C3E7D41D6197E41D7
:102D30005FF67E41A7D37F41D85880413CC880418F
:102D40000238814128A88141AF1882419889824187
:102D5000E4FA8241916C8341A1DE834115518441A3
:102D6000EBC3844125378541C3AA8541C61E8641F0
:102D70002D938641F90787412B7D8741C2F2874118
:102D8000C068884123DF8841EE55894120CD8941C3
:102D9000B9448A41BABC8A4123358B41F4AD8B4199
:102DA0002F278C41D2A08C41DF1A8D4156958D4141
:102DB00038108E41848B8E413B078F415D838F415C
:102DC000ECFF8F41E67C90414DFA90412078914193
:102DD00061F691410F7592412CF49241B673934183
:102DE000AFF3934118749441F0F4944137769541D0
:102DF000EFF79541187A9641B1FC9641BC7F974117
:102E00003803984127879841880B99415C909941F4
:102E1000A3159A415E9B9A418D219B4131A89B410C
:102E2000492F9C41D6B69C41DA3E9D4153C79D41F6
:102E300043509E41A9D99E4187639F41DCED9F414C
:102E4000AA78A041F003A141AF8FA141E71BA241A5
:102E500099A8A241C535A3416BC3A3418D51A4419B
:102E600029E0A441426FA541D7FEA541E88EA641C5
:102E7000761FA74182B0A7410C42A84114D4A841B3
:102E80009B66A941A1F9A941268DAA412C21AB41FC
:102E9000B2B5AB41B94AAC4141E0AC414B76AD4132
:102EA000D80CAE41E7A3AE41793BAF418ED3AF41E1
:102EB000286CB0414605B141E99EB1411139B2419A
:102EC000BFD3B241F46EB341AF0AB441F1A6B441ED
:102ED000BB43B5410DE1B541E77EB6414A1DB7415F
:102EE00037BCB741AE5BB841AFFBB8413B9CB94181
:102EF000533DBA41F6DEBA412681BB41E223BC41D3
:102F00002BC7BC41036BBD41680FBE415CB4BE41E1
:102F1000DF59BF41F2FFBF4195A6C041C94DC14134
:102F20008EF5C141E49DC241CD46C34148F0C34145
:102F3000569AC441F844C5412EF0C541F89BC6419C
:102F40005848C7414DF5C741D8A2C841FA50C941B8
:102F5000B3FFC94104AFCA41ED5ECB416E0FCC4116
:102F600089C0CC413D72CD418C24CE4175D7CE4134
:102F7000FA8ACF411B3FD041D7F3D04131A9D1418B
:102F8000285FD241BD15D341F1CCD341C384D44194
:102F9000353DD54147F6D541FAAFD6414E6AD741C6
:102FA0004325D841DBE0D841169DD941F459DA4197
:102FB0007617DB419CD5DB416894DC41D953DD4178
:102FC000F013DE41AED4DE411396DF412058E041DC
:102FD000D51AE14134DEE1413CA2E241EE66E34133
:102FE0004B2CE44153F2E44107B9E5416780E641E7
:102FF0007548E7413011E84199DAE841B1A4E94167
:10300000796FEA41F13AEB411907EC41F2D3EC4117
:103010007DA1ED41BB6FEE41AB3EEF414F0EF04164
:10302000A8DEF041B5AFF1417781F241F053F341B1
:103030001F27F44106FBF441A4CFF541FBA4F64160
:103040000B7BF741D551F8415A29F9419901FA41D1
:1030500094DAFA414CB4FB41C08EFC41F269FD4167
:10306000E245FE419122FF410000000024002700BC
:103070002A0000000000250028002B0000000000AE
:1030800023002600290004040404040404040202AA
:1030900002020202030303030303010204081020D7
:1030A00040800102040810200102040810200000E2
:1030B00000070002010000030406000000000000F9
:1030C000000096187A1F11241FBECFEFD8E0DEBF94
:1030D000CDBF15E0A0E0B1E0EEE6F4E402C005905B
:1030E0000D92A231B107D9F715E0A2E1B5E001C018
:1030F0001D92AC3FB107E1F710E3C6ECD0E304C08A
:103100002297FE010E943122C23CD107C9F70E94DA
:10311000A71D0C9435220C940000109231051092DA
:1031200032051092330510923405089582E195E03E
:1031300063E070E04AE050E02FEF3FEF0E94141C84
:1031400008959B01AC0182E195E0B9010E940F1C3A
:1031500008951F920F920FB60F9211242F933F9351
:103160004F935F936F937F938F939F93AF93BF938F
:10317000EF93FF9390E080911E05882309F491E07E
:1031800090931E05992309F4CFC090E080911F050C
:10319000882309F491E090931F05992309F4C4C092
:1031A000209135053091360540913705509138050D
:1031B00080912D0590912E05A0912F05B09130059D
:1031C000280F391F4A1F5B1F20932D0530932E05B2
:1031D00040932F0550933005203080E0380780E081
:1031E000480780E4580764F0205030404040504485
:1031F00020932D0530932E0540932F0550933005D5
:1032000080912D0590912E05A0912F05B09130054C
:1032100024E1B595A795979587952A95D1F7805084
:103220009F4FFC016081772767FD7095872F972F4F
:1032300020913D0530913E0540913F05509140055C
:103240000E94C721F5E09595879577956795FA9542
:10325000D1F760507C4F8F4F9F4F209139053091AF
:103260003A0540913B0550913C05EAE0559547955C
:1032700037952795EA95D1F70E94C72160934105BC
:103280007093420580934305909344052091310546
:10329000309132054091330550913405260F371F88
:1032A000481F591F20933105309332054093330551
:1032B000509334052030F0E03F07F0E04F07F0E492
:1032C0005F0764F020503040404050442093310567
:1032D0003093320540933305509334058091310586
:1032E00090913205A0913305B091340524E1B59554
:1032F000A795979587952A95D1F780509F4FFC0108
:103300006081772767FD7095872F972F6093210540
:1033100070932205809323059093240560587F4F76
:103320008F4F9F4F0E94A1188091210590912205F7
:10333000A0912305B0912405181619061A061B063C
:103340001CF485E061E002C085E060E00E94B31CEF
:103350008091210590912205A0912305B09124052B
:10336000181619061A061B061CF486E061E002C056
:1033700086E060E00E94B31C809141059091420577
:10338000A0914305B0914405181619061A061B06AC
:103390001CF487E061E002C087E060E00E94B31C9B
:1033A0008091410590914205A0914305B09144055B
:1033B000181619061A061B061CF484E061E002C008
:1033C00084E060E00E94B31CFF91EF91BF91AF9148
:1033D0009F918F917F916F915F914F913F912F912D
:1033E0000F900FBE0F901F901895CF92DF92EF9223
:1033F000FF920F931F93DF93CF93CDB7DEB72C9738
:103400000FB6F894DEBF0FBECDBF1092200580E04E
:103410000E94071D40912505509126059C01241B03
:10342000350B37FF03C0309521953F4F25303105CF
:103430000CF4CA01909326058093250581E00E9433
:10344000071D40912705509128059C01241B350B31
:1034500037FF03C0309521953F4F253031050CF4DF
:10346000CA01909328058093270582E00E94071DDA
:103470004091290550912A059C01241B350B37FFEB
:1034800003C0309521953F4F253031050CF4CA011A
:1034900090932A058093290583E00E94071D6C0103
:1034A00020912B0530912C05821B930B97FF03C0B5
:1034B000909581959F4F05970CF46901D0922C054A
:1034C000C0922B05E0912505F0912605EE0FFF1F18
:1034D000EE0FFF1FE859FF4F85919591A591B4918B
:1034E00089839A83AB83BC8369817A818B819C8138
:1034F000E0912905F0912A05EE0FFF1FEE0FFF1F47
:10350000E859FF4D25913591459154912D833E8386
:103510004F8358872D813E814F8158850E946421B9
:1035200020E030E040E859E40E9464217B018C01F6
:1035300020E030E040E05FE30E947E200E94E22035
:103540006093390570933A0580933B0590933C0551
:10355000E0912705F0912805EE0FFF1FEE0FFF1FEA
:10356000E859FF4E85919591A591B49189879A87E5
:10357000AB87BC87C801B70129853A854B855C8537
:103580000E94642120E030E040E05FE30E947E2062
:103590000E94E220609335057093360580933705CD
:1035A00090933805C601AA2797FDA095BA2F80935E
:1035B0003D0590933E05A0933F05B09340052C96A2
:1035C0000FB6F894DEBF0FBECDBFCF91DF911F9134
:1035D0000F91FF90EF90DF90CF9008951F9381EDB2
:1035E00095E040E855E260E070E00E94461E82E00F
:1035F00060E00E94741C84E061E00E94741C84E01E
:1036000060E00E94B31C85E061E00E94741C85E0CC
:1036100060E00E94B31C86E061E00E94741C86E0BA
:1036200060E00E94B31C87E061E00E94741C87E0A8
:1036300060E00E94B31C15E0812F61E00E94741CC1
:10364000812F60E00E94B31C1F5F1D30A9F780E04E
:103650006DE878E143E050E00E94291D8091B000C0
:103660008F7B8093B0008091B00080688093B00021
:103670008091B00081608093B0008091B000826042
:103680008093B0008091B100877F8093B1008091DA
:10369000B10081608093B1008091B1008D7F8093F3
:1036A000B1008091B1008B7F8093B100239A80910B
:1036B0006E008E7F80936E00809170008160809399
:1036C000700082E195E061E00E948A1B82E195E052
:1036D00061E070E00E94901B82E195E061E00E9451
:1036E0008D1B1F9108958AE061E00E94B31C8AE05F
:1036F00061E00E94741C8CB580618CBD8CB58064C7
:103700008CBD8DE061E00E94741C8BE061E00E9442
:10371000741C0895FC0166830895FC016087089578
:10372000FC016130710519F4178281E0089562305F
:10373000710511F080E0089581E087830895FF927C
:103740000F931F93CF93DF938C01EB01F42EDC01D9
:1037500014968D919C9115978C30910511F4DF7022
:1037600008C08A30910511F4D37003C0089709F49A
:10377000D070F8018085882311F02A9805C0D801FF
:103780008C9160E00E94B31CD8011696EC911697BC
:1037900017968C91882319F040E050E002C040E079
:1037A00050E28CE090E0D80114962D913C91159751
:1037B000821B930BBE0102C0660F771F8A95E2F74A
:1037C00070613F2D37953327379520E09E2F9295D6
:1037D000990F990F907C80E0282B392B242B352BC7
:1037E000622B732B7EBD00000DB407FEFDCF8EB59E
:1037F0006EBD00000DB407FEFDCF8EB5F8018085CB
:10380000882311F02A9A05C0D8018C9161E00E94AA
:10381000B31CDF91CF911F910F91FF90089540E06D
:1038200050E00E949F1B0895CF93DF93EC011E820E
:103830001F82188684E090E09A87898781E08B87D1
:10384000598348833B832A8363307105E1F06430F8
:1038500071053CF46130710571F062307105B1F4AD
:103860000DC06530710551F06530710524F066308A
:10387000710561F408C088E090E002C08AE090E041
:103880009D838C8305C08CE090E0FACF1D821C8262
:10389000888161E00E94741C8A8161E00E94741C2E
:1038A000888161E00E94B31C8A8161E00E94B31CA0
:1038B0000E94731B8CB58F7D8CBD8CB5837F8CBDB6
:1038C00089852CB5382F33702C7F322B3CBD2DB51C
:1038D00090E0959587959595879581702E7F822BA1
:1038E0008DBDDF91CF910895CF93DF93482F50E0A6
:1038F000CA0186569F4CFC0134914A575F4CFA012D
:103900008491882369F190E0880F991FFC01E859A0
:10391000FF4CA591B491FC01EE58FF4CC591D49198
:10392000662351F42FB7F8948C91932F90958923A7
:103930008C93888189230BC0623061F42FB7F8948F
:103940008C91932F909589238C938881832B8883E6
:103950002FBF06C09FB7F8948C91832B8C939FBF89
:10396000DF91CF910895482F50E0CA0182559F4CB6
:10397000FC012491CA0186569F4CFC0194914A5740
:103980005F4CFA013491332309F440C0222351F1F2
:10399000233071F0243028F42130A1F0223011F5C9
:1039A00014C02630B1F02730C1F02430D9F404C05F
:1039B000809180008F7703C0809180008F7D8093FD
:1039C000800010C084B58F7702C084B58F7D84BD20
:1039D00009C08091B0008F7703C08091B0008F7DC7
:1039E0008093B000E32FF0E0EE0FFF1FEE58FF4C86
:1039F000A591B4912FB7F894662321F48C919095FA
:103A0000892302C08C91892B8C932FBF0895982F06
:103A10008E3008F09E509770809101058295880F36
:103A2000880F807C892B80937C0080917A00806451
:103A300080937A0080917A0086FDFCCF20917800F7
:103A400040917900942F80E030E0282B392BC90178
:103A50000895823000F5E82FF0E0EE0FFF1FEB5BDA
:103A6000FA4F71836083882319F08130A1F408C074
:103A7000809169008C7F842B80936900E89A089577
:103A800080916900440F551F440F551F837F842B7D
:103A900080936900E99A08951F920F920FB60F92D2
:103AA00011242F933F934F935F936F937F938F9343
:103AB0009F93AF93BF93EF93FF93809145059091B0
:103AC0004605892B29F0E0914505F09146050995B9
:103AD000FF91EF91BF91AF919F918F917F916F91E6
:103AE0005F914F913F912F910F900FBE0F901F90BC
:103AF00018951F920F920FB60F9211242F933F9398
:103B00004F935F936F937F938F939F93AF93BF93E5
:103B1000EF93FF938091470590914805892B29F0F9
:103B2000E0914705F09148050995FF91EF91BF910C
:103B3000AF919F918F917F916F915F914F913F9145
:103B40002F910F900FBE0F901F9018950895CF934F
:103B5000DF930E9418200E94A61D0E94EE1AC4EF57
:103B6000DDE10E94F5192097E1F30E94F41DF9CFE1
:103B700008951F920F920FB60F9211242F933F9327
:103B80004F938F939F93EF93FF938091C00082FD9B
:103B90001DC04091C6002091890530918A052F5F94
:103BA0003F4F2F73307080918B0590918C052817B3
:103BB000390771F0E0918905F0918A05E75BFA4FCA
:103BC000408330938A052093890502C08091C60006
:103BD000FF91EF919F918F914F913F912F910F9076
:103BE0000FBE0F901F901895E091DD05F091DE0556
:103BF000E05CFF4F8191919120813181805C9F4FEA
:103C0000821B930B60E470E00E94E621892B11F087
:103C10000E94B81D08951F920F920FB60F921124A3
:103C20002F933F938F939F93EF93FF932091CD0515
:103C30003091CE058091CF059091D0052817390796
:103C400031F48091C1008F7D8093C10014C0E09158
:103C5000CF05F091D005E357FA4F20818091CF0531
:103C60009091D00501968F7390709093D0058093BA
:103C7000CF052093C600FF91EF919F918F913F91C7
:103C80002F910F900FBE0F901F901895AF92BF927B
:103C9000DF92EF92FF920F931F93CF93DF93EC018C
:103CA0007A018B01DD24403081EE580780E06807FF
:103CB00080E0780711F0DD24D39491E0A92EB12C97
:103CC000EC89FD89DD2069F0C50108A002C0880FDC
:103CD000991F0A94E2F7808360E079E08DE390E039
:103CE00005C0108260E874E88EE190E0A8019701B9
:103CF0000E94F92121503040404050405695479550
:103D00003795279580E12030380720F0DD2011F02D
:103D1000DD24D6CFE889F9893083EA89FB892083BD
:103D200019A2EE89FF89408121E030E0C9010C8CA5
:103D300002C0880F991F0A94E2F7482B4083EE894E
:103D4000FF894081C9010D8C02C0880F991F0A9418
:103D5000E2F7482B4083EE89FF894081C9010E8C30
:103D600002C0880F991F0A94E2F7482B4083EE891E
:103D7000FF8980810F8C02C0220F331F0A94E2F763
:103D8000209528232083DF91CF911F910F91FF90E1
:103D9000EF90DF90BF90AF900895DC011C96ED91FD
:103DA000FC911D97E05CFF4F8191919120813181C1
:103DB000805C9F4F821B930B60E470E00E94E621C1
:103DC0000895DC011C96ED91FC911D97E05CFF4F7E
:103DD00020813181E054F040DF01AE5BBF4F8D9117
:103DE0009C9111972817390719F42FEF3FEF07C05F
:103DF0008D919C91E80FF91F8081282F30E0C90137
:103E00000895DC011C96ED91FC911D97E05CFF4F3D
:103E100020813181E054F040DF01AE5BBF4F8D91D6
:103E20009C9111972817390719F42FEF3FEF10C015
:103E30008D919C911197E80FF91F20818D919C9194
:103E4000119701968F73907011969C938E9330E02A
:103E5000C9010895DC0191968C919197882339F0DE
:103E60005496ED91FC915597808186FFF9CF9196FC
:103E70001C920895CF93DF93EC01EE85FF85E05C03
:103E8000FF4F20813181E054F0402F5F3F4F2F736F
:103E90003070DF01AE5BBF4F8D919C911197281759
:103EA0003907D1F3E05CFF4F80819181E054F0400D
:103EB000E80FF91F6083EE85FF85E05CFF4F3183DB
:103EC0002083EE89FF89208181E090E00F8C02C081
:103ED000880F991F0A94E2F7282B208381E089A399
:103EE000EC89FD8980818064808381E090E0DF91AE
:103EF000CF9108951092D4051092D30588EE93E0E7
:103F0000A0E0B0E08093D5059093D605A093D705A7
:103F1000B093D80586E095E09093D2058093D105C3
:103F200089E495E09093DE058093DD058DE895E0CA
:103F30009093E0058093DF0585EC90E09093E20597
:103F40008093E10584EC90E09093E4058093E30591
:103F500080EC90E09093E6058093E50581EC90E09D
:103F60009093E8058093E70582EC90E09093EA0552
:103F70008093E90586EC90E09093EC058093EB0547
:103F800084E08093ED0583E08093EE0587E08093E5
:103F9000EF0585E08093F00581E08093F1050895B9
:103FA0001F920F920FB60F9211242F933F938F936E
:103FB0009F93AF93BF938091F7059091F805A091DF
:103FC000F905B091FA053091FB050196A11DB11DCF
:103FD000232F2D5F2D3720F02D570196A11DB11DE8
:103FE0002093FB058093F7059093F805A093F905BE
:103FF000B093FA058091F3059091F405A091F50531
:10400000B091F6050196A11DB11D8093F305909323
:10401000F405A093F505B093F605BF91AF919F917C
:104020008F913F912F910F900FBE0F901F90189579
:10403000789484B5826084BD84B5816084BD85B583
:10404000826085BD85B5816085BDEEE6F0E080814A
:1040500081608083E1E8F0E010828081826080836B
:10406000808181608083E0E8F0E0808181608083EE
:10407000E1EBF0E0808184608083E0EBF0E0808120
:1040800081608083EAE7F0E08081846080838081C2
:10409000826080838081816080838081806880836A
:1040A0001092C1000895CF92DF92EF92FF920F938A
:1040B0001F93CF93DF937C016B018A01C0E0D0E0B6
:1040C0000FC0D6016D916D01D701ED91FC9101906A
:1040D000F081E02DC7010995C80FD91F015010408C
:1040E0000115110571F7CE01DF91CF911F910F914D
:1040F000FF90EF90DF90CF9008955058BB27AA27EC
:104100000ED0A8C099D030F09ED020F031F49F3F5F
:1041100011F41EF48EC00EF4E095E7FB84C0E92F85
:10412000AAD080F3BA17620773078407950718F0BF
:1041300071F49EF5C2C00EF4E0950B2EBA2FA02D9F
:104140000B01B90190010C01CA01A0011124FF2744
:10415000591B99F0593F50F4503E68F11A16F0403F
:10416000A22F232F342F4427585FF3CF469537953E
:104170002795A795F0405395C9F77EF41F16BA0B03
:10418000620B730B840BBAF09150A1F0FF0FBB1FB1
:10419000661F771F881FC2F70EC0BA0F621F731FFA
:1041A000841F48F4879577956795B795F7959E3F57
:1041B00008F0B3CF9395880F08F09927EE0F9795E5
:1041C0008795089504D06894B11178C008955BD0A4
:1041D00088F09F5790F0B92F9927B751A0F0D1F0F0
:1041E000660F771F881F991F1AF0BA95C9F712C07A
:1041F000B13081F062D0B1E008955FC0672F782FB1
:104200008827B85F39F0B93FCCF3869577956795E5
:10421000B395D9F73EF490958095709561957F4F51
:104220008F4F9F4F089597F99F6780E870E060E097
:1042300008959FEF80EC089500240A94161617063F
:1042400018060906089500240A9412161306140687
:1042500005060895092E0394000C11F4882352F0EA
:10426000BB0F40F4BF2B11F460FF04C06F5F7F4FA2
:104270008F4F9F4F089557FD9058440F551F59F089
:104280005F3F71F04795880F97FB991F61F09F3F43
:1042900079F087950895121613061406551FF2CF6C
:1042A0004695F1DF08C0161617061806991FF1CFBC
:1042B00086957105610508940895E894BB276627E3
:1042C0007727CB0197F908950BD0C4CFB5DF28F03D
:1042D000BADF18F0952309F0A6CFABCF1124EECFAB
:1042E000CADFA0F3959FD1F3950F50E0551F629F51
:1042F000F001729FBB27F00DB11D639FAA27F00D3F
:10430000B11DAA1F649F6627B00DA11D661F829F65
:104310002227B00DA11D621F739FB00DA11D621F4A
:10432000839FA00D611D221F749F3327A00D611D67
:10433000231F849F600D211D822F762F6A2F112449
:104340009F5750408AF0E1F088234AF0EE0FFF1F9C
:10435000BB1F661F771F881F91505040A9F79E3FD3
:10436000510570F060CFAACF5F3FECF3983EDCF3CD
:10437000869577956795B795F795E7959F5FC1F710
:10438000FE2B880F911D9695879597F90895629F4A
:10439000D001739FF001829FE00DF11D649FE00D3D
:1043A000F11D929FF00D839FF00D749FF00D659F9E
:1043B000F00D9927729FB00DE11DF91F639FB00D9D
:1043C000E11DF91FBD01CF011124089597FB092EAE
:1043D00007260AD077FD04D02ED006D000201AF48C
:1043E000709561957F4F0895F6F7909581959F4F51
:1043F0000895A1E21A2EAA1BBB1BFD010DC0AA1F26
:10440000BB1FEE1FFF1FA217B307E407F50720F03D
:10441000A21BB30BE40BF50B661F771F881F991FB8
:104420001A9469F760957095809590959B01AC0101
:10443000BD01CF010895AA1BBB1B51E107C0AA1FF4
:10444000BB1FA617B70710F0A61BB70B881F991F35
:104450005A95A9F780959095BC01CD010895EE0F6E
:0E446000FF1F0590F491E02D0994F894FFCF12
:10446E00000102020304050506070809090A0B0CE0
:10447E000C0D0E0F1010111213131415161617180B
:10448E00191A1A1B1C1D1D1E1F2020212223232436
:10449E00252626272829292A2B2C2C2D2E2E2F3067
:1044AE00313132333334353636373838393A3A3BA0
:1044BE003C3D3D3E3F3F40414142434344454546DE
:1044CE0047474848494A4A4B4C4C4D4E4E4F4F5029
:1044DE00515152525354545555565657585859597E
:1044EE005A5A5B5B5C5D5D5E5E5F5F6060616162E0
:1044FE006263636464656566666667676868696952
:10450E006A6A6A6B6B6C6C6D6D6D6E6E6F6F6F70D1
:10451E007070717171727272737373747474757565
:10452E007576767676777777787878787979797907
:10453E007A7A7A7A7A7B7B7B7B7B7C7C7C7C7C7CBC
:10454E007D7D7D7D7D7D7D7E7E7E7E7E7E7E7E7E84
:10455E007E7E7F7F7F7F7F7F7F7F7F7F7F7F7F7F5F
:10456E007F7F7F7F7F7F7F7F7F7F7F7F7F7F7F7E4E
:10457E007E7E7E7E7E7E7E7E7E7E7D7D7D7D7D7D53
:10458E007D7C7C7C7C7C7C7B7B7B7B7B7A7A7A7A69
:10459E007A79797979787878787777777676767692
:1045AE0075757574747473737372727271717170D0
:1045BE0070706F6F6F6E6E6D6D6D6C6C6B6B6A6A1B
:1045CE006A69696868676766666665656464636379
:1045DE006262616160605F5F5E5E5D5D5C5B5B5AE7
:1045EE005A59595858575656555554545352525164
:1045FE0051504F4F4E4E4D4C4C4B4A4A49484847EE
:10460E0047464545444343424141403F3F3E3D3D81
:10461E003C3B3A3A39383837363635343333323123
:10462E0031302F2E2E2D2C2C2B2A292928272626C9
:10463E0025242323222120201F1E1D1D1C1B1A1A78
:10464E00191817161615141313121110100F0E0D2C
:10465E000C0C0B0A090908070605050403020201E2
:10466E000000FFFFFEFDFCFCFBFAF9F8F8F7F6F58B
:10467E00F5F4F3F2F1F1F0EFEEEEEDECEBEBEAE93F
:10468E00E8E7E7E6E5E4E4E3E2E1E1E0DFDEDEDDF4
:10469E00DCDBDBDAD9D8D8D7D6D5D5D4D3D3D2D1A3
:1046AE00D0D0CFCECECDCCCBCBCAC9C9C8C7C7C64A
:1046BE00C5C4C4C3C2C2C1C0C0BFBEBEBDBCBCBBEC
:1046CE00BABAB9B9B8B7B7B6B5B5B4B3B3B2B2B181
:1046DE00B0B0AFAFAEADADACACABABAAA9A9A8A80C
:1046EE00A7A7A6A6A5A4A4A3A3A2A2A1A1A0A09F8A
:1046FE009F9E9E9D9D9C9C9B9B9B9A9A99999898F8
:10470E009797979696959594949493939292929157
:10471E0091919090908F8F8F8E8E8E8D8D8D8C8CA3
:10472E008C8B8B8B8B8A8A8A8989898988888888E1
:10473E00878787878786868686868585858585850C
:10474E008484848484848483838383838383838324
:10475E008383828282828282828282828282828229
:10476E00828282828282828282828282828282831A
:10477E0083838383838383838383848484848484F5
:10478E0084858585858585868686868687878787BF
:10479E008788888888898989898A8A8A8B8B8B8B76
:1047AE008C8C8C8D8D8D8E8E8E8F8F8F9090909118
:1047BE0091919292929393949494959596969797AD
:1047CE0097989899999A9A9B9B9B9C9C9D9D9E9E2F
:1047DE009F9FA0A0A1A1A2A2A3A3A4A4A5A6A6A7A1
:1047EE00A7A8A8A9A9AAABABACACADADAEAFAFB004
:1047FE00B0B1B2B2B3B3B4B5B5B6B7B7B8B9B9BA5A
:10480E00BABBBCBCBDBEBEBFC0C0C1C2C2C3C4C4A5
:10481E00C5C6C7C7C8C9C9CACBCBCCCDCECECFD0E3
:10482E00D0D1D2D3D3D4D5D5D6D7D8D8D9DADBDB1D
:10483E00DCDDDEDEDFE0E1E1E2E3E4E4E5E6E7E74E
:10484E00E8E9EAEBEBECEDEEEEEFF0F1F1F2F3F47A
:10485E00F5F5F6F7F8F8F9FAFBFCFCFDFEFFFF00A4
:10486E000001000000003A1F5320CD1E011FE11E63
:02487E002A1FEF
:00000001FF
