:100000000C94A8290C940D2F0C943A2F0C94D02901
:100010000C94D0290C94D0290C94D0290C94D0297C
:100020000C94D0290C94D0290C94D0290C94D0296C
:100030000C94D0290C94D0290C94D0290C94D0295C
:100040000C94412E0C94D0290C94D0290C94D029D6
:100050000C94D0290C94D0290C94D0290C94D0293C
:100060000C94D0290C94D02981807674706E6C73B6
:10007000858586888C8E90909192918FA7CBB89B26
:100080008879685F5651504E5459626D6D93C9C45A
:10009000B9B7AFA6928073685E5856575A555559EE
:1000A000626B7983919CA8B4B6BCEFFDF6F7D7B02C
:1000B0009075573D2B1E130C0C131E293444597395
:1000C000889BA8B9C7D0DBE0E4DFEFFBE4C5AE96C0
:1000D0007C624C3B2B232039544941414C52606D8A
:1000E0007D8A98A5B1BAC0BED9EAD9C7B6A38D7327
:1000F0005F4C3F372F31353C3E495565758798A891
:10010000B5C2CACDD8F7EEE9E1BF9D836A503C295C
:1001100020151519212C3845556A7E92A0ADBBC516
:10012000CED2D5D4D0DCDDC4AB9984705E4E4037DE
:1001300033354D59544F555D66717D88929DA4AEFF
:10014000B1B4B4C5CBBEAE9F92806E60544B4742F3
:10015000464A4F535B6772808A98A4ACB4BABBC955
:10016000D9CCCAC1A48F7D69594A3F373432373E52
:10017000475058677684919AA5ADB5BABCBEBBB955
:10018000C5C0AB9C8E8071645A514A494F5E675E10
:100190005E63696F78808790969CA2A5A4A8B3B689
:1001A000AA9F958C7E71685F595655565A5F616853
:1001B0007078828A939CA1A6ABACBAC0B5B8AB9656
:1001C000897C6D61584F4B49484C535760666F7D31
:1001D000848E959BA3A6ABACAEAAACB4AC9D948820
:1001E00080746B645C5A595F6B6D67676B70757B6D
:1001F00080878C9196999C9B9FA9A79F9591877DBD
:10020000756D676460626166686A70757C838990E9
:10021000959A9EA0A3B0ADA8AA9D8D867A716860BC
:100220005B5856585B5E64696E767F858C90969AB3
:100230009FA2A1A3A1A2A89F968D867E776F6E6BC9
:100240006969707475717175777A7E8185888C8D16
:10025000919191959A98938E8A837E7875706F6D3F
:100260006D6F707273777A8082888A8F9193959A76
:100270009F9C9A9B8F89837B76716B6868666769A0
:100280006D6E73767B8085888B9091959597979509
:100290009999948D8A837E7A76716F6D7073787573
:1002A000737577797C7E8284878A8C8E8F8F929605
:1002B000958F8B89817F787773726F727173757682
:1002C000797C808387898D8F909398999697958D67
:1002D00086827C76726F6C6A6B6B6D717176787EDC
:1002E000808588898E9092929494929596908C872E
:1002F000827E7B76747071747779757775797A7D83
:1003000080818487898A8C8D8E9193928C8A868154
:100310007D7B7675747274747577787B7E80838646
:10032000898B8E8D9396959495908A85807B787332
:10033000716F6D6F6E707474787A7F808686898D28
:100340008E909191919193938E8986807F7A787423
:100350007472777A77787778797B7E7F82848689E2
:10036000898B8C8D90918F8B8984817D7B7876753C
:100370007475767777797D7E818287888B8B8E9274
:10038000959093938C8884807B787472716F717070
:10039000737576797C80828586898B8E8E908F8F1F
:1003A00090938F8D8785817D7B78767377787A7946
:1003B0007878797A7C7E8081848589898B8A8D8F13
:1003C000908D8A8784807D7C787776767678787948
:1003D0007A7E7E808486888A8B8D92928F91918A94
:1003E00087837F7C777673717272727576787A7E86
:1003F00080828586898B8D8D8E8F8D90908E8B8659
:1004000084807E7B787676777A7B7879797A7A7E43
:100410007E80828486878A898B8C8E8F8B8A868366
:10042000807E7A7A7777777877797A7B7E7F828415
:100430008688898A8F918F908F908886827E7B793B
:100440007574737274747579787C7E808384868900
:100450008A8C8D8C8F8C8F908C8A8683807E7B7922
:1004600076777A7B797A797A7A7C7D8080838486C4
:100470008889898A8B8F8D8B888681807C7C78792E
:10048000787778797A7B7C7F8081858588898A8E68
:10049000918E8E908C8885827D7C7876747573744D
:1004A0007677797A7C7F81828586898A8B8D8C8D1F
:1004B0008C8F8E8B8885837F7E7B7977777C7A7B28
:1004C000797A7A7B7C7E80808385868789898A8C0D
:1004D0008D8D898984817F7D7C7979787879797B24
:1004E0007B7D7F8082848688888B8F8F8D8D8F8A9D
:1004F0008883817D7B7976767475757679797B7D55
:100500008081838487888A8C8C8B8D8C8E8D8A8861
:1005100084817F7E7A7978797C7B7A7A7A7A7C7B1F
:10052000807F818286858889888B8A8F8B89878462
:10053000817E7E7A7A797979797B7A7C7E7E8082F7
:10054000848786898A908E8B8E8E898683807D7A39
:100550007A767576747678787A7C7E8082828586E3
:1005600089898B8C8B8A8D8D8C898784817E7E7A1C
:100570007A777B7C7B7A7A7A7B7C7C7F80818385AF
:1005800086878989898C8D8B88868380807C7B7A1D
:1005900079787A797B7B7C7E7F8282848786898C5E
:1005A0008E8D8C8D8D8786837F7D7A797676767633
:1005B0007679797A7D7E8180848586898A8A8B8B1B
:1005C0008A8D8C8B8A8583807F7D7B787A7B7D7911
:1005D0007C7A797C7C7D8080838286868888888B03
:1005E0008B8D89888681817E7C7C797A797A7A7B09
:1005F0007C7C7F808183858688898D8E8C8B8C8C9A
:100600008685827E7D7A787777757876797A7B7D34
:1006100080808383858789888B8A8B8B8B8D8A8862
:100620008582807F7C7B797A7E7A7B7B7B7A7B7DFF
:100630007E7F81818486858889888A8D8B8987845D
:1006400083807E7D7B7A7A797A7B7B7C7D7F8080DC
:1006500084858687898D8D8C8A8C8A8783827E7D2E
:10066000797A7678767779797C7B7E7F81828385CB
:1006700088878A8A8A8A8B8C8B8A878582807E7D0E
:100680007A797C7D7B7B7B7B7B7B7D7F7F8182849A
:100690008586888789888C8988858481807E7D7C11
:1006A0007B7C7C7C7D7D7E7E808080828282838359
:1006B0008483828282828180807F7F7F7F7F7F7F31
:1006C0007F7F7F7F7F7F8080808585892529CADF26
:1006D000734071D793233195D05D2B8095529DCF78
:1006E000A55A37224B9CC29160CBE0EBCF94271FD9
:1006F000C7D72D323965CBAEA5AE9EBCFAE9EAF17B
:10070000F0B93D0B0D112116248AADCCEB9CC2979C
:100710006E463D6076917C795456B2A0464CB5F455
:10072000EB8A4174B4AF4C1D1913161544A0BACA14
:10073000EECE90A0F6E5E4925765548C985A0E19C7
:10074000363A415F8ECCE2CBAEA8BCBDBBAE76479D
:100750004688A174362648688686A9C4ADA5A8AB8C
:100760009A604A6698863A3F6D807A89A9AA9E80E7
:1007700086BAE5CA8C8399A99567625F474B5E6428
:1007800078A4B6A586573C3B5167765C526A80A533
:10079000ADADB5B1A0A29F9DA695745E4A23253B41
:1007A000598F8787805A595E7597A8A2939387922D
:1007B000B9C5A399856F6F7B98A6835B54666A7CE5
:1007C00093A390727B8D9EA9A88974735755709BD3
:1007D000A397897B7F7F999B857382796A64607216
:1007E00074664F495B86AAA1B8BC807880899093D3
:1007F0007C7383765D5D7284725F607BB8CAC1AEC4
:100800007877856A565875968871707F9CABCABA9E
:10081000988B78849BB7986B665744484E4F7D9170
:100820007A7486A8A3878D9A947378756483856E8D
:10083000636F6F768E99908087A9988891827E8168
:1008400069587382827F74697B90A5A98C8EA0A859
:1008500087685E6A7F665F72766F92A6867B778511
:1008600096908988858790795A74767A8A93888653
:10087000909892948069727B605682959C8D6F6788
:100880006C8497998795ABA088819EA59B7D6A5DB6
:1008900057778B7A564586B383707A7B7A6E7680EB
:1008A0007E6878977B61839DAC8B7082908C8794F7
:1008B00094847CA1A5987956656E6D5D5A84928C5E
:1008C000837D788C99A6A2AB9B817F7C7F6C6360D3
:1008D0006F82817E89848083938A808B98977484C9
:1008E0008869718082708086858488837F7E8C8011
:1008F000737A76746D737D857875837C7E8D898D32
:1009000085888A8A92928C758394867D6E69696CDB
:100910007B9290849A957E7C7B8B8C796878747AB4
:1009200099938F7F738F98937F7A99968B87795F4E
:100930006D6D7B7D6B818D8485848A8A8083887FC1
:10094000828E82677A8F8580828A9387807F837088
:100950007B727A8D8C8C85918D76808D77727A8082
:100960007D7370839594816C6C93907776806D6BBA
:10097000747C8C7F7F8588817C8E928590847E7B41
:100980008C919084777E7894988478887C6F808D21
:1009900085787B6E809D8681788D967A7C80989410
:1009A0007D79847D6C7A99897C7D7C857B7D7F884F
:1009B0007D717F8278748B8086968278808C768039
:1009C00091807B7675868872809A94897279938DEE
:1009D00082816C6D7F82807785818280848186941C
:1009E000967A627A81818A7885817979847C6E7F32
:1009F00088958D7B8192919788756C777D93917F97
:100A00007D6E647884858B8A8B94848F9D8A797FB0
:100A10007A6D7A73717C7C7680999981929A97929B
:100A2000877D8684805B65776A73728A8F8680860D
:100A3000948A918C90807674657A75737F84807CBB
:100A400091918A8987958A7080896E668488867676
:100A500073898D798297957F727C878C817A807B70
:100A6000797A7474869F988C8274738D90848B7657
:100A70007A867A86897376787986878783848A826C
:100A8000838C84868289857976757A878079857961
:100A900072809184808B898E7F7C8D846E707C8740
:100AA0007D8985918D817E7B7A888374827F918B0D
:100AB0006E7D7C78817D828280847D908479868A37
:100AC0008A7D7E86858C8A887A75838F7A707B8012
:100AD0008980848C877F7C7A69738D7C80877F7422
:100AE00088948D937E7789938F817B7B81827A72C4
:100AF0008080757D868388868B95897372818887CF
:100B0000847F80847D767D778594888784818C83BB
:100B1000858080736975808F7D8B9786818F8781B3
:100B2000817E827D8071747F776E748087838793E6
:100B30008D8986877C7A8A8A7E67729283728286A2
:100B40007E819195868685818E87717B7770748290
:100B500086817E82877F8A8E93867A81857E797E62
:100B60008089797488888382897F8080877E778175
:100B7000827D827670858B8A7F8786878A8A807C51
:100B80008082877D7C778190857A81858086828549
:100B900084818A7A7D797780817D7B85827E8B8D49
:100BA0008688817B827C7286847E797B847A808849
:100BB000867F86858B928C7F89837A7F7F807F80FA
:100BC000887D7A858085807B80807A7E8884848514
:100BD0008082868380847E7D7D8184807C848A80FF
:100BE0008E92796E7E7F8A867583808385838477F3
:100BF0007484858385847E7D8D91817F80828B80C6
:100C000084807D79707E80817E80868A87898584D4
:100C1000808B867B84898173747E767A807F818CD9
:100C20008D88877F848A807D7B7D7B818884848298
:100C30007F7F828388867C7D8081818082838080A3
:100C400080818081867E75767D7E8C848086878992
:100C500083808186878C797F827D8B82797B747D8E
:100C600084848284888A858182838082827E7C7E5D
:100C700081888E817F7F86807780848A8483807656
:100C800078857F7C7B7E8685818084848382808159
:100C9000808A837D7E828080817E838A7F7B83853C
:100CA000868B88807C7E8587827E80878480867C18
:100CB0007E827F7A817F888980807B7D7C817D7E3A
:100CC000828382858B83838483837E847D787C8BFF
:100CD000837E7B7F8186888C88807D88817E807BF7
:100CE0007D7C8082818181808384827F847F828BEE
:100CF0008283827E7C85857F80827D7E7F7C827EF2
:100D0000828182828384838080808182807F807FD1
:100D10008080807F8081807F8080808080808080D4
:100D20007F80807F7F8080807F878D814DE6CDA40E
:100D3000B69BDBBBA6C2A598B99E9BA08C97758974
:100D400078337A642E432C2A151D15120C3013208B
:100D50004B02404D173F465B5950767B7079C28BF2
:100D60008FC7C9A7EEB8C1F5D0D4BBFEC1D9CFCDCE
:100D7000EF99B4D38E9196A67C8885665E73568370
:100D8000394A8E3873533D9142591F786B477838F2
:100D900061603D7443757947585B6E625460793E7B
:100DA0007B71539162758675808B92986BA5A59621
:100DB000AF7FD69F8DC4A396D8A0A3BEC3C0D8CD05
:100DC000A6D9E7BEE1F7EFC6FFE7E2DFD1F8DBC95E
:100DD000ECE6BADABBC6CDAFABABADAD7D9BA376CF
:100DE0007F5B9D7D5C6665764B54623C3356304E2E
:100DF0001F20591C233D272A164E104428313151FB
:100E000031464D5556545E616C68717077847B8FA6
:100E100091AF8FC9B0A0CEBAD7ADD2E0BDEBB8C705
:100E2000EFABE7E4BAC9CBCCB2D2CD99C3B69FAB96
:100E30008D9EB2918D898E926074A35B79805E578E
:100E40007B4B6E434F682962472A395B432C355CE4
:100E5000473043324F3B3F3D4143373C5758304A80
:100E6000882F598036735A816E727175886E8C879F
:100E700091A98B9B93A7BE88C1C9C49FA1D5E8A2A5
:100E8000D8DCA3D5CAE5B0C5EBBB8AC3E197B7DF11
:100E900091BFDD80D6C366BB959E9474A76D708E9E
:100EA000308361717E5A4A5D625956775457635B4D
:100EB000543563705B2B6C6665545D426B4B797780
:100EC0002F70704C774F4F7B5C7355617C3D56861D
:100ED000524C629541717960436384547E58689F97
:100EE0004D61995C776F7B806DA3846F9A727FA34D
:100EF000819C938572AE959B809FB8829098909EBE
:100F00008799B285ACAB82BEA0AA9F96A0B2A796E5
:100F1000CF8EA3CB8BB2BF82B2A79DB79593A8A06B
:100F20008A979883968E7F838E8B65807675875F90
:100F30006A757A4360973C7C7940704B60655D6769
:100F40004B5F5458514E5C3D4F524C4E43714B30A9
:100F50008046516B48703E6C704D636575826B6A5C
:100F6000778F688A98738A888E9380A5A79CAC9F98
:100F7000B1B59BBCB7A9B3B8B6B7BEA7D2A2B5CD21
:100F8000A0B3B3A5B4A3B1B2A1A6B694B49C92A0E9
:100F9000A086AB8D87A5808A876E8D7D8583788BB3
:100FA0007C66747C766387617070667255717C4371
:100FB0007A6C6979547869646C776E616B6F6C6573
:100FC00061895F7C75726F8D6B88747779907F71A2
:100FD000AE7B818A8BA27D9196899B87978B85B901
:100FE0008F8CA793A28BA3968BC090A29CA6979759
:100FF000A0A68D92B2939E8BA29F9991A19184916C
:1010000089BA749D907F7B839C728F7D6783867F76
:101010009265609A75759952938A7A6A658F807124
:10102000737F7382788F617C728D7085775F818D1D
:10103000668067856B76885F6B62886866698C649A
:1010400087556C896F62828B5B866C846F6E6F8351
:10105000787C807279876F8F6699788D797FA77297
:101060008D7A8D84789389849B877C92938E91A7C7
:10107000907CB38D84A9AA8D8EAE988899A68AA9F2
:10108000AA7B9FA39998928FA0978768A481879144
:10109000758E7874918177886C71857C62897B6AA2
:1010A000677288628062696A676E7A506F804B806F
:1010B0005168736A704B766B6364685E5B62696EDD
:1010C000626F636985725A6A73738B736175927309
:1010D0007B7C6C967396867E92768087858DA476CF
:1010E00080B68693A78186859E948F78AC8B8DA6DB
:1010F000618EAF7C91A0728DA375929278978A874A
:1011000078798080728C7779897F76766E7C7A6642
:101110009073616C697C896560778262855B6F7CA6
:101120006F67678A6E7B687A776A6F726B6F7677A4
:1011300064718570798E657C6E847572966C6A8A2E
:10114000808570887D5E9293699A806D8B7F829492
:10115000747E848A7D8A8D8D7B6FAE8F6E9E888033
:10116000959271A87F8693809E8479A3808E7A91D0
:1011700081838C7FA67C6596888A94728388858615
:101180008F60A68A73827E9E758199727589857932
:1011900089828B7280995D898C6C847B808073904E
:1011A0007B6D857861789961798872806B60937ABC
:1011B0007D56888C6A7E6A80747F7B76727A7C80AA
:1011C0007175947E627D80796A8F8C6C8A84878049
:1011D0007188937E888783958093787EB1888371A8
:1011E000B88F7EA17B96978A9A85838F898F8A8113
:1011F0009C8185A57598877B86848F86818B827D6F
:101200007E7A8C79827B876C8288757690736D6E1E
:101210008C82766B6B926B85716380807172817B3F
:1012200076618F6F6F7F65827678647F7E84757755
:10123000807C6E797D7F807E8676847C7D827E7ADE
:101240008E81757F987E8A99798484947D9A7B7A41
:10125000A19B679C987CA681908887918E878B89BB
:1012600085A2798C8E998E78A1897E8488908589D3
:101270008D78998A7D828E867478928E867B7E8A1E
:101280007E88807A8C7C7A847896886D738E898249
:101290007D8772917A8780768C7D788387798F803D
:1012A000857E7A8B7E7A807A827F7C887E727A9B3A
:1012B0007686867D758785867C7F87847E857F7D23
:1012C0008E78877F81867D8387868380887F7E9FD7
:1012D000738C93818472858D83868C897A839870D0
:1012E0008D88719790768891807C93769685907C96
:1012F0008496847090897D8B8A838487708D8E79A3
:101300008082878584757E7D7F808865818E748BE1
:10131000817A6D817B7B8577737E80797B71898310
:101320006F807F797F71767A6E7A906F728D72801E
:10133000836C877479768A866E92836B887D8776D4
:1013400087966787937A8981818D7E97917790813F
:10135000928F847996878799808D808A84868A7B0C
:101360008F8C759084847E84887F848380817F8045
:1013700083817D83807F81808080807F808080806A
:101380007F80808080808080817F5B58575A565450
:1013900058634442485E7F39187E691F6F9C8DA553
:1013A000A637867FCCBB8BA9699DC9BDCEFFA94658
:1013B0008EE8DBDACC95ACEBD7499EF5B7A3BDBE82
:1013C000BCD8BC396C67C3E14F638F6FB0CC194890
:1013D00077CB930235767D7955654F32535E5594C0
:1013E00094024FC946186E718B6C2950686D6A66FD
:1013F000677F556369777FD3631C5589C689758874
:101400008F92859BA26D8BA2ED8E1D5FC3CDD5E122
:101410006B61B9C68C9EC1D283A4B7FA818CA564D6
:1014200081C4C4CD938B9CA69A8785A096657FB412
:10143000A2177B8C878E7416417B89736E695A3E26
:101440008A58304FA73B635425899A2D8A412D7CB9
:10145000657376729A60654E8599247290A18B8926
:10146000838798AD5D6E9F8F909CAECD3A759ADF65
:10147000C1745D71B6C99EA3E27E698587B8CBBF92
:1014800072AE8F6DA2AAA59693879995B670538474
:10149000BB976162539A8A7678886F6372895B3BE7
:1014A0005E7765758D60452F5A7F7E6666675A6EDA
:1014B0005670788D54227281847B7977896A767A26
:1014C0007B93A8913569A5CB974282A2AEAEBD773A
:1014D0007F827EA5A9B0B96581A7A4C8BD6072AEA0
:1014E0009179ABA8A1A1867E9AA4A17E568E8A98F6
:1014F0008E8A8AAE548C5B5C949A8179485478A425
:10150000885D6A58707C7F406E7375779A463F6835
:101510009F4A62728468857B4E59966F8B625378BE
:10152000A08C8B824774ABA664808D97A27B93A816
:101530005D8D99BA8183939F9DBF8364BD8171B294
:10154000A67F9899A0B171999363809CA49185839B
:10155000858885888878909B4462868F7F939739A9
:101560005F7E8680768F4F597A8368826D5C637167
:10157000846E73807D5567606A85828B6E698697FD
:10158000497C996865888AAC80597D94969B766E73
:101590008E9690888B8D8D8E8BAD915981989D956F
:1015A000918D8F8EAD786A92929D8F8A847F82A46E
:1015B000836D9A6D7D8A8D88A0695E82858F7A861B
:1015C000747963718B9460757F726F6D7E7F7F75A8
:1015D000728C785F637D8B63837981885F6B809980
:1015E00079608081847E857B97815F808A8C888604
:1015F000858A8585858F9E6E7A8C9B8C868E898D5B
:101600009A9C6B94878297809E7E7E90968C84882D
:10161000888A8C807C8685878095827A7A677C86AA
:1016200089807F7D90706783697785847A7F647312
:101630008F6D67768481757A76857B7A72658C800A
:101640007E766C808B85767D8199716E85938376AD
:1016500086888B8C7892867D887C898F8E909D740D
:1016600076948F898A9E80728A90938B85848A9CD7
:1016700077748D8A8D877D8289887D80908B686E56
:10168000838983817D7D7C7E7B7C7D8273787A8F6C
:10169000706583777783797D6F757F817C8C8164BA
:1016A0006A7A8882817D8180787F8082808380844D
:1016B0008084829B766F8695868A79898F7B828CDF
:1016C0009297846F838E918A8A848A86948D6E81A4
:1016D0008B9294747C8A9A7A847E789186788383BC
:1016E000868C7784717E7B798585876B797F84840E
:1016F00076806C7780807D7D7B7C7C7B7C7C7B8234
:101700008A66767F87817A7A8480827E807A8184F5
:101710007684878F788487877C8885877985958D7F
:1017200077907F8F8B78858A8B8C8486888986904A
:10173000827B89807E8D848F897582868685828E64
:101740007C7284838480807E817E817A887D7784A8
:10175000707A80827D83856D758B74757E8A8171C8
:10176000847C75817F837777808B817D82757B8098
:101770008B8A777D858683857E808782868388862F
:10178000868B80788A8B7E87878E8D817D7E8E91F9
:101790007E7F87927D7F8688868D81778988788213
:1017A000848682897D827B7884877D8680727E8232
:1017B000828680767B788080837C7C877B717E824A
:1017C0008C7274808280807C81808375798184832F
:1017D0008B7B75808388818485788883837E7E8CEB
:1017E000877F828B887A81899080848A7E7F8788B0
:1017F00088868683848484858384858680848B79A7
:101800007B858585828281827F8280808189767DC9
:101810007F7C838979758183867A78837C768082E0
:101820008A7E77767F81837E8580747F80828083C5
:10183000847483857B857A80848582838282897D96
:1018400080808C857A82868686838B8182857B8563
:1018500087878585838584888280897F8085858246
:101860008986807E798585808A817986807C80865C
:10187000827A8281807B827F8083787C8181897873
:10188000787E83837E807A7A80857B7D8082828069
:101890007D85807A808383877E7886817E84848339
:1018A0008382838384808382848385868280878900
:1018B0007E7D84878687897E808182848B828184F5
:1018C00082847C84808284838286807D80838082FF
:1018D000807F83867880807D8181877C7A7F80800D
:1018E00080807E8580797A84807B8180827F8484F9
:1018F000787C83857E8080828080808880807D82E5
:1019000083818582837D82848B847A8185858484AA
:1019100089807F8682838382848488847C808A8293
:101920007E85897D80838383828185817C82857E9B
:1019300083807F8081807F8181818082807D8180A2
:10194000857C7B82827D7E84817F7E7D808081819B
:10195000808680797F8185837D808183827F848278
:101960007E808383828284867C8086828083838655
:10197000867C82848384828285877D80848484843B
:10198000887D8082848386837B828286857E7D813A
:10199000838285817D80808380847D80847E7D813B
:1019A000808085807A7F81818181837D807C808336
:1019B000847E7E847F7F8081828181837F8081821B
:1019C00082817E83827E8180808181828081817F0D
:1019D0007F8082807F808080808080808080808007
:1019E0008080808080808080807B557E9367C16707
:1019F00066465879A580727E3A80864EA395145B20
:101A00004F3446285B5E434F82875A5B5C604B4293
:101A10004F2D43351C55724B4F58535B7780765C86
:101A2000534B3A618089685C494E6A89AA913B6749
:101A3000A0C3C1AE85679DC490809A8A5D656E889B
:101A4000C2E6BE80899A7F96AAA6A9B0B3AFC5F4B4
:101A5000EDB48B9DDCFFF8E7D6BDA298C7F8EBE3A9
:101A6000D9CBCCC9BEB0B4B8BECDD2DCE8E0D2C2CE
:101A7000BBC0BDBFC5BDBCCED0D5E3D4BFB0ABAC41
:101A8000B1B0C2CDC2AFA3A4AFAFA8A095878086E6
:101A90008689979585959478616C808D90919B93BC
:101AA000714C4C594F4036383D403D311B26373B39
:101AB000423F3D424640342E3B43312629323638A0
:101AC0002E150D1F22152829170F0909090C0A0DBB
:101AD0002130302A2626201D1B2B4B553D435442D6
:101AE000395361625D53483530425655494046523C
:101AF000595E59524C4F4C474E54595A6268696668
:101B00005C55545A615F615F606673736564756CA0
:101B100060646C6B645F5E5950494E5B625C534D10
:101B2000515352454B61624B4B5B584C4448525D9C
:101B30005C4D34292B3339393734383E443D3D47E9
:101B40004D46474C525457575C5C5E61696E7475E4
:101B5000726D6C717266636C7A7E858B91939899C5
:101B60009A918B898D94979AA1A9AEA4A1AFBBB687
:101B7000B4B8C2C9CACECFD6DEE0DEDAD9DADCDC50
:101B8000DDD6D4DDE4E2E0E9F0F3F3F1EEEEEDECE6
:101B9000EEEEEDEDEFF0F5F6F6F3F2F6F6F6F1EE29
:101BA000F1EFEFEAE5E2E2E5E9E9E6E4E1E0DBD7DF
:101BB000D7DEE4D8CCCECFCFC8C4BFBDB7B4B3B2A4
:101BC000B6B6B3B0ADABACAA9F9694969389858117
:101BD00081807F7B76746F6C696663616060615C35
:101BE000595655534E4946444B4E4D47444544453E
:101BF000444648453D343940423B353435363A3A1F
:101C00003D3B3735333235343531323A43453E3E4C
:101C10003F414240403E40404245444748474B498F
:101C20004E4B4E4E504F4C4B4D4E5153565B5D609C
:101C30006060605F5D5B5C6267655E585C616465A7
:101C400065636365666A6C6E6D6C6E71716C6666F9
:101C5000696E706F6F717074727573757477767664
:101C6000787678787877797B7C7E7B7977757372F4
:101C7000737576797D8182817E7D82898986838074
:101C800082818585858786888A8C8C8B8A90959BB6
:101C9000999693939597999A9A9C9D9F9EA0A1A19E
:101CA000A3A5A4A6A8ACAEB0AEB1B1B5B8BBBDBF3C
:101CB000C1C0C0C1BEBDBCBFC7CACBC5C3C5CACFEA
:101CC000D2D2D2D3D4D3D4D4D3D3D5D7DAD6D2D2D6
:101CD000D5D9DCDBDCDBD9D8D7D5D4D3D4D2D2D29A
:101CE000D0D2D0CFCACAC8C8C7C5C2BFBDBBB9B998
:101CF000B7B7B8B8B7B4AAA5A5A6A7A59F9B98954E
:101D0000949291908E8D8B86837D7D7B7C79746F90
:101D10006B696766656362605E5B59585452504EEA
:101D20004B4C4A4A484643444141403E3C3B39378C
:101D300034333336393A3A36333334343535333451
:101D4000333232333335383A3B39383A3B41404409
:101D50004344444647484B4E4E51535458595C5B9C
:101D60005D5F61636568696C6E707374787B7C809D
:101D70007E7E7D7D8185898A8C8D8F8F91939495D0
:101D8000969697969695989A9C9D9C9C9C9D9D9FB7
:101D90009F9F9F9F9F9F9E9F9E9F9D9E9D9E9E9E5D
:101DA0009E9C9B9C9A9A9A989A989897989698999C
:101DB0009A9B9896949393939293929293929393DF
:101DC00094949697949392939394959596959698C8
:101DD00097999A9B9B9C9D9E9F9FA2A2A2A4A6A618
:101DE000A8ABABADAEB0B1B2B4B5B7B8BBBABABCC4
:101DF000BCBEC1C5C5C8C9C9CBCBCCCDCDCFCFD05A
:101E0000CFD1CFD2D2D5D6D8D7D7D7D7D7D7D7D685
:101E1000D7D5D6D5D4D6D3D3D3D0D2CFCECECBCCA4
:101E2000C8C9C5C5C2C2C1BDBEB9B8B6B3B2AFAFED
:101E3000ADAAA7A4A19D9C9A979594918E8D8A870F
:101E40008783837F7E7C7C79787575716F6D6B6A13
:101E500067646460605E5A5B5756545350504E4CF2
:101E60004C4A49484745454542434241424041402A
:101E7000403F403F3F403F4040404141424142425D
:101E8000434344444546454748494A4B4D4C4D4FD2
:101E90004F50515252535455565659585B5A5C5CE8
:101EA0005E5E5F60616162646365646767676868FE
:101EB00068696A696A6B6B6B6D6D6C6D6D6E6D6F69
:101EC0006E6F706D706F6F6F70706F716F7070701C
:101ED0006F717070717170727171727172727172F2
:101EE00073717373737374737573767475757775B3
:101EF00077777878797A7B7A7D7C7D7E7E7F7F7F2D
:101F00008080818183838586858889888C898D8C72
:101F10008E8E8F91919293949496979698989B9980
:101F20009C9B9D9E9D9F9FA0A1A1A2A2A3A3A5A5AE
:101F3000A5A6A6A6A7A8A7A8A8A9A7A8A9A6A9A82C
:101F4000A8A9AAA8A9AAA8AAA8A8A9A7A7A6A6A511
:101F5000A6A3A5A2A4A3A2A2A1A1A0A09E9F9D9D6D
:101F60009D9C9B999B989898979596959394929100
:101F700092908F908E8D8C8D8A8B8A8889878787A7
:101F8000858585858383828280817F807F7E7E7D3B
:101F90007E7B7D7B7B7B7B7B7A7A797977787776A2
:101FA00077747674747474747274717372727071FD
:101FB000716F716E6F6E6F6D6F6D6C6D6D6B6C6C44
:101FC0006B6B6A6B6A6A696A686969676966686780
:101FD00066686568666666666665656465636563AA
:101FE00064626463636263636363636264626263C3
:101FF00061626261626161636063616162626261C8
:1020000061626261626261626261636263626364AF
:10201000646563676467666868686A696B6B6C6C43
:102020006D6E6E6F70717173737475757677777886
:1020300079797A7A7B7B7C7C7D7D7D7E7E7E7E7FDE
:102040007F7F7F7F7F7F7F7F81807C7E7C7C7C7BAE
:102050007268626C565B5C44431B2757734F313187
:102060005A604F546C4B706E65847B81939B8AAB36
:10207000B39DBBC0C8C1CFE7D5FAE8F6FCF5FBF8C5
:10208000FCFBFCFCFDFCFDFCFEFDFFFDFFFEFFFE7E
:10209000F9FAF9E8E6EAD0DCC6CBB5B6A79CA1818F
:1020A0008677765A625E3B3641331A201B12121530
:1020B0001313121111111010100F0F100E0F0E0E1E
:1020C0000D0D0C0E0B0C0B0C0A0A0A0A0909080963
:1020D00008070807080E11242727473A466351804E
:1020E00061879786A1ACAEB7C9C5D6D6EAE2ECEF58
:1020F000EBEDECEEEDEFEDEFEFEFEFEFF0F1F0F1F8
:10210000F0F2F1F1F3F3F2F4F2F5F3F5F4F6F5F59C
:10211000F7F6F7F5F1EFE7DAD3D7BFC1B7ABAA907F
:102120009F917D7A7C6D61645B4C4F394837263ACC
:102130002021261422151517171417141614151418
:10214000141314131213131112121111110F110F72
:102150000F100F0E0F0D0F0C101A161A251F293213
:10216000233C33423F464C5252596A5F657E76802B
:1021700085859B8EA59EB2ADB4BEC2C6CCD2D3DD42
:10218000E1E1DFE2E2E3E1E4E3E3E4E5E4E4E6E421
:10219000E6E6E6E7E7E6E9E7E8E8E9E9E9E9EAEAC1
:1021A000EAEBEBECEBECECEDEDECEFECEFEEEFEF64
:1021B000EFEFF1E8EDE8DDE6DCD5D5D4CBC8BFC262
:1021C000BEB2B0B2A0A6A09495918187847A7978A6
:1021D00075716D69655E5A55504A47403E373430D7
:1021E0002E2A2A2828272727262727262526262479
:1021F00025242423242322232221222120211F1FBE
:10220000211D1F1E1E1D1E1C1D1C1C1B1C1A1C25F7
:10221000302E302E2E2E2F2F2E31313337383A3D9F
:10222000404244464A4B4E50535559595E5E626592
:1022300067696C6F717376797B7E80828488898B05
:10224000909094959A9A9E9FA2A5A6A8ACADB0B284
:10225000B4B6B9BABDBEC1C3C3C7C7C8CAC8CBCA62
:10226000CACBCBCCCBCCCCCDCCCDCECECDD0CECFA3
:10227000D0D0CFD1D1D1D2D1D2D2D3D3D3D5D3D440
:10228000D5D5D5D6D5D6D7D6D7D7D8D8D8D8D8D9E2
:10229000D8DAD7D9D6D5D4D3D0CECDCBC9C6C5C13F
:1022A000C0BEBBB9B5B5B0AFACAAA6A5A19F9C9B5B
:1022B0009595918F8C8A8783837F7E7978767271EA
:1022C0006E6C6A666661615F5C5958565451504E37
:1022D0004B4B4746454241413D3D3D3B3B3B3A3BF5
:1022E00039393A383938373737363636353535347F
:1022F00034333333323331323131303030302E2FCA
:102300002E2F2E2D2E2C2D2C2C2C2C2A2C2A2B290A
:102310002B292B292B2A2B2A2C2B2B2D2C2F3032FF
:10232000323536383A3B3E40414346474A4B4E4FA2
:102330005354565A5B5D61626468696C6F7174775F
:10234000787C7E80828487888D8D919495989A9EE2
:102350009EA1A5A6A8ACACB0B1B4B6B9BABCBFC07A
:10236000C2C5C4C6C6C7C8C7C9C7CAC9C9CBCACBF4
:10237000CBCCCCCCCDCDCDCFCECFCFCFD0D0D1D17B
:10238000D1D2D1D3D2D3D4D4D4D4D6D4D6D6D5D70F
:10239000D7D7D8D8D7D9D9D8D9DADADAD9DBD9DAB0
:1023A000D9DAD9DAD8DAD8D8D9D7D7D7D5D5D5D3B5
:1023B000D3D2D0D0D0CDCCCCCAC9C7C6C5C2C3BF7A
:1023C000C0BDBCBBB9B7B7B5B4B1B1AEAEACAAAACB
:1023D000A7A6A5A3A2A09E9E9B9A9997959492903A
:1023E000908C8D89898785848280807D7D7B7878BB
:1023F000747471716E6D6A6A67666461605E5C5B5D
:1024000059575454524F4E4C4B4847454342403F16
:102410003C3B3A393736373536343534343333325A
:10242000323231322F31302E302E2E2E2D2E2D2CB9
:102430002C2C2B2C2A2B2A292A2929292729282701
:10244000282827282828282928292929292A282A04
:102450002A2A2A2B2B2A2B2B2B2C2B2C2D2B2D2EC7
:102460002D2E3030313234353538383B3A3D3D3E13
:102470004041424444464749494C4B4E4E505251CC
:1024800055555659595B5C5E5E6161646565686966
:102490006B6C6D6F707372757777797B7C7E8080E3
:1024A00082838586888A8A8D8D9091939496979958
:1024B0009B9B9D9EA1A1A3A5A5A8A8AAACADAEB0CB
:1024C000B1B3B3B6B6B8BABBBBBDBFC0C0C2C3C55B
:1024D000C5C8C8C9CBCCCCCFCFD1D0D3D2D4D4D41B
:1024E000D4D6D5D6D6D7D7D8D7D8D8D9D9DAD9DA75
:1024F000DBDBDADDDBDCDDDCDDDCDCDDDBDDDBDC1E
:10250000DCDBDBDBDADCDADADBD9DADAD9D9DAD927
:10251000D8DAD8D8D9D8D8D8D7D7D8D7D7D7D6D83F
:10252000D6D7D6D6D7D4D6D5D3D4D0D1CFCECCCA81
:10253000CAC8C7C5C3C3C1BFBEBCBBBAB7B6B4B3B4
:10254000B1B0AEADABAAA7A8A4A3A2A09F9C9C9932
:10255000999795949291908D8D8B888986858482A8
:1025600081807F7D7D7A7A777776737371706E6DF7
:102570006C6B6968676565636261605F5D5C5C5A2E
:102580005A5758565455535252504F4F4D4D4C4B2D
:10259000494A4848474645454343434140423F3FF7
:1025A0003E3E3C3D3B3B3B393A3739373736363494
:1025B0003534333233313230312F302E2F2D2E2C13
:1025C0002D2B2C2A2C2A2A2A2A292A28292928296B
:1025D0002929292A292A292A2A2A2B292C2A2C2B5B
:1025E0002B2C2C2C2B2D2B2D2D2D2E2E2E2F2E2F1C
:1025F0002F303031313331343436353739393B3D92
:102600003E4041434447484A4D4F4F525556595A10
:102610005D5E61636466686A6C6D6E707273747619
:102620007778787A7A7B7C7C7D7D7E7E7F7F7F7FEA
:102630007F7F7F7F7F807F7F8084896E69AE7175A9
:102640009864937F6FA2608E8277977C83768F9059
:102650008C7D8F9E6D81BB7D539D8C7996AB7995DA
:102660007A858B817950905B74826576518FA94D04
:10267000877C57869453A66C80CA547A95978B773B
:102680008CAC66B3559662AE578D7E84897A83860C
:102690008A6A43AF6D956E70A0668074BB696BD318
:1026A0005E9788AD8D62A2979DA453B58067B050A8
:1026B000B76076A55D86927D716AB23D905BBB92F4
:1026C0002CE02BA38964935A57A0638E805F8247C6
:1026D00074D858649044936877775CBA6A72C64736
:1026E000C78451E741E17B8CBF47B26C99B99171C6
:1026F000A241E26E707B888D679754928D61765F00
:102700007E7C7A793F9572775DB14E917F4BBA1F8F
:10271000B85C92A25FC17970B582A07E67E34EB3C8
:1027200093618497A1777C6C96A2578C79918E5C8B
:102730009C6F7495595FBA51867C68B632C63CA7C7
:10274000866B8D876683899450A69281888F998144
:102750009897617D986F58C4594FB2439AB430AA84
:1027600045A4725CBA29C46D73CD48977971C83F8E
:10277000C87D946DA48063BAB57456A6608C7F7AC8
:10278000AC3D87A6547471687680777B957F4FC681
:102790008875997D90928A53B17E78B2378D925028
:1027A00081946E7089848373717DA26575A14EDDFD
:1027B00063879F64DB57B08C38D87B69C85E8AAB6F
:1027C0004FC26494845F948D52935C6B984F9E3C8F
:1027D000899D2AAA608D7C859C78669D70848F94E3
:1027E0009195809870AC8045FF16AC82A26C808079
:1027F0006A9B6877A54184986A7C97A827B2559B05
:10280000967645BB60A29659838788867D738C6CCB
:102810009A738E805ED42B99AA4EDB28D87C65B73C
:10282000549986788A6A899658B39555CC4C7E9887
:102830008C7F687E798F866B997370A4566F8580C4
:102840006F899F519B8B5CAC697FA3619AA4749242
:10285000877CCC50979F4CD750879758A665778D2B
:102860006DAD5285836E8175789375806C818E71A4
:102870007B8783849C64996A7795858A9978A588F3
:10288000897C77AB98628D927A8295748A78915F11
:102890007897627B79768E73748465A049A9763BBC
:1028A000C97B659E80A861AF68937B80A46D889C7E
:1028B000758A6EBA73768475AA98459C8A5EAD91C6
:1028C00039A17581767F8A7E69698A80707B916380
:1028D000AC548F8E836BB568947F8F7070AD8C71A4
:1028E000A173877A7D83974A8EB257A85CA67675C6
:1028F000A36C81885AB35479B3639D6C8E91639BAA
:1029000072867F8D825DA9895C96867C768E6E7DCF
:10291000A753996689975F899B6E8C77897A996F9F
:10292000847DA1943FC16C759D669080917B6F8B77
:1029300071945FAD6C77B4489E5D98816AB158A17F
:102940008E4F9F7278B83BA38990697E799C6DA663
:102950006473B14C86A2548B8A6A8779A2656895A4
:102960009D6C8B708C9E5AA8699C78859B61AA7817
:10297000728D8A7399737E86A4469998657A92615E
:10298000927DAC5C7E879C68799561A38075A17609
:102990008B6F9C6A848B828484859D5697995A9903
:1029A000698D83817D8858A4808565809278748B39
:1029B0006AA2706E8C5CA5934DB55FA08C58B27AFC
:1029C00072896D988464B05CA1897BA15575AE4A0B
:1029D0009393608C9A787DA67B7487A74FA78767AF
:1029E00090888F5D8AA15B8E7C70927D64A76C7FDE
:1029F0009F727D7D838980628A7C9D65907D789DB4
:102A00006196748C738286857C9B6B7E91878A5FCE
:102A1000998C67A1677C955DA093686EAA7F599198
:102A2000A849A0769B788F8C6C7E8EA543988F6C7E
:102A30008E5E949F5D946EB663809F5A937F817F74
:102A40007BAA6C819A649A80599F74AA4B8B896E79
:102A50008D7986788C7C81886B947C7C7EA765815F
:102A60006AC05E749E728C799B795AB5707B78A926
:102A700057948763AB629E5A9A88699A8463BD654E
:102A8000867C878D6C948A877A8D8E69A08464A3F6
:102A90006C9A75928566935F9E6A8493538E8A784A
:102AA00080759B6F739B7E86698D92649E807F96F6
:102AB000698B75A17B85856C9B867785857D7D7B04
:102AC0009B7D798A8677768984758093826A887EF1
:102AD000937D76807B95837E8D6E8F699F74809BBE
:102AE0005B8598846B6EB96387906E90737D9771E8
:102AF0007093936680A26E7A869471848078897FC1
:102B000070A8538EA748AB5D959A5F8881938170BA
:102B10009D618D8085AD44B07972A2729A648B8B71
:102B200077975592808582827A6E928C69808370C5
:102B30009C6A9277748875AC855D9A6D9C75938458
:102B4000857C7D878E797D87817B80955D839B6B7E
:102B50007582997771986E7B9C6D9A6F85807E9156
:102B60007586867990816D9772A6717D8D906D8D39
:102B70008C7D87847C80857F8282669B7B7C9C6049
:102B8000927889718E8A788672898C72A45D968615
:102B9000838C57B2804FBA6F709D738B639A876A2C
:102BA000916C898D66987D7895698F82629A738D14
:102BB000828F678397708C836B89838096599D7011
:102BC000938783847F819466A7628A92809B7887AB
:102BD000747E8C84806E8880966F6E8B8F62A16706
:102BE0009D6D807F66A964917570A1726F978675DF
:102BF0008E748697747D9058A78B708B837A8083B0
:102C00008482946096836C9A71988181817A8382A0
:102C1000809C53A57E8E7C808F65A96787946B838B
:102C20007A9C78809C628A9264898575847E787E9D
:102C300088797E836582878875818C69A66682988B
:102C40007767A265A55DA67386985BAB6C8D729C59
:102C50006D8E7E798F7F7E878180789D70828C9B40
:102C6000559D7D8B7B81837698896C80A0737D8256
:102C7000807F7D817A828B758879827F7F7E837E5B
:102C8000837C80837E837D827F81807F817F808043
:102C90007F807F7F807F807F867AAFD83589AC59EF
:102CA000B45B668DA08A569D65987D69C827B1B6CC
:102CB000029EBFAB6178AD4E658C3A81E79E269748
:102CC000D81D56FF475FA1688EA17A6E8E6B757214
:102CD000A0438DB55387A26D25B5DE398D7E7397E0
:102CE000AA5D7D964EB36CA172729E998B639276AB
:102CF000A0569290849E727E7D717CA362A37859C7
:102D00008B829653C260A348959A6A9B5AA4718796
:102D10009054AD6B6F7E91768091888375888581A4
:102D200078866F9C808E6680737D8B86A36587779F
:102D30009C707865A784819657A765789B82699A6D
:102D400082709476766EAC6795946384718779739C
:102D50008A808C8A588C9F7569A082896679B0793F
:102D60008068948F726AA66BA4865499887BA2624D
:102D7000818B8782779289835AA2768B7181867143
:102D8000977D6F8E8E8E708091986B6D87A1768DFA
:102D9000628B83887668A770827653CA7F629A7442
:102DA0008F6B8099A44780A371758D78808B935029
:102DB00096926B8F5499987B8A8870759A7C8F88CD
:102DC00059B07257A88968869B67947D59A181651F
:102DD0009F7A7E897D8782887E77848975809574C5
:102DE00081A052AF955E88946989847A8288767EC4
:102DF000A55B9386898352AC749365A272867B80AF
:102E0000A26A7B8181A65D6DAF5C84987A8185879B
:102E1000619B768BA33E96867F8B8180866289A795
:102E20006E8B6F7B9684955F8C80847C7CA271799D
:102E30008C847588947261A8828A7A846D8997508F
:102E4000AF707994719B807580828B6D9780995E4D
:102E50007F95729D67986084A75D94777A9E6D8058
:102E60007CAC657E886E9F867164B27E5AB2786D46
:102E70008C729C88827A8093718A808F7582817728
:102E8000956E8D807188997E70838A788A8A7D7A22
:102E90007F7C967E8C6C8581758F897274A7687B28
:102EA000947979839475827584A26A6C95837C7D0C
:102EB0007C818A838685648C83949B5E8F867D85E6
:102EC0008678896D7F997A71AB509A7E678F9873F7
:102ED000897397757B8A7E97717C918B767F7396C9
:102EE0007B8B76877F8580848087836D9A748C7DC9
:102EF00093539378986C6F8D8E807E7B8886846EDA
:102F0000A0848574808983926D8D81767293947D7F
:102F1000748570918D8C755E9D788D6D9284738AA9
:102F2000858081847D7D7F88827F867888856AA17F
:102F300075828076917985787F8788768C7A8D7096
:102F40008D838773838491787E946A898583818554
:102F50007880838C7B8A7F7180898D797E80759C57
:102F60007D699E7B846D9C708B8F6892767B878158
:102F70007E857A857B9974877A828B858175818538
:102F8000956E84847F847488808E738A84639A8E1D
:102F90007180917680858A6E8D8971957487758828
:102FA00088827C88857D86818C7A7C828487748106
:102FB000926D8F6E7C8F8480718E81809076857407
:102FC0008D7E888F6B86897D83807E8285738396D4
:102FD000678F7490856B908C7E747E8A87847492E0
:102FE0007879808A8A7B7D828880808092727E93C5
:102FF00085718A817D91777D8D73927C80837C8AB7
:1030000079847F7F838B797E8B798B7A80896E8FB1
:103010009078738C81897D847A848880867F8268A9
:10302000A5757F857790787B838E80798484817F76
:103030008282847482936F8D886F8F837C82808874
:10304000787D8F81788E76818685827D8280857F6E
:103050007A8B817C8585719A7D7F7F759280828451
:103060007785847A897B868080838A7A7487888151
:10307000807A8B7F82798A817E8A6B9182807F843D
:103080008778887F83867B917778927D8082848120
:103090007D8A7E827D89807C9074847E8C7E7D8A10
:1030A0007A838379887D7F897C838A7E808280830E
:1030B0008B7779917C7F96718087788D7B868280F3
:1030C000837F82807E8D7E748E81817A8A7F7F85E8
:1030D0007C808785827D807E89877C798C80857ED7
:1030E000837C887B877D84817D8B7C807F838581C9
:1030F0007C87857B827D86877A897F88807B857ABD
:103100008D7E8381887C807F8682827E857F898098
:1031100080868084778381897D838A7385857A8F91
:10312000807B8580807D887A888180847E7F87828D
:10313000807E80867D88827F80828481817E8C7E75
:103140007E867E7F858381857E7D8682817F808964
:103150007F7C8384808082857E84818080887A8958
:10316000808183808280817F8A76808C7D837F8549
:103170007F807C8C8080827E8C758E7C857F7F8832
:103180007C828181817F838081837E868284807F2F
:1031900080877D84867E7F85817B7F88867883811A
:1031A00087827D81887C827F84848083837E837F05
:1031B000837F828C7B807C858783758A8A788087F1
:1031C00081847C7F8483807F8682808180808380ED
:1031D00087798B7F80857E8086837F7C83857B83D8
:1031E00083877D7F828A7E7D85808084807E8685C0
:1031F00081808081877E857A82887E847D877F82B8
:10320000848283788780818182827C857D867D84AB
:10321000817C86817D86817E877E80878576898296
:103220007F897D808185807F848080818382887A88
:10323000828281867889857F7F8088808180847D75
:103240008384827E84867B848380827E877F877C62
:103250007B85848088787B8C7E838183817E837E5E
:1032600085848080837F847D8382847B7F89818144
:10327000807E82848083817F84837C88807C80863A
:10328000808482807B85887F7D87857E827E868321
:103290007E838084837F80868080837D89807B821B
:1032A000828482827C80868381828084817E8289FE
:1032B0007F807E81897F81808187807B8680837EFD
:1032C00080877E82837D81877F7D828280818181EC
:1032D00080808081808083807F8181808080817FE9
:1032E00080808080808080808080808080807F80DF
:1032F0007F80807F008000002C80000059800000CB
:1033000085800000B2800000DF8000000B8100009B
:10331000388100006581000092810000BF810000BB
:10332000EC810000198200004682000073820000D8
:10333000A0820000CE820000FB82000028830000F3
:103340005683000083830000B1830000DF83000008
:103350000C8400003A840000688400009684000019
:10336000C4840000F2840000208500004E85000027
:103370007C850000AB850000D98500000886000030
:10338000368600006586000093860000C286000035
:10339000F18600001F8700004E8700007D87000037
:1033A000AC870000DB8700000A8800003A88000034
:1033B0006988000098880000C7880000F78800002E
:1033C000268900005689000086890000B589000022
:1033D000E5890000158A0000458A0000758A000012
:1033E000A58A0000D58A0000058B0000358B0000FF
:1033F000658B0000968B0000C68B0000F78B0000E9
:10340000278C0000588C0000888C0000B98C0000CC
:10341000EA8C00001B8D00004C8D00007D8D0000AB
:10342000AE8D0000DF8D0000108E0000418E000088
:10343000738E0000A48E0000D68E0000078F00005F
:10344000398F00006B8F00009C8F0000CE8F000032
:103450000090000032900000649000009690000000
:10346000C8900000FA9000002D9100005F910000CC
:1034700091910000C4910000F69100002992000093
:103480005C9200008E920000C1920000F492000055
:10349000279300005A9300008D930000C093000012
:1034A000F4930000279400005A9400008E940000CA
:1034B000C1940000F5940000299500005C9500007F
:1034C00090950000C4950000F89500002C9600002F
:1034D0006096000094960000C8960000FD960000DB
:1034E00031970000659700009A970000CF97000081
:1034F00003980000389800006D980000A298000022
:10350000D79800000C9900004199000076990000BE
:10351000AB990000E0990000169A00004B9A000059
:10352000819A0000B69A0000EC9A0000229B0000ED
:10353000579B00008D9B0000C39B0000F99B00007F
:103540002F9C0000659C00009C9C0000D29C000009
:10355000089D00003F9D0000759D0000AC9D00008F
:10356000E39D0000199E0000509E0000879E000011
:10357000BE9E0000F59E00002C9F0000649F00008E
:103580009B9F0000D29F00000AA0000041A0000005
:1035900079A00000B0A00000E8A0000020A1000079
:1035A00058A1000090A10000C8A1000000A20000E6
:1035B00038A2000070A20000A9A20000E1A2000051
:1035C00019A3000052A300008BA30000C3A30000B6
:1035D000FCA3000035A400006EA40000A7A4000016
:1035E000E0A4000019A5000053A500008CA5000070
:1035F000C5A50000FFA5000038A6000072A60000C7
:10360000ACA60000E6A600001FA7000059A7000016
:1036100093A70000CEA7000008A8000042A8000061
:103620007CA80000B7A80000F1A800002CA90000A9
:1036300067A90000A1A90000DCA9000017AA0000EA
:1036400052AA00008DAA0000C8AA000004AB000026
:103650003FAB00007AAB0000B6AB0000F1AB00005E
:103660002DAC000069AC0000A4AC0000E0AC000090
:103670001CAD000058AD000094AD0000D1AD0000BD
:103680000DAE000049AE000086AE0000C2AE0000E4
:10369000FFAE00003BAF000078AF0000B5AF000008
:1036A000F2AF00002FB000006CB00000A9B0000025
:1036B000E7B0000024B1000061B100009FB100003C
:1036C000DDB100001AB2000058B2000096B200004E
:1036D000D4B2000012B3000050B300008EB300005B
:1036E000CCB300000BB4000049B4000088B4000063
:1036F000C6B4000005B5000044B5000083B5000065
:10370000C2B5000001B6000040B600007FB6000060
:10371000BEB60000FEB600003DB700007DB7000059
:10372000BCB70000FCB700003CB800007CB800004B
:10373000BCB80000FCB800003CB900007CB9000037
:10374000BCB90000FDB900003DBA00007EBA00001F
:10375000BFBA0000FFBA000040BB000081BB000000
:10376000C2BB000003BC000044BC000086BC0000DB
:10377000C7BC000009BD00004ABD00008CBD0000B0
:10378000CEBD00000FBE000051BE000093BE000081
:10379000D5BE000018BF00005ABF00009CBF00004B
:1037A000DFBF000021C0000064C00000A7C000000F
:1037B000E9C000002CC100006FC10000B2C10000D0
:1037C000F6C1000039C200007CC20000C0C2000087
:1037D00003C3000047C300008BC30000CEC300003A
:1037E00012C4000056C400009AC40000DFC40000E8
:1037F00023C5000067C50000ACC50000F0C500008F
:1038000035C600007AC60000BEC6000003C700002F
:1038100048C700008DC70000D3C7000018C80000CB
:103820005DC80000A3C80000E8C800002EC9000061
:1038300074C90000BAC9000000CA000046CA0000EE
:103840008CCA0000D2CA000018CB00005FCB000079
:10385000A5CB0000ECCB000033CC00007ACC0000FC
:10386000C1CC000008CD00004FCD000096CD000077
:10387000DDCD000025CE00006CCE0000B4CE0000EF
:10388000FBCE000043CF00008BCF0000D3CF000061
:103890001BD0000063D00000ABD00000F4D00000CB
:1038A0003CD1000085D10000CED1000016D200002E
:1038B0005FD20000A8D20000F1D200003AD300008D
:1038C00084D30000CDD3000016D4000060D40000E3
:1038D000AAD40000F3D400003DD5000087D5000035
:1038E000D1D500001BD6000066D60000B0D600007F
:1038F000FAD6000045D7000090D70000DAD70000C4
:1039000025D8000070D80000BBD8000006D9000000
:1039100052D900009DD90000E9D9000034DA000036
:1039200080DA0000CCDA000017DB000063DB000067
:10393000B0DB0000FCDB000048DC000094DC000091
:10394000E1DC00002EDD00007ADD0000C7DD0000B4
:1039500014DE000061DE0000AEDE0000FBDE0000D1
:1039600049DF000096DF0000E4DF000031E00000E6
:103970007FE00000CDE000001BE1000069E10000F5
:10398000B7E1000005E2000054E20000A2E20000FE
:10399000F1E2000040E300008EE30000DDE3000000
:1039A0002CE400007BE40000CBE400001AE50000FA
:1039B00069E50000B9E5000009E6000058E60000EE
:1039C000A8E60000F8E6000048E7000099E70000DC
:1039D000E9E7000039E800008AE80000DBE80000C1
:1039E0002BE900007CE90000CDE900001EEA0000A0
:1039F0006FEA0000C1EA000012EB000064EB000077
:103A0000B5EB000007EC000059EC0000ABEC000047
:103A1000FDEC00004FED0000A1ED0000F4ED000012
:103A200046EE000099EE0000ECEE00003FEF0000D3
:103A300092EF0000E5EF000038F000008BF000008E
:103A4000DFF0000032F1000086F10000DAF1000042
:103A50002DF2000081F20000D6F200002AF30000EF
:103A60007EF30000D3F3000027F400007CF4000094
:103A7000D1F4000025F500007BF50000D0F5000032
:103A800025F600007AF60000D0F6000025F70000C9
:103A90007BF70000D1F7000027F800007DF8000058
:103AA000D3F8000029F9000080F90000D6F90000E1
:103AB0002DFA000084FA0000DBFA000032FB00005F
:103AC00089FB0000E0FB000037FC00008FFC0000D9
:103AD000E6FC00003EFD000096FD0000EEFD00004B
:103AE00046FE00009EFE0000F6FE00004FFF0000B4
:103AF000A7FF00000000010059000100B200010012
:103B00000B01010064010100BD0101001702010069
:103B100070020100CA020100230301007D030100BD
:103B2000D7030100310401008C040100E604010008
:103B3000400501009B050100F6050100510601004A
:103B4000AC0601000707010062070100BD07010084
:103B50001908010074080100D00801002C090100B7
:103B600088090100E4090100400A01009C0A0100E3
:103B7000F90A0100560B0100B20B01000F0C010005
:103B80006C0C0100C90C0100260D0100840D010020
:103B9000E10D01003F0E01009C0E0100FA0E010034
:103BA000580F0100B60F010015100100731001003D
:103BB000D1100100301101008F110100EE11010040
:103BC0004D120100AC1201000B1301006B13010038
:103BD000CA1301002A14010089140100E91401002C
:103BE00049150100AA1501000A1601006A16010014
:103BF000CB1601002C1701008C170100ED170100F6
:103C00004E180100B01801001119010072190100CD
:103C1000D4190100361A0100981A0100FA1A01009D
:103C20005C1B0100BE1B0100201C0100831C010065
:103C3000E61C0100481D0100AB1D01000E1E010025
:103C4000721E0100D51E0100381F01009C1F0100DB
:103C50000020010064200100C82001002C21010087
:103C600090210100F521010059220100BE2201002E
:103C70002323010088230100ED23010052240100C9
:103C8000B72401001D25010083250100E82501005E
:103C90004E260100B42601001B27010081270100E8
:103CA000E72701004E280100B52801001C2901006A
:103CB00083290100EA290100512A0100B92A0100E3
:103CC000202B0100882B0100F02B0100582C010053
:103CD000C02C0100282D0100912D0100F92D0100BB
:103CE000622E0100CB2E0100342F01009D2F010018
:103CF0000630010070300100D9300100433101006D
:103D0000AD3101001732010081320100EC320100B7
:103D100056330100C13301002B34010096340100F9
:103D2000013501006C350100D83501004336010032
:103D3000AF3601001A37010086370100F237010063
:103D40005F380100CB38010037390100A439010088
:103D5000113A01007E3A0100EB3A0100583B0100A4
:103D6000C53B0100333C0100A13C01000E3D0100B8
:103D70007C3D0100EA3D0100593E0100C73E0100C3
:103D8000363F0100A43F01001340010082400100C2
:103D9000F140010061410100D041010040420100B9
:103DA000AF4201001F4301008F43010000440100A6
:103DB00070440100E144010051450100C245010089
:103DC00033460100A4460100154701008747010062
:103DD000F84701006A480100DC4801004E49010033
:103DE000C0490100334A0100A54A0100184B0100F7
:103DF0008B4B0100FE4B0100714C0100E44C0100B3
:103E0000584D0100CB4D01003F4E0100B34E010063
:103E1000274F01009B4F010010500100845001000A
:103E2000F95001006E510100E351010058520100A8
:103E3000CD52010043530100B85301002E5401003C
:103E4000A45401001A5501009155010007560100C4
:103E50007E560100F45601006B570100E257010045
:103E60005A580100D158010049590100C1590100B7
:103E7000385A0100B05A0100295B0100A15B010022
:103E80001A5C0100925C01000B5D0100845D010081
:103E9000FE5D0100775E0100F05E01006A5F0100D7
:103EA000E45F01005E600100D86001005361010021
:103EB000CD61010048620100C36201003E63010060
:103EC000B963010034640100B06401002C65010095
:103ED000A765010024660100A06601001C670100BF
:103EE0009967010015680100926801000F690100DF
:103EF0008D6901000A6A0100876A0100056B0100F3
:103F0000836B0100016C01007F6C0100FE6C0100FD
:103F10007C6D0100FB6D01007A6E0100F96E0100FD
:103F2000786F0100F86F010077700100F7700100F1
:103F300077710100F771010078720100F8720100D9
:103F400079730100FA7301007B740100FC740100B5
:103F50007D750100FF750100807601000277010088
:103F60008477010007780100897801000C7901004D
:103F70008E790100117A0100947A0100187B01000A
:103F80009B7B01001F7C0100A37C0100277D0100B9
:103F9000AB7D01002F7E0100B47E0100387F01005F
:103FA000BD7F010042800100C88001004D810100F9
:103FB000D381010059820100DF8201006583010085
:103FC000EB83010072840100F88401007F85010009
:103FD000068601008E860100158701009D8701007D
:103FE00024880100AC88010035890100BD890100E9
:103FF000468A0100CE8A0100578B0100E08B010048
:104000006A8C0100F38C01007D8D0100078E010098
:10401000918E01001B8F0100A58F010030900100DF
:10402000BB90010046910100D19101005C9201001A
:10403000E892010073930100FF9301008C9401004A
:1040400018950100A495010031960100BE9601006B
:104050004B970100D897010066980100F398010082
:10406000819901000F9A01009D9A01002C9B01008B
:10407000BA9B0100499C0100D89C0100679D01008A
:10408000F79D0100869E0100169F0100A69F01007A
:1040900036A00100C6A0010057A10100E8A101005F
:1040A00079A201000AA301009BA301002DA4010035
:1040B000BEA4010050A50100E2A5010075A6010003
:1040C00007A701009AA701002DA80100C0A80100C0
:1040D00053A90100E7A901007AAA01000EAB010073
:1040E000A2AB010037AC0100CBAC010060AD010018
:1040F000F5AD01008AAE01001FAF0100B5AF0100B0
:104100004BB00100E0B0010077B101000DB2010039
:10411000A3B201003AB30100D1B3010068B40100B9
:1041200000B5010097B501002FB60100C7B6010028
:104130005FB70100F7B7010090B8010029B901008D
:10414000C2B901005BBA0100F4BA01008EBB0100E4
:1041500028BC0100C2BC01005CBD0100F7BD01002C
:1041600091BE01002CBF0100C7BF010063C0010068
:10417000FEC001009AC1010036C20100D2C2010096
:104180006EC301000BC40100A7C4010044C50100B7
:10419000E2C501007FC601001DC70100BBC70100C9
:1041A00059C80100F7C8010095C9010034CA0100CF
:1041B000D3CA010072CB010011CC0100B1CC0100C7
:1041C00051CD0100F1CD010091CE010031CF0100B0
:1041D000D2CF010073D0010014D10100B5D101008C
:1041E00057D20100F8D201009AD301003DD401005A
:1041F000DFD4010082D5010024D60100C7D601001A
:104200006BD701000ED80100B2D8010056D90100C9
:10421000FAD901009EDA010043DB0100E8DB01006E
:104220008DDC010032DD0100D8DD01007DDE010002
:1042300023DF0100C9DF010070E0010016E1010089
:10424000BDE1010064E201000CE30100B3E3010001
:104250005BE4010003E50100ABE5010054E6010069
:10426000FCE60100A5E701004EE80100F8E80100C6
:10427000A1E901004BEA0100F5EA01009FEB010012
:104280004AEC0100F5EC01009FED01004BEE01004E
:10429000F6EE0100A2EF01004EF00100FAF001007D
:1042A000A6F1010053F2010000F30100ADF301009B
:1042B0005AF4010007F50100B5F5010063F60100AD
:1042C00011F70100C0F701006FF801001EF90100AD
:1042D000CDF901007CFA01002CFB0100DCFB0100A0
:1042E0008CFC01003CFD0100EDFD01009EFE010083
:1042F0004FFF010000000200B20002006301020053
:1043000015020200C80202007A0302002D04020016
:10431000E00402009305020047060200FB060200CB
:10432000AF0702006308020017090200CC0902006F
:10433000810A0200360B0200EC0B0200A10C020005
:10434000570D02000D0E0200C40E02007B0F02008A
:1043500031100200E9100200A01102005812020000
:1043600010130200C8130200801402003915020065
:10437000F2150200AB160200641702001E180200BC
:10438000D8180200921902004D1A0200071B020001
:10439000C21B02007E1C0200391D0200F51D020036
:1043A000B11E02006D1F020029200200E62002005B
:1043B000A3210200602202001E230200DB23020070
:1043C000992402005825020016260200D526020074
:1043D000942702005328020013290200D329020067
:1043E000932A0200532B0200142C0200D52C020049
:1043F000962D0200572E0200192F0200DB2F02001B
:104400009D3002005F31020022320200E5320200DC
:10441000A83302006B3402002F350200F33502008E
:10442000B83602007C37020041380200063902002B
:10443000CB390200913A0200573B02001D3C0200BA
:10444000E33C0200AA3D0200713E0200383F020038
:1044500000400200C74002008F41020058420200A3
:1044600020430200E9430200B24402007C450200FE
:10447000454602000F470200DA470200A448020046
:104480006F4902003A4A0200054B0200D14B02007C
:104490009D4C0200694D0200354E0200024F0200A1
:1044A000CF4F02009C5002006A51020037520200B6
:1044B00005530200D4530200A254020071550200B9
:1044C0004056020010570200E0570200B0580200A8
:1044D00080590200515A0200225B0200F35B020085
:1044E000C45C0200965D0200685E02003A5F020052
:1044F0000D600200E0600200B3610200866202000B
:104500005A6302002E64020002650200D7650200B1
:10451000AC66020081670200576802002C69020045
:10452000026A0200D96A0200AF6B0200866C0200C8
:104530005D6D0200356E02000D6F0200E56F020036
:10454000BD700200967102006F7202004873020093
:1045500022740200FB740200D6750200B0760200DD
:104560008B77020066780200417902001D7A020012
:10457000F97A0200D57B0200B17C02008E7D020038
:104580006B7E0200497F0200268002000481020047
:10459000E3810200C1820200A08302007F84020046
:1045A0005F8502003F8602001F870200FF8702002E
:1045B000E0880200C1890200A28A0200848B020006
:1045C000668C0200488D02002B8E02000E8F0200C6
:1045D000F18F0200D4900200B89102009C92020078
:1045E00081930200659402004A9502003096020011
:1045F00015970200FB970200E2980200C89902009A
:10460000AF9A0200969B02007E9C0200669D02000B
:104610004E9E0200369F02001FA0020008A1020069
:10462000F2A10200DBA20200C5A30200B0A40200B6
:104630009AA5020085A6020071A702005CA80200EC
:1046400048A9020035AA020021AB02000EAC02000C
:10465000FBAC0200E9AD0200D7AE0200C5AF02001C
:10466000B4B00200A2B1020092B2020081B3020013
:1046700071B4020061B5020051B6020042B70200F7
:1046800033B8020025B9020017BA020009BB0200C4
:10469000FBBB0200EEBC0200E1BD0200D4BE020082
:1046A000C8BF0200BCC00200B1C10200A5C2020026
:1046B0009AC3020090C4020086C502007CC60200B4
:1046C00072C7020069C8020060C9020057CA02002E
:1046D0004FCB020047CC02003FCD020038CE020093
:1046E00031CF02002BD0020024D102001FD20200E1
:1046F00019D3020014D402000FD502000AD602001A
:1047000006D7020002D80200FFD80200FCD902003E
:10471000F9DA0200F6DB0200F4DC0200F2DD02004E
:10472000F1DE0200F0DF0200EFE00200EFE1020044
:10473000EEE20200EFE30200EFE40200F0E5020027
:10474000F2E60200F3E70200F5E80200F8E90200F1
:10475000FAEA0200FDEB020001ED020005EE0200A4
:1047600009EF02000DF0020012F1020017F2020040
:104770001DF3020023F4020029F502002FF60200C7
:1047800036F702003EF8020045F902004DFA020039
:1047900056FB02005EFC020067FD020071FE020093
:1047A0007BFF0200850003008F0103009A020300D3
:1047B000A6030300B1040300BD050300CA060300FD
:1047C000D6070300E3080300F1090300FF0A030012
:1047D0000D0C03001B0D03002A0E0300390F03000C
:1047E0004910030059110300691203007A130300F2
:1047F0008B1403009D150300AF160300C1170300BF
:10480000D3180300E6190300FA1A03000D1C030075
:10481000211D0300361E03004B1F03006020030010
:10482000752103008B220300A2230300B824030098
:10483000CF250300E7260300FF2703001729030005
:10484000302A0300492B0300622C03007C2D030057
:10485000962E0300B02F0300CB300300E631030097
:10486000023303001E3403003B35030057360300B8
:104870007537030092380300B0390300CF3A0300C4
:10488000ED3B03000C3D03002C3E03004C3F0300B6
:104890006C4003008D410300AE420300CF43030090
:1048A000F144030013460300364703005948030050
:1048B0007D490300A04A0300C54B0300E94C0300F7
:1048C0000E4E0300344F03005A5003008051030082
:1048D000A6520300CD530300F55403001D560300F8
:1048E000455703006D58030096590300C05A030052
:1048F000EA5B0300145D03003F5E03006A5F030090
:1049000095600300C1610300ED6203001A640300B7
:104910004765030074660300A2670300D1680300C3
:10492000FF6903002E6B03005E6C03008E6D0300B5
:10493000BE6E0300EF6F030020710300527203008C
:1049400084730300B6740300E97503001C77030049
:104950005078030084790300B87A0300ED7B0300EC
:10496000237D0300587E03008E7F0300C580030073
:10497000FC810300338303006B840300A4850300E0
:10498000DC860300158803004F890300898A030031
:10499000C38B0300FE8C0300398E0300758F030068
:1049A000B1900300EE9103002B9303006894030081
:1049B000A6950300E4960300239803006299030080
:1049C000A19A0300E19B0300229D0300639E030064
:1049D000A49F0300E6A0030028A203006AA303002B
:1049E000ADA40300F1A5030035A7030079A80300D7
:1049F000BEA9030003AB030049AC03008FAD030065
:104A0000D5AE03001CB0030064B10300ACB20300D8
:104A1000F4B303003DB5030086B60300D0B703002E
:104A20001AB9030064BA0300AFBB0300FBBC030068
:104A300047BE030093BF0300E0C003002DC2030084
:104A40007BC30300C9C4030017C6030066C7030085
:104A5000B6C8030006CA030056CB0300A7CC030068
:104A6000F8CD03004ACF03009CD00300EFD1030030
:104A700042D3030096D40300EAD503003FD70300D6
:104A800094D80300E9D903003FDB030095DC030061
:104A9000ECDD030043DF03009BE00300F4E10300CF
:104AA0004CE30300A5E40300FFE5030059E703001E
:104AB000B4E803000FEA03006AEB0300C6EC03004E
:104AC00023EE030080EF0300DDF003003BF2030060
:104AD00099F30300F8F4030057F60300B7F7030057
:104AE00018F9030078FA0300D9FB03003BFD03002B
:104AF0009DFE03000000040063010400C7020400DF
:104B00002B0404008F050400F40604005A08040076
:104B1000C0090400270B04008E0C0400F50D0400EE
:104B20005D0F0400C51004002E1204009813040049
:104B3000021504006C160400D71704004319040082
:104B4000AE1A04001B1C0400881D0400F51E04009E
:104B500063200400D121040040230400AF2404009A
:104B60001F2604009027040001290400722A040073
:104B7000E42B0400562D0400C92E04003C30040030
:104B8000B031040025330400993404000F360400CA
:104B900085370400FB380400723A0400E93B040046
:104BA000613D0400DA3E040053400400CC4104009F
:104BB00046430400C04404003B460400B7470400D9
:104BC00033490400AF4A04002C4C0400AA4D0400F1
:104BD000284F0400A750040026520400A5530400E7
:104BE00026550400A656040027580400A9590400BD
:104BF0002B5B0400AE5C0400315E0400B55F040072
:104C000039610400BE62040044640400CA65040003
:104C100050670400D76804005E6A0400E66B040075
:104C20006F6D0400F86E0400827004000C720400C2
:104C30009773040022750400AE7604003A780400ED
:104C4000C7790400547B0400E27C0400707E0400F9
:104C5000FF7F04008F8104001F830400B0840400E0
:104C600041860400D287040065890400F78A0400A5
:104C70008B8C04001F8E0400B38F04004891040045
:104C8000DE920400749404000A960400A1970400C4
:104C900039990400D19A04006A9C0400049E04001F
:104CA0009D9F040038A10400D3A204006FA4040057
:104CB0000BA60400A7A7040045A90400E3AA04006A
:104CC00081AC040020AE0400BFAF040060B104005A
:104CD00000B30400A1B4040043B60400E6B7040026
:104CE00088B904002CBB0400D0BC040075BE0400CD
:104CF0001AC00400C0C1040066C304000DC504004E
:104D0000B4C604005CC8040005CA0400AECB0400AD
:104D100058CD040002CF0400ADD0040059D20400E5
:104D200005D40400B1D504005FD704000CD90400F9
:104D3000BBDA04006ADC040019DE0400CADF0400E8
:104D40007AE104002CE30400DEE4040090E60400B1
:104D500043E80400F7E90400ABEB040060ED040055
:104D600015EF0400CBF0040082F2040039F40400D3
:104D7000F1F50400AAF7040063F904001CFB040029
:104D8000D6FC040091FE04004D0005000902050058
:104D9000C50305008305050040070500FF08050061
:104DA000BE0A05007D0C05003E0E0500FF0F050044
:104DB000C011050082130500451505000817050000
:104DC000CC180500901A0500561C05001B1E050096
:104DD000E21F0500A9210500702305003825050004
:104DE00001270500CB280500952A05005F2C05004A
:104DF0002B2E0500F72F0500C33105009033050069
:104E00005E3505002D370500FC380500CB3A05005E
:104E10009C3C05006D3E05003E400500104205002B
:104E2000E3430500B74505008B4705005F490500D2
:104E3000354B05000B4D0500E14E0500B95005004E
:104E40009152050069540500425605001C580500A2
:104E5000F7590500D25B0500AE5D05008A5F0500CD
:104E600067610500456305002365050002670500CD
:104E7000E2680500C26A0500A36C0500846E0500A7
:104E8000677005004A7205002D7405001176050053
:104E9000F6770500DC790500C27B0500A97D0500D9
:104EA000907F050078810500618305004B85050032
:104EB00035870500208905000B8B0500F78C050060
:104EC000E48E0500D2900500C0920500AE94050066
:104ED0009E9605008E9805007F9A0500709C05003F
:104EE000639E050055A0050049A205003DA40500EC
:104EF00032A6050028A805001EAA050015AC05006D
:104F00000CAE050005B00500FEB10500F7B30500C5
:104F1000F2B50500EDB70500E8B90500E5BB0500F1
:104F2000E2BD0500DFBF0500DEC10500DDC30500F1
:104F3000DDC50500DDC70500DFC90500E1CB0500C3
:104F4000E3CD0500E7CF0500EBD10500EFD3050069
:104F5000F5D50500FBD7050002DA050009DC0500E0
:104F600011DE05001AE0050024E205002EE405002C
:104F700039E6050045E8050052EA05005FEC05004A
:104F80006DEE05007BF005008BF205009BF405003B
:104F9000ABF60500BDF80500CFFA0500E2FC050000
:104FA000F5FE05000A0106001F0306003505060090
:104FB0004B070600620906007A0B0600930D0600F7
:104FC000AC0F0600C7110600E1130600FD15060030
:104FD00019180600361A0600541C0600731E060037
:104FE00092200600B2220600D3240600F426060012
:104FF00016290600392B06005D2D0600812F0600BC
:10500000A7310600CD330600F33506001B38060035
:10501000433A06006C3C0600953E0600C040060080
:10502000EB4206001745060043470600714906009B
:105030009F4B0600CE4D0600FE4F06002E52060086
:105040005F54060091560600C4580600F75A060041
:105050002C5D0600615F060096610600CD630600C8
:10506000046606003C680600756A0600AF6C060020
:10507000E96E060024710600607306009D75060047
:10508000DB770600197A0600587C0600987E060039
:10509000D88006001A8306005C8506009F870600FC
:1050A000E2890600278C06006C8E0600B29006008E
:1050B000F99206004195060089970600D3990600EB
:1050C0001D9C0600689E0600B3A0060000A3060013
:1050D0004DA506009BA70600EAA9060039AC06000C
:1050E0008AAE0600DBB006002DB3060080B50600D0
:1050F000D3B7060028BA06007DBC0600D3BE060062
:105100002AC1060082C30600DAC5060034C80600BC
:105110008ECA0600E9CC060044CF0600A1D10600E5
:10512000FED306005DD60600BCD806001CDB0600D8
:105130007CDD0600DEDF060040E20600A3E4060098
:1051400007E706006CE90600D2EB060038EE060021
:105150009FF0060008F3060071F50600DAF7060076
:1051600045FA0600B1FC06001DFF06008A01070093
:10517000F803070067060700D7080700470B07007A
:10518000B90D07002B1007009E120700121507002B
:1051900087170700FC190700731C0700EA1E0700A9
:1051A00062210700DB23070055260700D0280700EF
:1051B0004C2B0700C82D070046300700C4320700FB
:1051C00043350700C3370700443A0700C53C0700D2
:1051D000483F0700CB41070050440700D546070071
:1051E0005B490700E24B07006A4E0700F2500700D8
:1051F0007C53070006560700925807001E5B070005
:10520000AB5D070039600700C862070057650700FB
:10521000E86707007A6A07000C6D07009F6F0700B8
:1052200033720700C87407005E770700F57907003E
:105230008D7C0700267F0700BF8107005A84070086
:10524000F5860700928907002F8C0700CD8E070096
:105250006C9107000C940700AD9607004E9907006B
:10526000F19B0700949E070039A10700DEA3070009
:1052700085A607002CA90700D4AB07007DAE070068
:1052800027B10700D2B307007EB607002BB907008D
:10529000D8BB070087BE070037C10700E7C3070078
:1052A00098C607004BC90700FECB0700B2CE070027
:1052B00067D107001ED40700D5D607008DD9070097
:1052C00046DC0700FFDE0700BAE1070076E40700CE
:1052D00033E70700F0E90700AFEC07006FEF0700C6
:1052E0002FF20700F1F40700B3F7070076FA070082
:1052F0003BFD070000000000240027002A000000FA
:105300000000250028002B000000000023002600DC
:105310002900040404040404040402020202020238
:105320000303030303030102040810204080010269
:1053300004081020010204081020000000070002E9
:105340000100000304060000000000000000DF2947
:1053500011241FBECFEFD8E0DEBFCDBF11E0A0E02B
:10536000B1E0E0E9F2E602C005900D92A634B10783
:10537000D9F717E0A6E4B1E001C01D92AB3DB1073B
:10538000E1F713E5C0E5D3E504C02297FE010E94D2
:105390004231CE34D107C9F70E94682F0C944631B0
:1053A0000C940000FB01DC0102C005900D924150FD
:1053B0005040D8F7089581E08093CD07089586E4A2
:1053C00091E063E070E04AE050E02FEF3FEF0E9491
:1053D0002C2D08959B01AC0182E0220F331F441F46
:1053E000551F8A95D1F786E491E0B9010E94272DD7
:1053F0000895EF92FF920F931F93CF93DF937A015B
:105400008B01EC018830910514F0C7E0D0E0809169
:105410004001992787FD9095C817D907F1F0FE0143
:10542000EE0FFF1FE05FFE4F4081518186E0413665
:10543000580714F040E656E05093B3074093B20784
:10544000FE01EE0FFF1FE050FF4F6081718182E58A
:1054500091E00E94D229C093400120914001C22FC7
:10546000DD27C7FDD095CC0FDD1FCC0FDD1FC05E43
:10547000DE4FC801B7010E94F52F288139814A818A
:105480005B810E9459300E94C22F6093B4077093D1
:10549000B5078093B6079093B707DF91CF911F911F
:1054A0000F91FF90EF9008956F927F928F929F924D
:1054B000AF92BF92CF92DF92EF92FF920F931F9322
:1054C0008091CD07813009F03CC12091C507309112
:1054D000C6072F5F3F4F3093C6072093C5078091C3
:1054E000C7079091C80701969093C8078093C70794
:1054F0008091C9079091CA0701969093CA0780933B
:10550000C9078091CB079091CC0701969093CC0767
:105510008093CB0780914101909142012817390770
:1055200044F01092C6071092C50784E061E00E9423
:10553000CB2D2091C7073091C807809143019091EE
:1055400044012817390744F01092C8071092C70782
:1055500085E061E00E94CB2D6090C9077090CA077A
:10556000882477FC8094982C82E00E941F2E00D023
:1055700000D0AA2797FDA095BA2F2CE030E040E09C
:1055800050E0EDB7FEB72183328343835483BC01DF
:10559000CD0120E030E040E050E0F6EFEF2EF3E008
:1055A000FF2E012D112DE1E0AE2EB12CC12CD12CFE
:1055B0000E94792F0F900F900F900F90661677062C
:1055C0008806990644F01092CA071092C90786E02F
:1055D00061E00E94CB2D6090CB077090CC078824AF
:1055E00077FC8094982C83E00E941F2E00D000D07E
:1055F000AA2797FDA095BA2F2CE030E040E050E0BC
:10560000EDB7FEB72183328343835483BC01CD01C0
:1056100020E030E040E050E016EFE12E13E0F12E04
:10562000012D112DB1E0AB2EB12CC12CD12C0E943B
:10563000792F0F900F900F900F90661677068806BF
:10564000990644F01092CC071092CB0787E061E0F6
:105650000E94CB2D1092CD0781E08093C4070E9459
:10566000892E6093C0077093C1078093C2079093FF
:10567000C30780E00E941F2E4091B8075091B907E0
:105680009C01241B350B37FF03C0309521953F4FFC
:10569000293031050CF4CA019093B9078093B807FB
:1056A00081E00E941F2E4091BA075091BB079C01D8
:1056B000241B350B37FF03C0309521953F4F293010
:1056C00031050CF4CA019093BB078093BA07FC0123
:1056D000EE0FFF1FEE0FFF1FEC50FD4C6590759015
:1056E0008590949000D000D06091B8077091B90770
:1056F000882777FD8095982F28E030E040E050E043
:10570000ADB7BEB711962D933D934D935C9314970F
:1057100020E030E040E050E0EFEFEE2EE3E0FE2E40
:10572000012D112DAA24BB2465010E94792FDC01D3
:10573000CB010F900F900F900F90B401A3010E9426
:10574000F9298091C407882309F47BC00E94892E1F
:105750006093BC077093BD078093BE079093BF070B
:105760002091C0073091C1074091C2075091C307F3
:105770006217730784079507621B730B840B950BE5
:105780002091B4073091B5074091B6075091B70703
:105790000E94E4305B016C013601992477FC9094FF
:1057A000892C8091B2079091B3070197AA2797FDA2
:1057B000A095BA2F681679068A069B06D4F58FEF56
:1057C0009FEFA0E0B0E0A822B922CA22DB22089411
:1057D000611C711C811C911CF301EE5AFE4F089450
:1057E0006108710881089108608170E080E090E0B4
:1057F000A60195010E94E4307B018C01F301EE5A71
:10580000FE4F608170E080E090E020E030E041E019
:1058100050E02A193B094C095D090E94E430E60E6C
:10582000F71E081F191FB801992777FD9095892F3A
:1058300006C01092C40760E870E080E090E00E942B
:10584000EA2984E060E00E94CB2D85E060E00E94C0
:10585000CB2D86E060E00E94CB2D87E060E00E94C7
:10586000CB2D1F910F91FF90EF90DF90CF90BF90C5
:10587000AF909F908F907F906F9008950F931F939C
:1058800082E060E00E948C2D84E061E00E948C2D1B
:1058900084E060E00E94CB2D85E061E00E948C2DC9
:1058A00085E060E00E94CB2D86E061E00E948C2DB7
:1058B00087E060E00E94CB2D87E061E00E948C2DA4
:1058C00087E060E00E94CB2D80E090E041E050E076
:1058D00060E070E00E94F92960E870E080E090E00C
:1058E0000E94EA2980E06BED79E243E050E00E94FB
:1058F000EA2E06E411E0C80161E00E94A22CC80172
:1059000062E070E00E94A82CC80161E00E94A52C12
:105910001F910F9108958AE061E00E94CB2D8AE0EB
:1059200061E00E948C2D8CB580618CBD8CB580644B
:105930008CBD8DE061E00E948C2D8BE061E00E94C7
:105940008C2D0895FC0166830895FC0160870895FD
:10595000FC016130710519F4178281E0089562300D
:10596000710511F080E0089581E087830895FF922A
:105970000F931F93CF93DF938C01EB01F42EDC0187
:1059800014968D919C9115978C30910511F4DF70D0
:1059900008C08A30910511F4D37003C0089709F448
:1059A000D070F8018085882311F02A9805C0D801AD
:1059B0008C9160E00E94CB2DD8011696EC91169741
:1059C00017968C91882319F040E050E002C040E027
:1059D00050E28CE090E0D80114962D913C911597FF
:1059E000821B930BBE0102C0660F771F8A95E2F7F8
:1059F00070613F2D37953327379520E09E2F929584
:105A0000990F990F907C80E0282B392B242B352B74
:105A1000622B732B7EBD00000DB407FEFDCF8EB54B
:105A20006EBD00000DB407FEFDCF8EB5F801808578
:105A3000882311F02A9A05C0D8018C9161E00E9458
:105A4000CB2DDF91CF911F910F91FF90089540E0F2
:105A500050E00E94B72C0895CF93DF93EC011E8293
:105A60001F82188684E090E09A87898781E08B877F
:105A7000598348833B832A8363307105E1F06430A6
:105A800071053CF46130710571F062307105B1F45B
:105A90000DC06530710551F06530710524F0663038
:105AA000710561F408C088E090E002C08AE090E0EF
:105AB0009D838C8305C08CE090E0FACF1D821C8210
:105AC000888161E00E948C2D8A8161E00E948C2D8A
:105AD000888161E00E94CB2D8A8161E00E94CB2DFC
